{
  "_format": "hh-sol-artifact-1",
  "contractName": "AMMRouter01",
  "sourceName": "contracts/online.sol",
  "abi": [
    {
      "inputs": [],
      "stateMutability": "nonpayable",
      "type": "constructor"
    },
    {
      "inputs": [],
      "name": "InvalidInitialization",
      "type": "error"
    },
    {
      "inputs": [],
      "name": "NotInitializing",
      "type": "error"
    },
    {
      "inputs": [
        {
          "internalType": "address",
          "name": "owner",
          "type": "address"
        }
      ],
      "name": "OwnableInvalidOwner",
      "type": "error"
    },
    {
      "inputs": [
        {
          "internalType": "address",
          "name": "account",
          "type": "address"
        }
      ],
      "name": "OwnableUnauthorizedAccount",
      "type": "error"
    },
    {
      "inputs": [],
      "name": "ReentrancyGuardReentrantCall",
      "type": "error"
    },
    {
      "inputs": [
        {
          "internalType": "address",
          "name": "token",
          "type": "address"
        }
      ],
      "name": "SafeERC20FailedOperation",
      "type": "error"
    },
    {
      "anonymous": false,
      "inputs": [
        {
          "indexed": false,
          "internalType": "uint64",
          "name": "version",
          "type": "uint64"
        }
      ],
      "name": "Initialized",
      "type": "event"
    },
    {
      "anonymous": false,
      "inputs": [
        {
          "indexed": true,
          "internalType": "address",
          "name": "previousOwner",
          "type": "address"
        },
        {
          "indexed": true,
          "internalType": "address",
          "name": "newOwner",
          "type": "address"
        }
      ],
      "name": "OwnershipTransferred",
      "type": "event"
    },
    {
      "inputs": [],
      "name": "WETH",
      "outputs": [
        {
          "internalType": "address",
          "name": "",
          "type": "address"
        }
      ],
      "stateMutability": "view",
      "type": "function"
    },
    {
      "inputs": [
        {
          "internalType": "address",
          "name": "tokenA",
          "type": "address"
        },
        {
          "internalType": "address",
          "name": "tokenB",
          "type": "address"
        },
        {
          "internalType": "uint256",
          "name": "amountADesired",
          "type": "uint256"
        },
        {
          "internalType": "uint256",
          "name": "amountBDesired",
          "type": "uint256"
        },
        {
          "internalType": "uint256",
          "name": "amountAMin",
          "type": "uint256"
        },
        {
          "internalType": "uint256",
          "name": "amountBMin",
          "type": "uint256"
        },
        {
          "internalType": "address",
          "name": "to",
          "type": "address"
        },
        {
          "internalType": "uint256",
          "name": "deadline",
          "type": "uint256"
        }
      ],
      "name": "addLiquidity",
      "outputs": [
        {
          "internalType": "uint256",
          "name": "amountA",
          "type": "uint256"
        },
        {
          "internalType": "uint256",
          "name": "amountB",
          "type": "uint256"
        },
        {
          "internalType": "uint256",
          "name": "liquidity",
          "type": "uint256"
        }
      ],
      "stateMutability": "nonpayable",
      "type": "function"
    },
    {
      "inputs": [
        {
          "internalType": "address",
          "name": "token",
          "type": "address"
        },
        {
          "internalType": "uint256",
          "name": "amountTokenDesired",
          "type": "uint256"
        },
        {
          "internalType": "uint256",
          "name": "amountTokenMin",
          "type": "uint256"
        },
        {
          "internalType": "uint256",
          "name": "amountETHMin",
          "type": "uint256"
        },
        {
          "internalType": "address",
          "name": "to",
          "type": "address"
        },
        {
          "internalType": "uint256",
          "name": "deadline",
          "type": "uint256"
        }
      ],
      "name": "addLiquidityETH",
      "outputs": [
        {
          "internalType": "uint256",
          "name": "amountToken",
          "type": "uint256"
        },
        {
          "internalType": "uint256",
          "name": "amountETH",
          "type": "uint256"
        },
        {
          "internalType": "uint256",
          "name": "liquidity",
          "type": "uint256"
        }
      ],
      "stateMutability": "payable",
      "type": "function"
    },
    {
      "inputs": [],
      "name": "factory",
      "outputs": [
        {
          "internalType": "address",
          "name": "",
          "type": "address"
        }
      ],
      "stateMutability": "view",
      "type": "function"
    },
    {
      "inputs": [
        {
          "internalType": "uint256",
          "name": "amountOut",
          "type": "uint256"
        },
        {
          "internalType": "uint256",
          "name": "reserveIn",
          "type": "uint256"
        },
        {
          "internalType": "uint256",
          "name": "reserveOut",
          "type": "uint256"
        }
      ],
      "name": "getAmountIn",
      "outputs": [
        {
          "internalType": "uint256",
          "name": "amountIn",
          "type": "uint256"
        }
      ],
      "stateMutability": "pure",
      "type": "function"
    },
    {
      "inputs": [
        {
          "internalType": "uint256",
          "name": "amountIn",
          "type": "uint256"
        },
        {
          "internalType": "uint256",
          "name": "reserveIn",
          "type": "uint256"
        },
        {
          "internalType": "uint256",
          "name": "reserveOut",
          "type": "uint256"
        }
      ],
      "name": "getAmountOut",
      "outputs": [
        {
          "internalType": "uint256",
          "name": "amountOut",
          "type": "uint256"
        }
      ],
      "stateMutability": "pure",
      "type": "function"
    },
    {
      "inputs": [
        {
          "internalType": "uint256",
          "name": "amountOut",
          "type": "uint256"
        },
        {
          "internalType": "address[]",
          "name": "path",
          "type": "address[]"
        }
      ],
      "name": "getAmountsIn",
      "outputs": [
        {
          "internalType": "uint256[]",
          "name": "amounts",
          "type": "uint256[]"
        }
      ],
      "stateMutability": "view",
      "type": "function"
    },
    {
      "inputs": [
        {
          "internalType": "uint256",
          "name": "amountIn",
          "type": "uint256"
        },
        {
          "internalType": "address[]",
          "name": "path",
          "type": "address[]"
        }
      ],
      "name": "getAmountsOut",
      "outputs": [
        {
          "internalType": "uint256[]",
          "name": "amounts",
          "type": "uint256[]"
        }
      ],
      "stateMutability": "view",
      "type": "function"
    },
    {
      "inputs": [
        {
          "internalType": "address",
          "name": "_factoryAddr",
          "type": "address"
        },
        {
          "internalType": "address",
          "name": "_WETHAddr",
          "type": "address"
        }
      ],
      "name": "initialize",
      "outputs": [],
      "stateMutability": "nonpayable",
      "type": "function"
    },
    {
      "inputs": [],
      "name": "owner",
      "outputs": [
        {
          "internalType": "address",
          "name": "",
          "type": "address"
        }
      ],
      "stateMutability": "view",
      "type": "function"
    },
    {
      "inputs": [
        {
          "internalType": "uint256",
          "name": "amountA",
          "type": "uint256"
        },
        {
          "internalType": "uint256",
          "name": "reserveA",
          "type": "uint256"
        },
        {
          "internalType": "uint256",
          "name": "reserveB",
          "type": "uint256"
        }
      ],
      "name": "quote",
      "outputs": [
        {
          "internalType": "uint256",
          "name": "amountB",
          "type": "uint256"
        }
      ],
      "stateMutability": "pure",
      "type": "function"
    },
    {
      "inputs": [
        {
          "internalType": "address",
          "name": "tokenA",
          "type": "address"
        },
        {
          "internalType": "address",
          "name": "tokenB",
          "type": "address"
        },
        {
          "internalType": "uint256",
          "name": "liquidity",
          "type": "uint256"
        },
        {
          "internalType": "uint256",
          "name": "amountAMin",
          "type": "uint256"
        },
        {
          "internalType": "uint256",
          "name": "amountBMin",
          "type": "uint256"
        },
        {
          "internalType": "address",
          "name": "to",
          "type": "address"
        },
        {
          "internalType": "uint256",
          "name": "deadline",
          "type": "uint256"
        }
      ],
      "name": "removeLiquidity",
      "outputs": [
        {
          "internalType": "uint256",
          "name": "amountA",
          "type": "uint256"
        },
        {
          "internalType": "uint256",
          "name": "amountB",
          "type": "uint256"
        }
      ],
      "stateMutability": "nonpayable",
      "type": "function"
    },
    {
      "inputs": [
        {
          "internalType": "address",
          "name": "token",
          "type": "address"
        },
        {
          "internalType": "uint256",
          "name": "liquidity",
          "type": "uint256"
        },
        {
          "internalType": "uint256",
          "name": "amountTokenMin",
          "type": "uint256"
        },
        {
          "internalType": "uint256",
          "name": "amountETHMin",
          "type": "uint256"
        },
        {
          "internalType": "address",
          "name": "to",
          "type": "address"
        },
        {
          "internalType": "uint256",
          "name": "deadline",
          "type": "uint256"
        }
      ],
      "name": "removeLiquidityETH",
      "outputs": [
        {
          "internalType": "uint256",
          "name": "amountToken",
          "type": "uint256"
        },
        {
          "internalType": "uint256",
          "name": "amountETH",
          "type": "uint256"
        }
      ],
      "stateMutability": "nonpayable",
      "type": "function"
    },
    {
      "inputs": [
        {
          "internalType": "address",
          "name": "token",
          "type": "address"
        },
        {
          "internalType": "uint256",
          "name": "liquidity",
          "type": "uint256"
        },
        {
          "internalType": "uint256",
          "name": "amountTokenMin",
          "type": "uint256"
        },
        {
          "internalType": "uint256",
          "name": "amountETHMin",
          "type": "uint256"
        },
        {
          "internalType": "address",
          "name": "to",
          "type": "address"
        },
        {
          "internalType": "uint256",
          "name": "deadline",
          "type": "uint256"
        },
        {
          "internalType": "bool",
          "name": "approveMax",
          "type": "bool"
        },
        {
          "internalType": "uint8",
          "name": "v",
          "type": "uint8"
        },
        {
          "internalType": "bytes32",
          "name": "r",
          "type": "bytes32"
        },
        {
          "internalType": "bytes32",
          "name": "s",
          "type": "bytes32"
        }
      ],
      "name": "removeLiquidityETHWithPermit",
      "outputs": [
        {
          "internalType": "uint256",
          "name": "amountToken",
          "type": "uint256"
        },
        {
          "internalType": "uint256",
          "name": "amountETH",
          "type": "uint256"
        }
      ],
      "stateMutability": "nonpayable",
      "type": "function"
    },
    {
      "inputs": [
        {
          "internalType": "address",
          "name": "tokenA",
          "type": "address"
        },
        {
          "internalType": "address",
          "name": "tokenB",
          "type": "address"
        },
        {
          "internalType": "uint256",
          "name": "liquidity",
          "type": "uint256"
        },
        {
          "internalType": "uint256",
          "name": "amountAMin",
          "type": "uint256"
        },
        {
          "internalType": "uint256",
          "name": "amountBMin",
          "type": "uint256"
        },
        {
          "internalType": "address",
          "name": "to",
          "type": "address"
        },
        {
          "internalType": "uint256",
          "name": "deadline",
          "type": "uint256"
        },
        {
          "internalType": "bool",
          "name": "approveMax",
          "type": "bool"
        },
        {
          "internalType": "uint8",
          "name": "v",
          "type": "uint8"
        },
        {
          "internalType": "bytes32",
          "name": "r",
          "type": "bytes32"
        },
        {
          "internalType": "bytes32",
          "name": "s",
          "type": "bytes32"
        }
      ],
      "name": "removeLiquidityWithPermit",
      "outputs": [
        {
          "internalType": "uint256",
          "name": "amountA",
          "type": "uint256"
        },
        {
          "internalType": "uint256",
          "name": "amountB",
          "type": "uint256"
        }
      ],
      "stateMutability": "nonpayable",
      "type": "function"
    },
    {
      "inputs": [],
      "name": "renounceOwnership",
      "outputs": [],
      "stateMutability": "nonpayable",
      "type": "function"
    },
    {
      "inputs": [
        {
          "internalType": "uint256",
          "name": "amountOut",
          "type": "uint256"
        },
        {
          "internalType": "address[]",
          "name": "path",
          "type": "address[]"
        },
        {
          "internalType": "address",
          "name": "to",
          "type": "address"
        },
        {
          "internalType": "uint256",
          "name": "deadline",
          "type": "uint256"
        }
      ],
      "name": "swapETHForExactTokens",
      "outputs": [
        {
          "internalType": "uint256[]",
          "name": "amounts",
          "type": "uint256[]"
        }
      ],
      "stateMutability": "payable",
      "type": "function"
    },
    {
      "inputs": [
        {
          "internalType": "uint256",
          "name": "amountOutMin",
          "type": "uint256"
        },
        {
          "internalType": "address[]",
          "name": "path",
          "type": "address[]"
        },
        {
          "internalType": "address",
          "name": "to",
          "type": "address"
        },
        {
          "internalType": "uint256",
          "name": "deadline",
          "type": "uint256"
        }
      ],
      "name": "swapExactETHForTokens",
      "outputs": [
        {
          "internalType": "uint256[]",
          "name": "amounts",
          "type": "uint256[]"
        }
      ],
      "stateMutability": "payable",
      "type": "function"
    },
    {
      "inputs": [
        {
          "internalType": "uint256",
          "name": "amountIn",
          "type": "uint256"
        },
        {
          "internalType": "uint256",
          "name": "amountOutMin",
          "type": "uint256"
        },
        {
          "internalType": "address[]",
          "name": "path",
          "type": "address[]"
        },
        {
          "internalType": "address",
          "name": "to",
          "type": "address"
        },
        {
          "internalType": "uint256",
          "name": "deadline",
          "type": "uint256"
        }
      ],
      "name": "swapExactTokensForETH",
      "outputs": [
        {
          "internalType": "uint256[]",
          "name": "amounts",
          "type": "uint256[]"
        }
      ],
      "stateMutability": "nonpayable",
      "type": "function"
    },
    {
      "inputs": [
        {
          "internalType": "uint256",
          "name": "amountIn",
          "type": "uint256"
        },
        {
          "internalType": "uint256",
          "name": "amountOutMin",
          "type": "uint256"
        },
        {
          "internalType": "address[]",
          "name": "path",
          "type": "address[]"
        },
        {
          "internalType": "address",
          "name": "to",
          "type": "address"
        },
        {
          "internalType": "uint256",
          "name": "deadline",
          "type": "uint256"
        }
      ],
      "name": "swapExactTokensForTokens",
      "outputs": [
        {
          "internalType": "uint256[]",
          "name": "amounts",
          "type": "uint256[]"
        }
      ],
      "stateMutability": "nonpayable",
      "type": "function"
    },
    {
      "inputs": [
        {
          "internalType": "uint256",
          "name": "amountOut",
          "type": "uint256"
        },
        {
          "internalType": "uint256",
          "name": "amountInMax",
          "type": "uint256"
        },
        {
          "internalType": "address[]",
          "name": "path",
          "type": "address[]"
        },
        {
          "internalType": "address",
          "name": "to",
          "type": "address"
        },
        {
          "internalType": "uint256",
          "name": "deadline",
          "type": "uint256"
        }
      ],
      "name": "swapTokensForExactETH",
      "outputs": [
        {
          "internalType": "uint256[]",
          "name": "amounts",
          "type": "uint256[]"
        }
      ],
      "stateMutability": "nonpayable",
      "type": "function"
    },
    {
      "inputs": [
        {
          "internalType": "uint256",
          "name": "amountOut",
          "type": "uint256"
        },
        {
          "internalType": "uint256",
          "name": "amountInMax",
          "type": "uint256"
        },
        {
          "internalType": "address[]",
          "name": "path",
          "type": "address[]"
        },
        {
          "internalType": "address",
          "name": "to",
          "type": "address"
        },
        {
          "internalType": "uint256",
          "name": "deadline",
          "type": "uint256"
        }
      ],
      "name": "swapTokensForExactTokens",
      "outputs": [
        {
          "internalType": "uint256[]",
          "name": "amounts",
          "type": "uint256[]"
        }
      ],
      "stateMutability": "nonpayable",
      "type": "function"
    },
    {
      "inputs": [
        {
          "internalType": "address",
          "name": "newOwner",
          "type": "address"
        }
      ],
      "name": "transferOwnership",
      "outputs": [],
      "stateMutability": "nonpayable",
      "type": "function"
    },
    {
      "stateMutability": "payable",
      "type": "receive"
    }
  ],
  "bytecode": "0x608080604052346100b8577ff0c57e16840df040f15088dc2f81fe391c3923bec73e23a9662efc9c229c6a009081549060ff8260401c166100a957506001600160401b036002600160401b031982821601610064575b60405161292e90816100be8239f35b6001600160401b031990911681179091556040519081527fc7f505b2f371ae2175ee4913f4499e1f2633a7b5936321eed1cdaeb6115181d290602090a1388080610055565b63f92ee8a960e01b8152600490fd5b600080fdfe60406080815260049081361015610035575b5050361561001e57600080fd5b61003360018060a01b03600154163314611c54565b005b600090813560e01c806302751cec146115c4578063054d50d4146115a957806318cbafe51461145d5780631f00ca74146114445780632195995c1461130157806338ed17391461129b578063485cc955146111065780634a25d94a14610f34578063715018a614610ec95780637ff36ab514610d5757806385f8c25914610d3c5780638803dbee14610c605780638da5cb5b14610c2b578063ad5c464814610c03578063ad615dec14610be1578063baa2abde14610a2c578063c45a015514610a05578063d06ca61f146109c2578063ded9382a14610686578063e8e3370014610569578063f2fde38b14610539578063f305d7191461035d5763fb3bdb411461013f5750610011565b61015a61014b36611971565b949094939192934211156119bd565b811561034a5795859661018e966101a461017386611a93565b6001546001600160a01b039081169a90949185168b14611aa7565b838354169061019e36888a611b0b565b91612281565b976101ba6101b18a611b69565b51341015611be5565b6101c389611b69565b5190803b15610346578290858a5180948193630d0e30db60e41b83525af1801561033c57610324575b505080600154169088541661020085611a93565b846001101561031157916102266102629492602094610220868a01611a93565b91611faf565b8a6102308b611b69565b518a5163a9059cbb60e01b81526001600160a01b03909316948301948552602085015290948593849291839160400190565b03925af1908115610307579161028b610298959492610292946102b39a916102d8575b50611c54565b3691611b0b565b846120cf565b6102a182611b69565b5134116102b7575b5191829182611901565b0390f35b6102d36102cd6102c684611b69565b5134611a4a565b33611ce5565b6102a9565b6102fa915060203d602011610300575b6102f28183611a28565b810190611c3c565b38610285565b503d6102e8565b85513d89823e3d90fd5b634e487b7160e01b8a526032845260248afd5b61032d906119fe565b6103385787386101ec565b8780fd5b88513d84823e3d90fd5b8280fd5b634e487b7160e01b865260328752602486fd5b61039661038085858561036f36611827565b9993999890989291924211156119bd565b6001546001600160a01b039934918b1686612547565b9690956103bb876103b08488541686866001541691611faf565b809585339116612074565b8160015416803b156105355785899188875180948193630d0e30db60e41b83525af1801561052b57908691610513575b50600154855163a9059cbb60e01b81526001600160a01b03861689820190815260208082018d905296939192879284928390036040019183919089165af19081156105095784602493610449889796948b9485916104ec5750611c54565b88519a8b9687956335313c2160e11b87521690850152165af19283156104e157926104aa575b506102b39250843411610498575b51938493846040919493926060820195825260208201520152565b6104a56102cd8634611a4a565b61047d565b90915082813d83116104da575b6104c18183611a28565b810103126104d5576102b39151908561046f565b600080fd5b503d6104b7565b8251903d90823e3d90fd5b6105039150893d8b11610300576102f28183611a28565b8f610285565b86513d89823e3d90fd5b61051c906119fe565b6105275784896103eb565b8480fd5b85513d88823e3d90fd5b8580fd5b8234610566576020366003190112610566576105636105566117e5565b61055e612349565b611c71565b80f35b80fd5b5082903461034657610100366003190112610346576105866117e5565b9261058f6117fb565b6001600160a01b039390929060c435858116908190036104d557602460209285610607986105c14260e43510156119bd565b6105d960a4356084358d606435908d60443591612547565b8c8b6105fe839f859f959e6105f191888a5416611faf565b9d8e809488339116612074565b84339116612074565b865198899586946335313c2160e11b8652850152165af191821561067b5791610645575b519283526020830193909352506040810191909152606090f35b90506020823d602011610673575b8161066060209383611a28565b810103126104d5576102b391519061062b565b3d9150610653565b9051903d90823e3d90fd5b5091903461056657610140366003190112610566576106a36117e5565b602480359391926084359290916001600160a01b0380851685036104d55760a43560c43580151581036104d55760e43560ff811681036104d5576106f0848854168a866001541691611faf565b91156109ba5783600019925b1690813b15610338578b5163d505accf60e01b81523381890190815230602082015260408101949094526060840185905260ff90911660808401526101043560a08401526101243560c0840152918791839182908490829060e00103925af180156109b057918a918793610997575b50421115986107798a6119bd565b61078784600154169a6119bd565b6107a46107988b8b87875416611faf565b91858316923384612074565b8482518094819363226bf2d160e21b8352308a8401525af197881561098d5785918699610955575b50826107d981928a61246f565b5098169716870361094f5796955b60443588106109035760643587106108b757885163a9059cbb60e01b6020808301919091526001600160a01b0388168583019081529081018a9052610844929061083f9083906040015b03601f198101845283611a28565b612758565b6001541691823b156108b35783918691838a519586948593632e1a7d4d60e01b85528401525af180156108a95790849291610891575b505061088591611ce5565b82519182526020820152f35b81925061089d906119fe565b6105665780839161087a565b86513d84823e3d90fd5b8380fd5b885162461bcd60e51b81526020818601526021818501527f414d4d4c6962726172793a20494e53554646494349454e545f425f414d4f554e6044820152601560fa1b6064820152608490fd5b885162461bcd60e51b81526020818601526021818501527f414d4d4c6962726172793a20494e53554646494349454e545f415f414d4f554e6044820152601560fa1b6064820152608490fd5b956107e7565b8a80929a508193503d8311610986575b61096f8183611a28565b8101031261052757805160209091015197826107cc565b503d610965565b89513d87823e3d90fd5b6109a3919392506119fe565b610527578885913861076b565b8a513d88823e3d90fd5b838a926106fc565b5034610a01576109f66109f06102b3936109db3661193d565b92546001600160a01b03169391923691611b0b565b91611f0a565b905191829182611901565b5080fd5b5034610a015781600319360112610a0157905490516001600160a01b039091168152602090f35b509134610a015760e0366003190112610a0157610a476117e5565b91610a506117fb565b92610a59611811565b91610a684260c43510156119bd565b60018060a01b039086826024610a82898784875416611faf565b96610a958389169860443590338b612074565b848451988994859363226bf2d160e21b8552168b8401525af1958615610bd55781948297610b9b575b5090610acb83928561246f565b50905016911614600014610b955791905b6064358310610b48576084358210610afb575082519182526020820152f35b608490602085519162461bcd60e51b8352820152602160248201527f414d4d4c6962726172793a20494e53554646494349454e545f425f414d4f554e6044820152601560fa1b6064820152fd5b608490602085519162461bcd60e51b8352820152602160248201527f414d4d4c6962726172793a20494e53554646494349454e545f415f414d4f554e6044820152601560fa1b6064820152fd5b90610adc565b88809298508196503d8311610bce575b610bb58183611a28565b8101031261056657835160209094015195610acb610abe565b503d610bab565b508651903d90823e3d90fd5b5034610a0157602090610bfc610bf636611867565b916123fd565b9051908152f35b5034610a015781600319360112610a015760015490516001600160a01b039091168152602090f35b5034610a015781600319360112610a01576000805160206128d98339815191525490516001600160a01b039091168152602090f35b5034610a0157610c83610c72366118b2565b9792949193979590954211156119bd565b81546001600160a01b0390811691610cbd90610cab90610ca436888a611b0b565b9085612281565b98610cb58a611b69565b511115611be5565b8315610d2957610ccc85611a93565b1691610cd785611a93565b908460011015610d16576102b389896102a98a6102928b8b61028b8c610d048d8d61022060208801611a93565b610d0d8a611b69565b51913390612074565b634e487b7160e01b815260328a52602490fd5b634e487b7160e01b835260328952602483fd5b5034610a0157602090610bfc610d5136611867565b91612382565b508290610d76610d6636611971565b96919293969490944211156119bd565b8115610eb657610da1610d8884611a93565b6001546001600160a01b03929083169183168214611aa7565b610dbb828a5416610db3368789611b0b565b903490611f0a565b9788516000198101908111610ea3578a9291610dda610de2928c611b76565b511015611b8a565b610deb89611b69565b5190803b15610346578290858a5180948193630d0e30db60e41b83525af1801561033c57610e8f575b5050806001541690885416610e2885611a93565b84600110156103115791610226610e489492602094610220868a01611a93565b03925af1908115610307579161028b6102a9959492610292946102b39a91610e705750611c54565b610e89915060203d602011610300576102f28183611a28565b8a610285565b610e98906119fe565b610338578789610e14565b634e487b7160e01b8b526011855260248bfd5b634e487b7160e01b875260329052602486fd5b8234610566578060031936011261056657610ee2612349565b6000805160206128d983398151915280546001600160a01b031981169091556000906001600160a01b03167f8be0079c531659141344cd1fd0a4f28419497f9722a3daafe3b4186f6b6457e08280a380f35b5034610a0157610f57610f46366118b2565b9793979590959492944211156119bd565b600019938185018281116110f357610f73610f78918484611a6d565b611a93565b6001546001600160a01b039491610f9491861690861614611aa7565b610fbb610fb18587541692610faa368787611b0b565b9084612281565b99610cb58b611b69565b82156110e05783610fcb83611a93565b1690610fd683611a93565b84600110156110cd5761100e92610ffc85936110059361022060206110149a9901611a93565b610d0d8d611b69565b30923691611b0b565b886120cf565b6001541685518381019081116110ba5761102e9087611b76565b51813b156103465782916024839288519485938492632e1a7d4d60e01b84528d8401525af180156110b05790829161109c575b50508451918201918211611089576102b385856102a9866110828785611b76565b5190611ce5565b634e487b7160e01b815260118652602490fd5b6110a5906119fe565b610566578038611061565b85513d84823e3d90fd5b634e487b7160e01b835260118852602483fd5b634e487b7160e01b875260328c52602487fd5b634e487b7160e01b855260328a52602485fd5b634e487b7160e01b855260118a52602485fd5b5082346103465781600319360112610346576111206117e5565b906111296117fb565b7ff0c57e16840df040f15088dc2f81fe391c3923bec73e23a9662efc9c229c6a009283549160ff83871c16159267ffffffffffffffff811694851580611294575b6001809714908161128a575b159081611281575b50611273575067ffffffffffffffff1981168517865583611254575b506111a3612897565b6111ab612897565b837f9b779b17422d0df92223018b32b4d1fa46e071723d6817e2486d003becc55f00556111d6612897565b6111de612897565b6111e733611c71565b86546001600160a01b03199081166001600160a01b039384161788558454169116178255611213578380f35b7fc7f505b2f371ae2175ee4913f4499e1f2633a7b5936321eed1cdaeb6115181d29260209268ff000000000000000019815416905551908152a18180808380f35b68ffffffffffffffffff1916680100000000000000011785558761119a565b875163f92ee8a960e01b8152fd5b9050158a61117e565b303b159150611176565b508461116a565b5034610a01576112ad610c72366118b2565b81546001600160a01b03908116916112d1906112ca368789611b0b565b9084611f0a565b97885160001981019081116112ee5790610dda610cbd928b611b76565b634e487b7160e01b855260118b52602485fd5b509134610a0157610160366003190112610a015761131d6117e5565b916113266117fb565b9260443591611333611811565b60e435919060c43583151584036104d557610104359360ff851685036104d55760018060a01b03946113698a8888885416611faf565b911561143c5785600019925b1690813b15610535578b5163d505accf60e01b815233818c0190815230602082015260408101949094526060840185905260ff90911660808401526101243560a08401526101443560c0840152918591839182908490829060e00103925af180156114325791848b94928794611414575b5050906113f76024924211156119bd565b610a956114088b8986895416611faf565b98848a1699338b612074565b909294506114239193506119fe565b610346578891849184386113e6565b8a513d86823e3d90fd5b858892611375565b5034610a01576109f661019e6102b3936109db3661193d565b5034610a015761146f610f46366118b2565b600019938185018281116110f357610f7361148b918484611a6d565b6001546001600160a01b0394916114a791861690861614611aa7565b6114c184865416916114ba368686611b0b565b9083611f0a565b9889518781019081116115965790610dda6114dc928c611b76565b82156110e057836114ec83611a93565b16906114f783611a93565b84600110156110cd5761100e92610ffc859361100593610220602061151d9a9901611a93565b6001541685518381019081116110ba576115379087611b76565b51813b156103465782916024839288519485938492632e1a7d4d60e01b84528d8401525af180156110b057611587575b508451918201918211611089576102b385856102a9866110828785611b76565b611590906119fe565b38611567565b634e487b7160e01b875260118c52602487fd5b5034610a0157602090610bfc6115be36611867565b91611e24565b50919034610566576115d536611827565b96939196959295949094421115966115ec886119bd565b838960018060a01b039461160486600154169b6119bd565b6116216116158c8789875416611faf565b91878316923384612074565b602482518094819363226bf2d160e21b8352308c8401525af19889156117db578591869a6117a3575b508461165781928661246f565b5094169316830361179d5797965b881061175057861061170357875163a9059cbb60e01b60208201526001600160a01b0386166024820152604481018890526116a79161083f8260648101610831565b6001541691823b15610a01578460248392838a519687948593632e1a7d4d60e01b85528401525af19081156116f85750918391610885936116e9575b50611ce5565b6116f2906119fe565b386116e3565b8651903d90823e3d90fd5b875162461bcd60e51b8152602081860152602160248201527f414d4d4c6962726172793a20494e53554646494349454e545f425f414d4f554e6044820152601560fa1b6064820152608490fd5b885162461bcd60e51b8152602081870152602160248201527f414d4d4c6962726172793a20494e53554646494349454e545f415f414d4f554e6044820152601560fa1b6064820152608490fd5b96611665565b8b80929b508193503d83116117d4575b6117bd8183611a28565b81010312610527578051602090910151988461164a565b503d6117b3565b8a513d87823e3d90fd5b600435906001600160a01b03821682036104d557565b602435906001600160a01b03821682036104d557565b60a435906001600160a01b03821682036104d557565b60c09060031901126104d5576001600160a01b0360043581811681036104d5579160243591604435916064359160843590811681036104d5579060a43590565b60609060031901126104d557600435906024359060443590565b9181601f840112156104d55782359167ffffffffffffffff83116104d5576020808501948460051b0101116104d557565b60a06003198201126104d55760043591602435916044359067ffffffffffffffff82116104d5576118e591600401611881565b90916064356001600160a01b03811681036104d5579060843590565b602090602060408183019282815285518094520193019160005b828110611929575050505090565b83518552938101939281019260010161191b565b9060406003198301126104d557600435916024359067ffffffffffffffff82116104d55761196d91600401611881565b9091565b9060806003198301126104d557600435916024359067ffffffffffffffff82116104d5576119a191600401611881565b90916044356001600160a01b03811681036104d5579060643590565b156119c457565b60405162461bcd60e51b8152602060048201526012602482015271105353549bdd5d195c8e881156141254915160721b6044820152606490fd5b67ffffffffffffffff8111611a1257604052565b634e487b7160e01b600052604160045260246000fd5b90601f8019910116810190811067ffffffffffffffff821117611a1257604052565b91908203918211611a5757565b634e487b7160e01b600052601160045260246000fd5b9190811015611a7d5760051b0190565b634e487b7160e01b600052603260045260246000fd5b356001600160a01b03811681036104d55790565b15611aae57565b60405162461bcd60e51b815260206004820152601860248201527f414d4d4c6962726172793a20494e56414c49445f5041544800000000000000006044820152606490fd5b67ffffffffffffffff8111611a125760051b60200190565b9291611b1682611af3565b91611b246040519384611a28565b829481845260208094019160051b81019283116104d557905b828210611b4a5750505050565b81356001600160a01b03811681036104d5578152908301908301611b3d565b805115611a7d5760200190565b8051821015611a7d5760209160051b010190565b15611b9157565b60405162461bcd60e51b815260206004820152602660248201527f414d4d4c6962726172793a20494e53554646494349454e545f4f55545055545f604482015265105353d5539560d21b6064820152608490fd5b15611bec57565b60405162461bcd60e51b815260206004820152602260248201527f414d4d4c6962726172793a204558434553534956455f494e5055545f414d4f55604482015261139560f21b6064820152608490fd5b908160209103126104d5575180151581036104d55790565b15611c5b57565b634e487b7160e01b600052600160045260246000fd5b6001600160a01b03908116908115611ccc576000805160206128d983398151915280546001600160a01b031981168417909155167f8be0079c531659141344cd1fd0a4f28419497f9722a3daafe3b4186f6b6457e0600080a3565b604051631e4fbdf760e01b815260006004820152602490fd5b60008080809481945af1903d15611d94573d9067ffffffffffffffff8211611d805760405191611d1f601f8201601f191660200184611a28565b825260203d92013e5b15611d2f57565b60405162461bcd60e51b815260206004820152602360248201527f5472616e7366657248656c7065723a204554485f5452414e534645525f46414960448201526213115160ea1b6064820152608490fd5b634e487b7160e01b81526041600452602490fd5b50611d28565b15611da157565b60405162461bcd60e51b815260206004820152602260248201527f414d4d4c6962726172793a20494e53554646494349454e545f4c495155494449604482015261545960f01b6064820152608490fd5b81810292918115918404141715611a5757565b8115611e0e570490565b634e487b7160e01b600052601260045260246000fd5b8015611e8557811592831580611e7c575b611e3e90611d9a565b6103e580830292830403611a5757611e569082611df1565b926103e8808402938404141715611a57578101809111611a5757611e7991611e04565b90565b50801515611e35565b60405162461bcd60e51b815260206004820152602560248201527f414d4d4c6962726172793a20494e53554646494349454e545f494e5055545f416044820152641353d5539560da1b6064820152608490fd5b90611ee282611af3565b611eef6040519182611a28565b8281528092611f00601f1991611af3565b0190602036910137565b9291611f1a600282511015611aa7565b611f248151611ed8565b91611f2e83611b69565b5260005b81516000198101908111611a5757811015611fa9576001600160a01b039081611f5b8285611b76565b5116916001820190818311611a5757611f9b611f8a600195611fa293611f81868a611b76565b5116908b6127d4565b90611f95868a611b76565b51611e24565b9186611b76565b5201611f32565b50509150565b91611fb99161246f565b6040929192519260208401906bffffffffffffffffffffffff199283809260601b16835260601b16603485015260288452606084019367ffffffffffffffff9281861084871117611a125760e092866040528251902090608083019560ff60f81b875260601b16608183015260958201527f96e8ac4277198ff8b6f785478aa9a39f403cb768dd02cbee326c3e7da348845f60b582015260558552019083821090821117611a1257604052905190206001600160a01b031690565b6040516323b872dd60e01b60208201526001600160a01b03928316602482015292909116604483015260648083019390935291815260a081019181831067ffffffffffffffff841117611a12576120cd92604052612758565b565b90929160005b84516000198101908111611a575781101561227a576001600160a01b03806120fd8388611b76565b5116906001830191828411611a575781612117848a611b76565b51169082612130612128848461246f565b509589611b76565b519416810361227257600093915b89516001198101908111611a5757849087101561226657600054166002870191828811611a575761218261218e9282888f819761217a91611b76565b511691611faf565b935b8360005416611faf565b169160409384519260209283850185811067ffffffffffffffff821117611a1257875260008552853b156104d557865163022c0d9f60e01b8152600481019890985260248801521660448601526080606486015281516084860181905291928592909160005b82811061224f575050600080945083918260a49183838284010152601f801991011681010301925af190811561224557509060019291612236575b50016120d5565b61223f906119fe565b3861222f565b513d6000823e3d90fd5b80860182015188820160a4015287945081016121f4565b9061218e908893612184565b60009161213e565b5050509050565b929192612292600285511015611aa7565b61229c8451611ed8565b9384519260001993848101908111611a57576122b89087611b76565b528051838101908111611a5757805b6122d15750505050565b8381018181116123345761232561231e61230d6001600160a01b03806122f78689611b76565b5116906123048789611b76565b511690886127d4565b90612318868c611b76565b51612382565b9188611b76565b528015612334578301806122c7565b60246000634e487b7160e01b81526011600452fd5b6000805160206128d9833981519152546001600160a01b0316330361236a57565b60405163118cdaa760e01b8152336004820152602490fd5b9190826123ab91612394821515611b8a565b801515806123f4575b6123a690611d9a565b611df1565b916103e892838102938185041490151715611a57576123c991611a4a565b6103e590818102918183041490151715611a57576123e691611e04565b60018101809111611a575790565b5083151561239d565b801561242a57611e799261241c9183151580612421576123a690611d9a565b611e04565b5081151561239d565b60405162461bcd60e51b815260206004820152601f60248201527f414d4d4c6962726172793a20494e53554646494349454e545f414d4f554e54006044820152606490fd5b90916001600160a01b03918284168382168082146124e35710156124de57925b9183161561249957565b60405162461bcd60e51b815260206004820152601860248201527f414d4d4c6962726172793a205a45524f5f4144445245535300000000000000006044820152606490fd5b61248f565b60405162461bcd60e51b815260206004820152601f60248201527f414d4d4c6962726172793a204944454e544943414c5f414444524553534553006044820152606490fd5b908160209103126104d557516001600160a01b03811681036104d55790565b600080546040805163e6a4390560e01b81526001600160a01b0385811660048301528681166024830152969997989760209792969095909490939091908316908881604481855afa90811561274e579084918491612731575b5016156126ab575b50546125b6939291166127d4565b94908015806126a3575b156125cf575050505050509091565b6125e086828a9995969798996123fd565b9683881161263a575050505083106125f85750509091565b60649250519062461bcd60e51b825280600483015260248201527f414d4d526f757465723a20494e53554646494349454e545f425f414d4f554e546044820152fd5b8361265594985061264c9395506123fd565b95861115611c54565b84106126615750509091565b60649250519062461bcd60e51b825280600483015260248201527f414d4d526f757465723a20494e53554646494349454e545f415f414d4f554e546044820152fd5b5085156125c0565b86516364e329cb60e11b81526001600160a01b038581166004830152861660248201529088908290604490829086905af1801561272757906125b695949392916126fa575b50909192936125a8565b61271990893d8b11612720575b6127118183611a28565b810190612528565b50386126f0565b503d612707565b87513d84823e3d90fd5b61274891508a3d8c11612720576127118183611a28565b386125a0565b88513d85823e3d90fd5b906000602091828151910182855af1156127b4576000513d6127ab57506001600160a01b0381163b155b6127895750565b604051635274afe760e01b81526001600160a01b039091166004820152602490fd5b60011415612782565b6040513d6000823e3d90fd5b51906001600160701b03821682036104d557565b908060606004936127fa6127e8878561246f565b50966001600160a01b03948593611faf565b1660405194858092630240bc6b60e21b82525afa9283156127b457600090819461283e575b5081906001600160701b038091169416941691161460001461196d5791565b93506060843d60601161288f575b8161285960609383611a28565b810103126105665761286a846127c0565b906040612879602087016127c0565b95015163ffffffff81160361056657508161281f565b3d915061284c565b60ff7ff0c57e16840df040f15088dc2f81fe391c3923bec73e23a9662efc9c229c6a005460401c16156128c657565b604051631afcd79f60e31b8152600490fdfe9016d09d72d40fdae2fd8ceac6b6234c7706214fd39c1cd1e609a0528c199300a26469706673582212207b4cf6542f39d80a3fb2ea17dcf50e7875fa998462c9670971ed8ec07d2b9d6164736f6c63430008160033",
  "linkReferences": {},
  "deployedLinkReferences": {}
}