{
  "_format": "hh-sol-artifact-1",
  "contractName": "AMMFactory",
  "sourceName": "contracts/AMMFactory.sol",
  "abi": [
    {
      "inputs": [],
      "stateMutability": "nonpayable",
      "type": "constructor"
    },
    {
      "inputs": [],
      "name": "AccessControlBadConfirmation",
      "type": "error"
    },
    {
      "inputs": [
        {
          "internalType": "address",
          "name": "account",
          "type": "address"
        },
        {
          "internalType": "bytes32",
          "name": "neededRole",
          "type": "bytes32"
        }
      ],
      "name": "AccessControlUnauthorizedAccount",
      "type": "error"
    },
    {
      "inputs": [],
      "name": "EnforcedPause",
      "type": "error"
    },
    {
      "inputs": [],
      "name": "ExpectedPause",
      "type": "error"
    },
    {
      "inputs": [],
      "name": "InvalidInitialization",
      "type": "error"
    },
    {
      "inputs": [],
      "name": "NotInitializing",
      "type": "error"
    },
    {
      "inputs": [],
      "name": "ReentrancyGuardReentrantCall",
      "type": "error"
    },
    {
      "anonymous": false,
      "inputs": [
        {
          "indexed": true,
          "internalType": "address",
          "name": "oldFeeToSetter",
          "type": "address"
        },
        {
          "indexed": true,
          "internalType": "address",
          "name": "newFeeToSetter",
          "type": "address"
        }
      ],
      "name": "FeeToSetterUpdated",
      "type": "event"
    },
    {
      "anonymous": false,
      "inputs": [
        {
          "indexed": true,
          "internalType": "address",
          "name": "oldFeeTo",
          "type": "address"
        },
        {
          "indexed": true,
          "internalType": "address",
          "name": "newFeeTo",
          "type": "address"
        }
      ],
      "name": "FeeToUpdated",
      "type": "event"
    },
    {
      "anonymous": false,
      "inputs": [
        {
          "indexed": false,
          "internalType": "uint64",
          "name": "version",
          "type": "uint64"
        }
      ],
      "name": "Initialized",
      "type": "event"
    },
    {
      "anonymous": false,
      "inputs": [
        {
          "indexed": true,
          "internalType": "address",
          "name": "token0",
          "type": "address"
        },
        {
          "indexed": true,
          "internalType": "address",
          "name": "token1",
          "type": "address"
        },
        {
          "indexed": false,
          "internalType": "address",
          "name": "pair",
          "type": "address"
        },
        {
          "indexed": false,
          "internalType": "uint256",
          "name": "",
          "type": "uint256"
        }
      ],
      "name": "PairCreated",
      "type": "event"
    },
    {
      "anonymous": false,
      "inputs": [
        {
          "indexed": false,
          "internalType": "address",
          "name": "account",
          "type": "address"
        }
      ],
      "name": "Paused",
      "type": "event"
    },
    {
      "anonymous": false,
      "inputs": [
        {
          "indexed": true,
          "internalType": "bytes32",
          "name": "role",
          "type": "bytes32"
        },
        {
          "indexed": true,
          "internalType": "bytes32",
          "name": "previousAdminRole",
          "type": "bytes32"
        },
        {
          "indexed": true,
          "internalType": "bytes32",
          "name": "newAdminRole",
          "type": "bytes32"
        }
      ],
      "name": "RoleAdminChanged",
      "type": "event"
    },
    {
      "anonymous": false,
      "inputs": [
        {
          "indexed": true,
          "internalType": "bytes32",
          "name": "role",
          "type": "bytes32"
        },
        {
          "indexed": true,
          "internalType": "address",
          "name": "account",
          "type": "address"
        },
        {
          "indexed": true,
          "internalType": "address",
          "name": "sender",
          "type": "address"
        }
      ],
      "name": "RoleGranted",
      "type": "event"
    },
    {
      "anonymous": false,
      "inputs": [
        {
          "indexed": true,
          "internalType": "bytes32",
          "name": "role",
          "type": "bytes32"
        },
        {
          "indexed": true,
          "internalType": "address",
          "name": "account",
          "type": "address"
        },
        {
          "indexed": true,
          "internalType": "address",
          "name": "sender",
          "type": "address"
        }
      ],
      "name": "RoleRevoked",
      "type": "event"
    },
    {
      "anonymous": false,
      "inputs": [
        {
          "indexed": false,
          "internalType": "address",
          "name": "account",
          "type": "address"
        }
      ],
      "name": "Unpaused",
      "type": "event"
    },
    {
      "inputs": [],
      "name": "ADMIN_ROLE",
      "outputs": [
        {
          "internalType": "bytes32",
          "name": "",
          "type": "bytes32"
        }
      ],
      "stateMutability": "view",
      "type": "function"
    },
    {
      "inputs": [],
      "name": "DEFAULT_ADMIN_ROLE",
      "outputs": [
        {
          "internalType": "bytes32",
          "name": "",
          "type": "bytes32"
        }
      ],
      "stateMutability": "view",
      "type": "function"
    },
    {
      "inputs": [],
      "name": "FEE_MANAGER_ROLE",
      "outputs": [
        {
          "internalType": "bytes32",
          "name": "",
          "type": "bytes32"
        }
      ],
      "stateMutability": "view",
      "type": "function"
    },
    {
      "inputs": [],
      "name": "INIT_CODE_PAIR_HASH",
      "outputs": [
        {
          "internalType": "bytes32",
          "name": "",
          "type": "bytes32"
        }
      ],
      "stateMutability": "view",
      "type": "function"
    },
    {
      "inputs": [],
      "name": "PAIR_CREATOR_ROLE",
      "outputs": [
        {
          "internalType": "bytes32",
          "name": "",
          "type": "bytes32"
        }
      ],
      "stateMutability": "view",
      "type": "function"
    },
    {
      "inputs": [],
      "name": "PAUSER_ROLE",
      "outputs": [
        {
          "internalType": "bytes32",
          "name": "",
          "type": "bytes32"
        }
      ],
      "stateMutability": "view",
      "type": "function"
    },
    {
      "inputs": [
        {
          "internalType": "uint256",
          "name": "",
          "type": "uint256"
        }
      ],
      "name": "allPairs",
      "outputs": [
        {
          "internalType": "address",
          "name": "",
          "type": "address"
        }
      ],
      "stateMutability": "view",
      "type": "function"
    },
    {
      "inputs": [],
      "name": "allPairsLength",
      "outputs": [
        {
          "internalType": "uint256",
          "name": "",
          "type": "uint256"
        }
      ],
      "stateMutability": "view",
      "type": "function"
    },
    {
      "inputs": [
        {
          "internalType": "address",
          "name": "account",
          "type": "address"
        }
      ],
      "name": "canCreatePair",
      "outputs": [
        {
          "internalType": "bool",
          "name": "",
          "type": "bool"
        }
      ],
      "stateMutability": "view",
      "type": "function"
    },
    {
      "inputs": [
        {
          "internalType": "address",
          "name": "account",
          "type": "address"
        }
      ],
      "name": "canManageFees",
      "outputs": [
        {
          "internalType": "bool",
          "name": "",
          "type": "bool"
        }
      ],
      "stateMutability": "view",
      "type": "function"
    },
    {
      "inputs": [
        {
          "internalType": "address",
          "name": "account",
          "type": "address"
        }
      ],
      "name": "canPause",
      "outputs": [
        {
          "internalType": "bool",
          "name": "",
          "type": "bool"
        }
      ],
      "stateMutability": "view",
      "type": "function"
    },
    {
      "inputs": [
        {
          "internalType": "address",
          "name": "tokenA",
          "type": "address"
        },
        {
          "internalType": "address",
          "name": "tokenB",
          "type": "address"
        }
      ],
      "name": "createPair",
      "outputs": [
        {
          "internalType": "address",
          "name": "pair",
          "type": "address"
        }
      ],
      "stateMutability": "nonpayable",
      "type": "function"
    },
    {
      "inputs": [],
      "name": "emergencyStop",
      "outputs": [],
      "stateMutability": "nonpayable",
      "type": "function"
    },
    {
      "inputs": [],
      "name": "feeTo",
      "outputs": [
        {
          "internalType": "address",
          "name": "",
          "type": "address"
        }
      ],
      "stateMutability": "view",
      "type": "function"
    },
    {
      "inputs": [],
      "name": "feeToSetter",
      "outputs": [
        {
          "internalType": "address",
          "name": "",
          "type": "address"
        }
      ],
      "stateMutability": "view",
      "type": "function"
    },
    {
      "inputs": [
        {
          "internalType": "address",
          "name": "",
          "type": "address"
        },
        {
          "internalType": "address",
          "name": "",
          "type": "address"
        }
      ],
      "name": "getPair",
      "outputs": [
        {
          "internalType": "address",
          "name": "",
          "type": "address"
        }
      ],
      "stateMutability": "view",
      "type": "function"
    },
    {
      "inputs": [
        {
          "internalType": "bytes32",
          "name": "role",
          "type": "bytes32"
        }
      ],
      "name": "getRoleAdmin",
      "outputs": [
        {
          "internalType": "bytes32",
          "name": "",
          "type": "bytes32"
        }
      ],
      "stateMutability": "view",
      "type": "function"
    },
    {
      "inputs": [
        {
          "internalType": "bytes32",
          "name": "role",
          "type": "bytes32"
        },
        {
          "internalType": "address",
          "name": "account",
          "type": "address"
        }
      ],
      "name": "grantRole",
      "outputs": [],
      "stateMutability": "nonpayable",
      "type": "function"
    },
    {
      "inputs": [
        {
          "internalType": "bytes32",
          "name": "role",
          "type": "bytes32"
        },
        {
          "internalType": "address[]",
          "name": "accounts",
          "type": "address[]"
        }
      ],
      "name": "grantRoleBatch",
      "outputs": [],
      "stateMutability": "nonpayable",
      "type": "function"
    },
    {
      "inputs": [
        {
          "internalType": "bytes32",
          "name": "role",
          "type": "bytes32"
        },
        {
          "internalType": "address",
          "name": "account",
          "type": "address"
        }
      ],
      "name": "hasRole",
      "outputs": [
        {
          "internalType": "bool",
          "name": "",
          "type": "bool"
        }
      ],
      "stateMutability": "view",
      "type": "function"
    },
    {
      "inputs": [
        {
          "internalType": "address",
          "name": "_admin",
          "type": "address"
        },
        {
          "internalType": "address",
          "name": "_feeToSetter",
          "type": "address"
        }
      ],
      "name": "initialize",
      "outputs": [],
      "stateMutability": "nonpayable",
      "type": "function"
    },
    {
      "inputs": [],
      "name": "pause",
      "outputs": [],
      "stateMutability": "nonpayable",
      "type": "function"
    },
    {
      "inputs": [],
      "name": "paused",
      "outputs": [
        {
          "internalType": "bool",
          "name": "",
          "type": "bool"
        }
      ],
      "stateMutability": "view",
      "type": "function"
    },
    {
      "inputs": [
        {
          "internalType": "bytes32",
          "name": "role",
          "type": "bytes32"
        },
        {
          "internalType": "address",
          "name": "callerConfirmation",
          "type": "address"
        }
      ],
      "name": "renounceRole",
      "outputs": [],
      "stateMutability": "nonpayable",
      "type": "function"
    },
    {
      "inputs": [
        {
          "internalType": "bytes32",
          "name": "role",
          "type": "bytes32"
        },
        {
          "internalType": "address",
          "name": "account",
          "type": "address"
        }
      ],
      "name": "revokeRole",
      "outputs": [],
      "stateMutability": "nonpayable",
      "type": "function"
    },
    {
      "inputs": [
        {
          "internalType": "bytes32",
          "name": "role",
          "type": "bytes32"
        },
        {
          "internalType": "address[]",
          "name": "accounts",
          "type": "address[]"
        }
      ],
      "name": "revokeRoleBatch",
      "outputs": [],
      "stateMutability": "nonpayable",
      "type": "function"
    },
    {
      "inputs": [
        {
          "internalType": "address",
          "name": "_feeTo",
          "type": "address"
        }
      ],
      "name": "setFeeTo",
      "outputs": [],
      "stateMutability": "nonpayable",
      "type": "function"
    },
    {
      "inputs": [
        {
          "internalType": "address",
          "name": "_feeToSetter",
          "type": "address"
        }
      ],
      "name": "setFeeToSetter",
      "outputs": [],
      "stateMutability": "nonpayable",
      "type": "function"
    },
    {
      "inputs": [
        {
          "internalType": "bytes4",
          "name": "interfaceId",
          "type": "bytes4"
        }
      ],
      "name": "supportsInterface",
      "outputs": [
        {
          "internalType": "bool",
          "name": "",
          "type": "bool"
        }
      ],
      "stateMutability": "view",
      "type": "function"
    },
    {
      "inputs": [],
      "name": "unpause",
      "outputs": [],
      "stateMutability": "nonpayable",
      "type": "function"
    }
  ],
  "bytecode": "0x608080604052346100b8577ff0c57e16840df040f15088dc2f81fe391c3923bec73e23a9662efc9c229c6a009081549060ff8260401c166100a957506001600160401b036002600160401b031982821601610064575b60405161492c90816100be8239f35b6001600160401b031990911681179091556040519081527fc7f505b2f371ae2175ee4913f4499e1f2633a7b5936321eed1cdaeb6115181d290602090a1388080610055565b63f92ee8a960e01b8152600490fd5b600080fdfe608060405260043610156200001357600080fd5b60003560e01c8063014b13511462000233578063017e7e58146200022d57806301ffc9a7146200022757806305db2f411462000221578063094b7415146200021b5780631e3dd18b1462000215578063248a9ca3146200020f5780632f2ff15d146200020957806336568abe14620002035780633f4ba83a14620001fd578063485cc95514620001f7578063574f2ba314620001f15780635855a25a14620001eb5780635c975abb14620001e557806363a599a414620001df57806375b238fc14620001d957806375b24ebe14620001d357806382f51fa614620001cd5780638456cb5914620001c757806391d1485414620001c1578063a217fddf14620001bb578063a2e74af614620001b5578063c9c6539614620001af578063d547741f14620001a9578063da81e39114620001a3578063e63ab1e9146200019d578063e6a439051462000197578063f46901ed1462000191578063f6ab9bb0146200018b5763fd47852b146200018557600080fd5b6200101d565b62000ff1565b62000f3e565b62000ef4565b62000ec8565b62000e5e565b62000e06565b62000b1e565b62000a74565b62000a56565b620009f9565b6200098b565b62000932565b62000873565b62000836565b6200077e565b6200074b565b6200070e565b620006ee565b620005b8565b6200050e565b620004bc565b62000462565b62000423565b620003c5565b62000384565b62000358565b620002fd565b620002d2565b62000250565b6001600160a01b038116036200024b57565b600080fd5b346200024b5760203660031901126200024b57602060ff620002ba600435620002798162000239565b6000805160206200483783398151915260005260008051602062004897833981519152845260406000209060018060a01b0316600052602052604060002090565b54166040519015158152f35b60009103126200024b57565b346200024b5760003660031901126200024b576000546040516001600160a01b039091168152602090f35b346200024b5760203660031901126200024b5760043563ffffffff60e01b81168091036200024b57602090637965db0b60e01b811490811562000346575b506040519015158152f35b6301ffc9a760e01b149050386200033b565b346200024b5760003660031901126200024b576020604051600080516020620048578339815191528152f35b346200024b5760003660031901126200024b576001546040516001600160a01b039091168152602090f35b634e487b7160e01b600052603260045260246000fd5b346200024b5760203660031901126200024b576004356003548110156200024b5760036000527fc2575a0e9e593c00f959f8c92f12db2869c3395a3b0502d05e2516446f71f85b01546040516001600160a01b039091168152602090f35b346200024b5760203660031901126200024b57600435600052600080516020620048978339815191526020526020600160406000200154604051908152f35b346200024b5760403660031901126200024b57620004ba6024356004356200048a8262000239565b8060005260008051602062004897833981519152602052620004b4600160406000200154620013ec565b620016d5565b005b346200024b5760403660031901126200024b57602435620004dd8162000239565b336001600160a01b03821603620004fc57620004ba90600435620017d3565b60405163334bd91960e11b8152600490fd5b346200024b5760003660031901126200024b576200052b620012fd565b600080516020620048b7833981519152805460ff811615620005795760ff191690557f5db9ee0a495bf2e6ff9c91a7834c1ba4fdd244a5e8aa4e537bd38aeae4b073aa6020604051338152a1005b604051638dfc202b60e01b8152600490fd5b60409060031901126200024b57600435620005a68162000239565b90602435620005b58162000239565b90565b346200024b57620005c9366200058b565b90600080516020620048d7833981519152549167ffffffffffffffff60ff8460401c1615931680159081620006e5575b6001149081620006da575b159081620006d0575b50620006be57600080516020620048d7833981519152805467ffffffffffffffff19166001179055620006469183620006975762001076565b6200064d57005b600080516020620048d7833981519152805460ff60401b19169055604051600181527fc7f505b2f371ae2175ee4913f4499e1f2633a7b5936321eed1cdaeb6115181d290602090a1005b600080516020620048d7833981519152805460ff60401b1916600160401b17905562001076565b60405163f92ee8a960e01b8152600490fd5b905015386200060d565b303b15915062000604565b849150620005f9565b346200024b5760003660031901126200024b576020600354604051908152f35b346200024b5760003660031901126200024b5760206040517f96e8ac4277198ff8b6f785478aa9a39f403cb768dd02cbee326c3e7da348845f8152f35b346200024b5760003660031901126200024b57602060ff600080516020620048b783398151915254166040519015158152f35b346200024b5760008060031936011262000833578080526000805160206200489783398151915260209081526040808320336000908152925290205460ff16156200081557620007cd6200180f565b600080516020620048b7833981519152600160ff198254161790557f62e78cea01bee320cd4e420270b5ea74000d11b0c9f74754ebdbfc544b05a2586020604051338152a180f35b6044906040519063e2517d3f60e01b82523360048301526024820152fd5b80fd5b346200024b5760003660031901126200024b5760206040517fa49807205ce4d355092ef5a8a18f56e8913cf4a201fbe287825b095693c217758152f35b346200024b5760203660031901126200024b57602060ff620002ba6004356200089c8162000239565b6000805160206200487783398151915260005260008051602062004897833981519152845260406000209060018060a01b0316600052602052604060002090565b60406003198201126200024b576004359160243567ffffffffffffffff928382116200024b57806023830112156200024b5781600401359384116200024b5760248460051b830101116200024b576024019190565b346200024b576200094336620008dd565b91906200094f6200134b565b60005b8381106200095c57005b806200098362000970600193878662001127565b356200097c8162000239565b85620017d3565b500162000952565b346200024b5760003660031901126200024b57620009a8620012fd565b620009b26200180f565b600080516020620048b7833981519152600160ff198254161790557f62e78cea01bee320cd4e420270b5ea74000d11b0c9f74754ebdbfc544b05a2586020604051338152a1005b346200024b5760403660031901126200024b57602060ff620002ba60243562000a228162000239565b60043560005260008051602062004897833981519152845260406000209060018060a01b0316600052602052604060002090565b346200024b5760003660031901126200024b57602060405160008152f35b346200024b5760203660031901126200024b5760043562000a958162000239565b62000a9f6200134b565b6001546001600160a01b03908116908162000b0c575b8216918262000af9575b50600180546001600160a01b031916831790557fcca89bc909e02b7f333d20ee52583360f8ede8c27d76774f1e1c5935576a7f72600080a3005b62000b04906200141c565b503862000abf565b62000b178262001711565b5062000ab5565b346200024b5762000b2f366200058b565b7f9b779b17422d0df92223018b32b4d1fa46e071723d6817e2486d003becc55f00600281541462000df4576002905562000b686200180f565b62000b72620013a4565b6001600160a01b039181831681841662000b8f818314156200113e565b101562000dee57905b82821662000ba88115156200118b565b62000c0d62000c0662000bfa62000bed8562000bd68860018060a01b03166000526002602052604060002090565b9060018060a01b0316600052602052604060002090565b546001600160a01b031690565b6001600160a01b031690565b15620011d8565b612fc962000c1e6020820162001279565b9080825260208201906200186e8239604051606086811b6bffffffffffffffffffffffff19908116602084019081529187901b166034830152602882529062000c6960488262001256565b5190209151906000f59284841694853b156200024b5760405163485cc95560e01b81526001600160a01b03838116600483015285166024820152956000908790604490829084905af191821562000de8578562000d1962000d569262000dc6997f0d3648bd0f6ba80134a33ba9275ac585d9d315f0ad8355cddefde31afa28d0e99662000dca575b5062000d388362000d198a62000bd68560018060a01b03166000526002602052604060002090565b80546001600160a01b0319166001600160a01b03909216919091179055565b6001600160a01b038816600090815260026020526040902062000bd6565b62000d618562001297565b600354604080516001600160a01b038816815260208101929092529190941693a362000dac60017f9b779b17422d0df92223018b32b4d1fa46e071723d6817e2486d003becc55f0055565b6040516001600160a01b0390911681529081906020820190565b0390f35b8062000dda62000de1926200123b565b80620002c6565b3862000cf1565b6200128b565b62000b98565b604051633ee5aeb560e01b8152600490fd5b346200024b5760403660031901126200024b57620004ba60243560043562000e2e8262000239565b806000526000805160206200489783398151915260205262000e58600160406000200154620013ec565b620017d3565b346200024b5760203660031901126200024b57602060ff620002ba60043562000e878162000239565b6000805160206200485783398151915260005260008051602062004897833981519152845260406000209060018060a01b0316600052602052604060002090565b346200024b5760003660031901126200024b576020604051600080516020620048778339815191528152f35b346200024b57602062000f3462000f0b366200058b565b6001600160a01b0391821660009081526002855260408082209284168252602092909252209091565b5416604051908152f35b346200024b5760203660031901126200024b5760043562000f5f8162000239565b3360009081527f294f263e68a44628370ca7eca46e11f3043892ee36ff7375f356adc9c81178056020526040812054909190600080516020620048578339815191529060ff161562000815575081546001600160a01b039182166001600160a01b031982168117845591167f8f93286d6f131e956d1aa672d3ecdc817f24efc20b223b0de5d591f454edc3478380a380f35b346200024b5760003660031901126200024b576020604051600080516020620048378339815191528152f35b346200024b576200102e36620008dd565b91906200103a6200134b565b60005b8381106200104757005b806200106e6200105b600193878662001127565b35620010678162000239565b85620016d5565b50016200103d565b906200110262001124926200108a6200183c565b620010946200183c565b6200109e6200183c565b60017f9b779b17422d0df92223018b32b4d1fa46e071723d6817e2486d003becc55f0055620010cc6200183c565b620010d781620014e7565b50620010e3816200159e565b50620010ef8162001611565b50620010fb816200141c565b5062001673565b50600180546001600160a01b0319166001600160a01b0383161790556200141c565b50565b9190811015620011385760051b0190565b620003af565b156200114657565b60405162461bcd60e51b815260206004820152601f60248201527f414d4d466163746f72793a204944454e544943414c5f414444524553534553006044820152606490fd5b156200119357565b60405162461bcd60e51b815260206004820152601860248201527f414d4d466163746f72793a205a45524f5f4144445245535300000000000000006044820152606490fd5b15620011e057565b60405162461bcd60e51b815260206004820152601760248201527f414d4d466163746f72793a20504149525f4558495354530000000000000000006044820152606490fd5b634e487b7160e01b600052604160045260246000fd5b67ffffffffffffffff81116200125057604052565b62001225565b90601f8019910116810190811067ffffffffffffffff8211176200125057604052565b9062001289604051928362001256565b565b6040513d6000823e3d90fd5b600354600160401b81101562001250576001810180600355811015620011385760036000527fc2575a0e9e593c00f959f8c92f12db2869c3395a3b0502d05e2516446f71f85b0180546001600160a01b0319166001600160a01b03909216919091179055565b3360009081527f75442b0a96088b5456bc4ed01394c96a4feec0f883c9494257d76b96ab1c9b6b60205260409020600080516020620048778339815191529060ff905b541615620008155750565b3360009081527fb16e88c42fd4e48df2dd6a2eabd6bc9aec654ec170056b470819f8892cc6431c602052604090207fa49807205ce4d355092ef5a8a18f56e8913cf4a201fbe287825b095693c217759060ff9062001340565b3360009081527fdd41f06fda6274dc23ba953cc4bcb4bdbb79ca5e02eae244e9df9e6431eb4baf60205260409020600080516020620048378339815191529060ff9062001340565b60008181526000805160206200489783398151915260209081526040808320338452909152902060ff9062001340565b6001600160a01b03811660009081527f294f263e68a44628370ca7eca46e11f3043892ee36ff7375f356adc9c8117805602052604081206000805160206200485783398151915290600080516020620048978339815191529060ff905b5416620014e057818352602090815260408084206001600160a01b038616600090815292529020805460ff1916600117905533926001600160a01b0316917f2f8788117e7eff1d82e926ec794901d17c78024a50270940304540a733656f0d9080a4600190565b5050905090565b6001600160a01b03811660009081527fb7db2dd08fcb62d0c9e08c51941cae53c267786a0b75803fb7960902fc8ef97d6020526040812054600080516020620048978339815191529060ff166200159857818052602090815260408083206001600160a01b038516600090815292529020805460ff1916600117905533916001600160a01b0316907f2f8788117e7eff1d82e926ec794901d17c78024a50270940304540a733656f0d8180a4600190565b50905090565b6001600160a01b03811660009081527fb16e88c42fd4e48df2dd6a2eabd6bc9aec654ec170056b470819f8892cc6431c602052604081207fa49807205ce4d355092ef5a8a18f56e8913cf4a201fbe287825b095693c2177590600080516020620048978339815191529060ff9062001479565b6001600160a01b03811660009081527fdd41f06fda6274dc23ba953cc4bcb4bdbb79ca5e02eae244e9df9e6431eb4baf602052604081206000805160206200483783398151915290600080516020620048978339815191529060ff9062001479565b6001600160a01b03811660009081527f75442b0a96088b5456bc4ed01394c96a4feec0f883c9494257d76b96ab1c9b6b602052604081206000805160206200487783398151915290600080516020620048978339815191529060ff9062001479565b600081815260008051602062004897833981519152602081815260408084206001600160a01b0387168552909152822091929160ff9062001479565b6001600160a01b03811660009081527f294f263e68a44628370ca7eca46e11f3043892ee36ff7375f356adc9c8117805602052604081206000805160206200485783398151915290600080516020620048978339815191529060ff905b541615620014e057818352602090815260408084206001600160a01b038616600090815292529020805460ff1916905533926001600160a01b0316917ff6391f5c32d9c69d2a47ea670b442974b53935d1edc7fd64eb21e047a839171b9080a4600190565b600081815260008051602062004897833981519152602081815260408084206001600160a01b0387168552909152822091929160ff906200176e565b60ff600080516020620048b783398151915254166200182a57565b60405163d93c066560e01b8152600490fd5b60ff600080516020620048d78339815191525460401c16156200185b57565b604051631afcd79f60e31b8152600490fdfe608080604052346100b9577ff0c57e16840df040f15088dc2f81fe391c3923bec73e23a9662efc9c229c6a009081549060ff8260401c166100aa57506001600160401b036002600160401b031982821601610065575b604051612f0a9081620000bf8239f35b6001600160401b031990911681179091556040519081527fc7f505b2f371ae2175ee4913f4499e1f2633a7b5936321eed1cdaeb6115181d290602090a1388080610055565b63f92ee8a960e01b8152600490fd5b600080fdfe6080604052600436101561001257600080fd5b6000803560e01c8063022c0d9f14611a6d57806306fdde03146119c35780630902f1ac1461196a578063095ea7b3146119435780630dfe16811461191a57806318160ddd146118ef57806323b872dd14611809578063313ce567146117ed5780633644e515146117ca5780633f4ba83a14611752578063485cc9551461126e5780635909c0d5146112505780635a3d5493146112325780635c975abb146112025780636a62784214610f3657806370a0823114610ef0578063715018a614610e855780637464fc3d14610e675780637ecebe0014610e0d5780638456cb5914610da557806384b0196e14610c4757806389afcb44146107e15780638da5cb5b146107ab57806395d89b41146106a2578063a9059cbb14610670578063ba9a7a5614610653578063bc25cf7714610515578063c45a0155146104ee578063d21220a7146104c5578063d505accf14610335578063dd62ed3e146102eb578063f2fde38b146102be5763fff6cae91461018857600080fd5b346102bb57806003193601126102bb576101a061248c565b6001546040516370a0823160e01b808252306004830152916020916001600160a01b039183908290602490829086165afa9182156102b0578391869361027f575b50600254169360246040518096819382523060048301525afa91821561027457849261023d575b506102289250600354916001600160701b03808460701c1693169161263f565b6001600080516020612e958339815191525580f35b90915082813d831161026d575b6102548183612164565b810103126102685761022891519038610208565b600080fd5b503d61024a565b6040513d86823e3d90fd5b8281939294503d83116102a9575b6102978183612164565b810103126102685782905191386101e1565b503d61028d565b6040513d87823e3d90fd5b80fd5b50346102bb5760203660031901126102bb576102e86102db6120dd565b6102e3612872565b612418565b80f35b50346102bb5760403660031901126102bb576103056120dd565b6103166103106120f3565b916123df565b9060018060a01b03166000526020526020604060002054604051908152f35b50346102bb5760e03660031901126102bb5761034f6120dd565b906103586120f3565b60443590606435936084359460ff861686036104c1578042116104a95760018060a01b0390818316968787527f5ab42ced628888259c08ac98db1eb0cf702fc1501344311d8b100cd1bfe4bb0060205260408720908154916001830190556040519260208401927f6e71edae12b1b97f4d1f60370fef10105fa2faae0126114a169c64845d6126c984528a6040860152858816606086015288608086015260a085015260c084015260c0835260e08301918383106001600160401b03841117610493576104619361045893604052519020610431612b78565b906040519161190160f01b83526002830152602282015260c43591604260a4359220612c1c565b90929192612ca0565b1685810361047557506102e8939450612b1a565b60449086604051916325c0072360e11b835260048301526024820152fd5b634e487b7160e01b600052604160045260246000fd5b6024906040519063313c898160e11b82526004820152fd5b8480fd5b50346102bb57806003193601126102bb576002546040516001600160a01b039091168152602090f35b50346102bb57806003193601126102bb57546040516001600160a01b039091168152602090f35b50346102bb5760208060031936011261064f576105306120dd565b9061053961248c565b6001546002546040516370a0823160e01b80825230600483015290946001600160a01b039283169490939092168286602481845afa958615610644578796610613575b5061059f90846105996001600160701b0398896003541690612185565b916124e7565b6040519081523060048201528181602481875afa9182156106085786926105d8575b5050610599906102289460035460701c1690612185565b90809250813d8311610601575b6105ef8183612164565b810103126102685751836105996105c1565b503d6105e5565b6040513d88823e3d90fd5b9095508281813d831161063d575b61062b8183612164565b8101031261026857519461059f61057c565b503d610621565b6040513d89823e3d90fd5b5080fd5b50346102bb57806003193601126102bb5760206040516103e88152f35b50346102bb5760403660031901126102bb5761069761068d6120dd565b6024359033612784565b602060405160018152f35b50346102bb57806003193601126102bb576040517f52c63247e1f47db19d5ce0460030c497f067ca4cebf71ba98eeadabe20bace0480548260006106e5836121bb565b928383526020946001918660018216918260001461078957505060011461072d575b505061071592500383612164565b610729604051928284938452830190612109565b0390f35b8592506000527f46a2803e59a4de4e7a4c574b1243f25977ac4c77d5a1a4a609b5394cebb4a2aa906000915b85831061077157505061071593508201018580610707565b80548389018501528794508693909201918101610759565b925093505061071594915060ff191682840152151560051b8201018580610707565b50346102bb57806003193601126102bb57600080516020612e35833981519152546040516001600160a01b039091168152602090f35b50346102bb5760203660031901126102bb576107fb6120dd565b61080361248c565b61080b6124bc565b61082a6003546001600160701b0391828216928260701c169160e01c90565b506001546002546040516370a0823160e01b81523060048201526001600160a01b039182169694959190921693909290602083602481885afa928315610c3a578193610c06575b506040516370a0823160e01b815230600482015296602088602481845afa958615610bfb578798839897610bc4575b50308352600080516020612e158339815191526020526108f76108eb6108eb6108f06108d18860408920549c6128b8565b98600080516020612e55833981519152549384918d6121a8565b6123bf565b9a8a6121a8565b9688151580610bbb575b15610b62573015610b495730600052600080516020612e15833981519152602052604060002054818110610b21579160008260209360249695308452600080516020612e15833981519152865203604083205580600080516020612e558339815191525403600080516020612e55833981519152556040519081527fddf252ad1be2c89b69c2b068fc378daa952ba7f163c4a11628f55a4df523b3ef843092a36109ac8a89836124e7565b6109b78989856124e7565b6040516370a0823160e01b815230600482015293849182905afa918215610b16578392610ae1575b506020602491604051928380926370a0823160e01b82523060048301525afa928315610ad55792610a9a575b5096610a1a929160409861263f565b610a77575b83519083825282602083015260018060a01b0316907fdccd412f0b1252819cb1fd330b93224ca42612892bb3f4f789976e6d81936496853392a36001600080516020612e958339815191525582519182526020820152f35b610a926003546001600160701b03808260701c1691166121a8565b600655610a1f565b929150966020833d602011610acd575b81610ab760209383612164565b8101031261026857915191969091906040610a0b565b3d9150610aaa565b604051903d90823e3d90fd5b9091506020813d602011610b0e575b81610afd60209383612164565b8101031261026857519060206109df565b3d9150610af0565b6040513d85823e3d90fd5b60405163391434e360e21b815230600482015260248101919091526044810191909152606490fd5b604051634b637e8f60e11b815260048101859052602490fd5b60405162461bcd60e51b815260206004820152602b60248201527f414d4d546f6b656e506169723a20494e53554646494349454e545f4c4951554960448201526a1112551657d0955493915160aa1b6064820152608490fd5b50871515610901565b965096506020863d602011610bf3575b81610be160209383612164565b810103126102685787955196386108a0565b3d9150610bd4565b6040513d84823e3d90fd5b9092506020813d602011610c32575b81610c2260209383612164565b8101031261026857519138610871565b3d9150610c15565b50604051903d90823e3d90fd5b50346102bb57806003193601126102bb577fa16a46d94261c7517cc8ff89f61c0ce93598e3c849801011dee649a6a557d100541580610d7c575b15610d3f57610c8e6121f5565b90610c976122df565b906040519060209060208301938385106001600160401b03861117610493579284926020610cf58896610ce798604052858552604051988998600f60f81b8a5260e0858b015260e08a0190612109565b9088820360408a0152612109565b924660608801523060808801528460a088015286840360c088015251928381520193925b828110610d2857505050500390f35b835185528695509381019392810192600101610d19565b60405162461bcd60e51b81526020600482015260156024820152741152540dcc4c8e88155b9a5b9a5d1a585b1a5e9959605a1b6044820152606490fd5b507fa16a46d94261c7517cc8ff89f61c0ce93598e3c849801011dee649a6a557d1015415610c81565b50346102bb57806003193601126102bb57610dbe612872565b610dc66124bc565b600080516020612e75833981519152600160ff198254161790557f62e78cea01bee320cd4e420270b5ea74000d11b0c9f74754ebdbfc544b05a2586020604051338152a180f35b50346102bb5760203660031901126102bb576001600160a01b03610e2f6120dd565b166000527f5ab42ced628888259c08ac98db1eb0cf702fc1501344311d8b100cd1bfe4bb006020526020604060002054604051908152f35b50346102bb57806003193601126102bb576020600654604051908152f35b50346102bb57806003193601126102bb57610e9e612872565b600080516020612e3583398151915280546001600160a01b031981169091556000906001600160a01b03167f8be0079c531659141344cd1fd0a4f28419497f9722a3daafe3b4186f6b6457e08280a380f35b50346102bb5760203660031901126102bb576020906040906001600160a01b03610f186120dd565b168152600080516020612e1583398151915283522054604051908152f35b50346102bb5760208060031936011261064f57610f516120dd565b90610f5a61248c565b610f626124bc565b610f816003546001600160701b0391828216928260701c169160e01c90565b5091909260018060a01b039283600154169360405184816024816370a0823160e01b998a82523060048301525afa9182156111f757859189936111c6575b50600254169560246040518098819382523060048301525afa948515610644578795611197575b506001600160701b039182871696610ffe8884612185565b968483169361100d8583612185565b9961101885856128b8565b95600080516020612e558339815191525491821560001461107e578d6110466110418f8f6121a8565b6129f8565b6103e71981011161106a5760405163ec442f0560e01b815260006004820152602490fd5b634e487b7160e01b81526011600452602490fd5b8d916108eb6110998e9d9f9c9e936108eb876110a0966121a8565b948c6121a8565b90508082101561119057505b98891561113757906110c48a6110c996959493612a54565b61263f565b611119575b50604051918252838201527f4c209b5fc8ad50758f13e2e1088ba56a560dff690a1c6fef26394f4c03821c4f60403392a26001600080516020612e9583398151915255604051908152f35b61112e9060035490808260701c1691166121a8565b600655846110ce565b60405162461bcd60e51b8152600481018c9052602b60248201527f414d4d546f6b656e506169723a20494e53554646494349454e545f4c4951554960448201526a1112551657d3525395115160aa1b6064820152608490fd5b90506110ac565b9094508381813d83116111bf575b6111af8183612164565b8101031261026857519338610fe6565b503d6111a5565b8281939294503d83116111f0575b6111de8183612164565b81010312610268578490519138610fbf565b503d6111d4565b6040513d8a823e3d90fd5b50346102bb57806003193601126102bb57602060ff600080516020612e7583398151915254166040519015158152f35b50346102bb57806003193601126102bb576020600554604051908152f35b50346102bb57806003193601126102bb576020600454604051908152f35b50346102bb5760403660031901126102bb576112886120dd565b906112916120f3565b600080516020612eb583398151915254906001600160401b03821680159081611742575b6001149081611738575b15908161172f575b5061171d5760016001600160401b0319831617600080516020612eb58339815191525560ff8260401c16156116f0575b6112ff6123a0565b936113086123a0565b94611311612bed565b611319612bed565b80516001600160401b0381116115c55780611342600080516020612df5833981519152546121bb565b92601f9384811161166f575b506020908483116001146115e45788926115d9575b50508160011b916000199060031b1c191617600080516020612df5833981519152555b85516001600160401b0381116115c5577f52c63247e1f47db19d5ce0460030c497f067ca4cebf71ba98eeadabe20bace04916113c283546121bb565b818111611566575b5060209082116001146114e3578190879860ff98926114d8575b50508160011b916000199060031b1c19161790555b611401612bed565b611409612bed565b6001600080516020612e9583398151915255611423612bed565b61142b612bed565b611433612bed565b61143c33612418565b6bffffffffffffffffffffffff60a01b91338387541617865560018060a01b038092168360015416176001551690600254161760025560401c161561147e5780f35b68ff000000000000000019600080516020612eb58339815191525416600080516020612eb5833981519152557fc7f505b2f371ae2175ee4913f4499e1f2633a7b5936321eed1cdaeb6115181d2602060405160018152a180f35b0151905038806113e4565b8287527f46a2803e59a4de4e7a4c574b1243f25977ac4c77d5a1a4a609b5394cebb4a2aa97601f198316885b81811061154e57509160ff989991846001959410611535575b505050811b0190556113f9565b015160001960f88460031b161c19169055388080611528565b838301518b556001909a01996020938401930161150f565b8388527f46a2803e59a4de4e7a4c574b1243f25977ac4c77d5a1a4a609b5394cebb4a2aa8280850160051c820192602086106115bc575b0160051c01905b8181106115b157506113ca565b8881556001016115a4565b9250819261159d565b634e487b7160e01b86526041600452602486fd5b015190503880611363565b600080516020612df58339815191528952600080516020612dd58339815191529250601f198416895b818110611657575090846001959493921061163e575b505050811b01600080516020612df583398151915255611386565b015160001960f88460031b161c19169055388080611623565b9293602060018192878601518155019501930161160d565b909150600080516020612df583398151915288528380840160051c600080516020612dd58339815191520191602085106116da575b90849392910160051c600080516020612dd583398151915201905b8181106116cc575061134e565b8981558493506001016116bf565b600080516020612dd583398151915292506116a4565b68ffffffffffffffffff1982166801000000000000000117600080516020612eb5833981519152556112f7565b60405163f92ee8a960e01b8152600490fd5b905015386112c7565b303b1591506112bf565b604084901c60ff161591506112b5565b50346102bb57806003193601126102bb5761176b612872565b600080516020612e75833981519152805460ff8116156117b85760ff191690557f5db9ee0a495bf2e6ff9c91a7834c1ba4fdd244a5e8aa4e537bd38aeae4b073aa6020604051338152a180f35b604051638dfc202b60e01b8152600490fd5b50346102bb57806003193601126102bb5760206117e5612b78565b604051908152f35b50346102bb57806003193601126102bb57602060405160128152f35b50346102bb5760603660031901126102bb576118236120dd565b61182b6120f3565b60443590611838836123df565b3360005260205260406000205492600019841061185a575b6106979350612784565b8284106118c9576001600160a01b038116156118b0573315611897578261069794611884836123df565b3360005260205203604060002055611850565b604051634a1406b160e11b815260006004820152602490fd5b60405163e602df0560e01b815260006004820152602490fd5b604051637dc7a0d960e11b81523360048201526024810185905260448101849052606490fd5b50346102bb57806003193601126102bb576020600080516020612e5583398151915254604051908152f35b50346102bb57806003193601126102bb576001546040516001600160a01b039091168152602090f35b50346102bb5760403660031901126102bb576106976119606120dd565b6024359033612b1a565b50346102bb57806003193601126102bb57606063ffffffff6119a16003546001600160701b0391828216928260701c169160e01c90565b909291604051936001600160701b038092168552166020840152166040820152f35b50346102bb57806003193601126102bb57604051600080516020612df583398151915280548260006119f4836121bb565b9283835260209460019186600182169182600014610789575050600114611a2357505061071592500383612164565b859250600052600080516020612dd5833981519152906000915b858310611a5557505061071593508201018580610707565b80548389018501528794508693909201918101611a3d565b50346102bb5760803660031901126102bb576044356001600160a01b03811690036102bb576001600160401b03606435116102bb573660236064350112156102bb576001600160401b0360643560040135116102bb57366024606435600401356064350101116102bb57611adf61248c565b611ae76124bc565b60043515801580916120d2575b1561207c57611b186003546001600160701b0391828216928260701c169160e01c90565b506001600160701b03829392166004351080612068575b15612017576001546002546001600160a01b039081169391811691906044351682141580612002575b15611fbd57611fa9575b602435611f95575b60643560040135611ec6575b906020602492604051938480926370a0823160e01b82523060048301525afa9182156102b0578592611e8f575b506020602493604051948580926370a0823160e01b82523060048301525afa9283156102b0578593611e5b575b50611be66004356001600160701b038616612185565b821115611e5457611c0b611c056004356001600160701b038716612185565b83612185565b935b611c226024356001600160701b038416612185565b841115611e4d57611c47611c416024356001600160701b038516612185565b85612185565b935b8515158615611e44575b15611def57836103e88102046103e81484151715611ddb576003860286810460031487151715611dc757611c8b906103e88602612185565b6103e882028281046103e81483151715611d9f57600387029087820460031488151715611db357611cc69291611cc091612185565b906121a8565b611ce26001600160701b0385166001600160701b0385166121a8565b90620f424091828102928184041490151715611d9f5710611d6857611d069361263f565b60405191825260208201526004356040820152602435606082015260018060a01b0360443516907fd78ad95fa46c994b6551d0da85fc275fe613ce37657fb8d5e3d130840159d82260803392a36001600080516020612e958339815191525580f35b60405162461bcd60e51b815260206004820152600f60248201526e414d4d546f6b656e506169723a204b60881b6044820152606490fd5b634e487b7160e01b89526011600452602489fd5b634e487b7160e01b8a52601160045260248afd5b634e487b7160e01b88526011600452602488fd5b634e487b7160e01b87526011600452602487fd5b60405162461bcd60e51b815260206004820152602760248201527f414d4d546f6b656e506169723a20494e53554646494349454e545f494e50555460448201526617d05353d5539560ca1b6064820152608490fd5b50841515611c53565b8593611c49565b8493611c0d565b9092506020813d602011611e87575b81611e7760209383612164565b8101031261026857519138611bd0565b3d9150611e6a565b9291506020833d602011611ebe575b81611eab60209383612164565b8101031261026857915190916020611ba3565b3d9150611e9e565b6044356001600160a01b03163b156104c157604051635fea11f760e01b815233600482015260043560248201526024356044820152608060648201526064356004013560848201526064356004013560246064350160a483013760a460643560040135828101820188905287918391601f19601f9091011682018290030181836001600160a01b03604435165af1801561060857611f65575b50611b76565b6001600160401b038196929611611f8157604052936020611f5f565b634e487b7160e01b82526041600452602482fd5b611fa4602435604435856124e7565b611b6a565b611fb8600435604435836124e7565b611b62565b60405162461bcd60e51b815260206004820152601860248201527f414d4d546f6b656e506169723a20494e56414c49445f544f00000000000000006044820152606490fd5b506044356001600160a01b0316841415611b58565b60405162461bcd60e51b8152602060048201526024808201527f414d4d546f6b656e506169723a20494e53554646494349454e545f4c495155496044820152634449545960e01b6064820152608490fd5b506001600160701b03811660243510611b2f565b60405162461bcd60e51b815260206004820152602860248201527f414d4d546f6b656e506169723a20494e53554646494349454e545f4f555450556044820152671517d05353d5539560c21b6064820152608490fd5b506024351515611af4565b600435906001600160a01b038216820361026857565b602435906001600160a01b038216820361026857565b919082519283825260005b848110612135575050826000602080949584010152601f8019910116010190565b602081830181015184830182015201612114565b604081019081106001600160401b0382111761049357604052565b90601f801991011681019081106001600160401b0382111761049357604052565b9190820391821161219257565b634e487b7160e01b600052601160045260246000fd5b8181029291811591840414171561219257565b90600182811c921680156121eb575b60208310146121d557565b634e487b7160e01b600052602260045260246000fd5b91607f16916121ca565b604051906000827fa16a46d94261c7517cc8ff89f61c0ce93598e3c849801011dee649a6a557d1029182549261222a846121bb565b808452936020916001918281169081156122b95750600114612258575b50505061225692500383612164565b565b60009081527f42ad5d3e1f2e6e70edcf6d991b8a3023d3fca8047a131592f9edb9fd9b89d57d9590935091905b8284106122a15750612256945050508101602001388080612247565b85548885018301529485019487945092810192612285565b925050506020925061225694915060ff191682840152151560051b820101388080612247565b604051906000827fa16a46d94261c7517cc8ff89f61c0ce93598e3c849801011dee649a6a557d10391825492612314846121bb565b808452936020916001918281169081156122b9575060011461233f5750505061225692500383612164565b60009081527f5f9ce34815f8e11431c7bb75a8e6886a91478f7ffc1dbb0a98dc240fddd76b759590935091905b8284106123885750612256945050508101602001388080612247565b8554888501830152948501948794509281019261236c565b604051906123ad82612149565b6003825262414d4d60e81b6020830152565b81156123c9570490565b634e487b7160e01b600052601260045260246000fd5b6001600160a01b031660009081527f52c63247e1f47db19d5ce0460030c497f067ca4cebf71ba98eeadabe20bace016020526040902090565b6001600160a01b0390811690811561247357600080516020612e3583398151915280546001600160a01b031981168417909155167f8be0079c531659141344cd1fd0a4f28419497f9722a3daafe3b4186f6b6457e0600080a3565b604051631e4fbdf760e01b815260006004820152602490fd5b600080516020612e9583398151915260028154146124aa5760029055565b604051633ee5aeb560e01b8152600490fd5b60ff600080516020612e7583398151915254166124d557565b60405163d93c066560e01b8152600490fd5b60405192916124f584612149565b601984527f7472616e7366657228616464726573732c75696e74323536290000000000000060209485015260405163a9059cbb60e01b8186019081526001600160a01b0390921660248201526044808201949094529283526001600160401b0392608081018481118282101761049357604052600092839283809351925af1913d15612637573d908111611f81576040519061259a601f8201601f1916860183612164565b81523d828583013e5b826125f7575b5050156125b35750565b6064906040519062461bcd60e51b82526004820152601d60248201527f414d4d546f6b656e506169723a205452414e534645525f4641494c45440000006044820152fd5b8051925082159190848315612613575b505050905038806125a9565b91938180945001031261064f578201519081151582036102bb575080388084612607565b5060606125a3565b92916001600160701b0390818511158061277a575b1561273c577f1c411e9a96e071241c2f21f7726b17ae89e3cab4c78be50e062b03a9fffbbad194604094839263ffffffff60035460e01c81421603169182151580612731575b80612726575b6126e3575b505050607093841b600160701b600160e01b031691169081174260e01b6001600160e01b031916176003819055845191825290921c166020820152a1565b6001600160e01b03916127159190612702908585612707838587612acd565b612afc565b160260045401600455612acd565b1602600554016005553880806126a5565b5084811615156126a0565b50848216151561269a565b60405162461bcd60e51b8152602060048201526016602482015275414d4d546f6b656e506169723a204f564552464c4f5760501b6044820152606490fd5b5081831115612654565b916001600160a01b03808416928315612859571692831561284057600090838252600080516020612e158339815191528060205260408320549184831061280d575082847fddf252ad1be2c89b69c2b068fc378daa952ba7f163c4a11628f55a4df523b3ef959360409388602097528652038282205586815220818154019055604051908152a3565b60405163391434e360e21b81526001600160a01b0391909116600482015260248101929092525060448101839052606490fd5b60405163ec442f0560e01b815260006004820152602490fd5b604051634b637e8f60e11b815260006004820152602490fd5b600080516020612e35833981519152546001600160a01b0316330361289357565b60405163118cdaa760e01b8152336004820152602490fd5b9190820180921161219257565b60008054604051622fcfcb60e31b815293949392906001600160a01b03906020908590600490829085165afa938415610b165783946129b7575b50831615159460065491866000146129a65782612911575b5050505050565b61104161292e91612934936001600160701b0380911691166121a8565b916129f8565b90818111612943575b8061290a565b612960600080516020612e5583398151915254611cc08484612185565b9260058202918083046005149015171561106a57506129899291612983916128ab565b906123bf565b80612996575b808061293d565b61299f91612a54565b388061298f565b50509091506129b25750565b600655565b9093506020813d6020116129f0575b816129d360209383612164565b810103126129ec575183811681036129ec5792386128f2565b8280fd5b3d91506129c6565b9060006003831115612a475750816001908060011c600181018091116121925791905b848310612a2757505050565b90919350612a3e84612a3981846123bf565b6128ab565b821c9190612a1b565b91612a4e57565b60019150565b6001600160a01b0316908115612840577fddf252ad1be2c89b69c2b068fc378daa952ba7f163c4a11628f55a4df523b3ef6020600092600080516020612e55833981519152612aa48282546128ab565b9055848452600080516020612e15833981519152825260408420818154019055604051908152a3565b600160701b600160e01b03607082901b16906001600160701b0316808204600160701b14901517156121925790565b906001600160701b03169081156123c9576001600160e01b03160490565b916001600160a01b038084169283156118b05716928315611897577f8c5be1e5ebec7d5bd14f71427d1e84f3dd0314c0f7b2291e5b200ac8c7c3b92591612b626020926123df565b85600052825280604060002055604051908152a3565b612b80612d25565b612b88612d8f565b6040519060208201927f8b73c3c69bb8fe3d512ecc4cf759cc79239f7b179b0ffacaa9a75d522b39400f8452604083015260608201524660808201523060a082015260a0815260c081018181106001600160401b038211176104935760405251902090565b60ff600080516020612eb58339815191525460401c1615612c0a57565b604051631afcd79f60e31b8152600490fd5b91907f7fffffffffffffffffffffffffffffff5d576e7357a4501ddfe92f46681b20a08411612c9457926020929160ff608095604051948552168484015260408301526060820152600092839182805260015afa15610ad55780516001600160a01b03811615612c8b57918190565b50809160019190565b50505060009160039190565b6004811015612d0f5780612cb2575050565b60018103612ccc5760405163f645eedf60e01b8152600490fd5b60028103612ced5760405163fce698f760e01b815260048101839052602490fd5b600314612cf75750565b602490604051906335e2f38360e21b82526004820152fd5b634e487b7160e01b600052602160045260246000fd5b612d2d6121f5565b8051908115612d3d576020012090565b50507fa16a46d94261c7517cc8ff89f61c0ce93598e3c849801011dee649a6a557d100548015612d6a5790565b507fc5d2460186f7233c927e7db2dcc703c0e500b653ca82273b7bfad8045d85a47090565b612d976122df565b8051908115612da7576020012090565b50507fa16a46d94261c7517cc8ff89f61c0ce93598e3c849801011dee649a6a557d101548015612d6a579056fe2ae08a8e29253f69ac5d979a101956ab8f8d9d7ded63fa7a83b16fc47648eab052c63247e1f47db19d5ce0460030c497f067ca4cebf71ba98eeadabe20bace0352c63247e1f47db19d5ce0460030c497f067ca4cebf71ba98eeadabe20bace009016d09d72d40fdae2fd8ceac6b6234c7706214fd39c1cd1e609a0528c19930052c63247e1f47db19d5ce0460030c497f067ca4cebf71ba98eeadabe20bace02cd5ed15c6e187e77e9aee88184c21f4f2182ab5827cb3b7e07fbedcd63f033009b779b17422d0df92223018b32b4d1fa46e071723d6817e2486d003becc55f00f0c57e16840df040f15088dc2f81fe391c3923bec73e23a9662efc9c229c6a00a2646970667358221220efc8f6078fe1e9f079630ad1d7715b9eda02053638f450780be5679bde556fd064736f6c6343000816003302d639b3242e624c4062ce3346179a769447ef0a01fb09608afc904d0268f1906c0757dc3e6b28b2580c03fd9e96c274acf4f99d91fbec9b418fa1d70604ff1c65d7a28e3265b37a6474929f336521b332c1681b933f6cb9f3376673440d862a02dd7bc7dec4dceedda775e58dd541e08a116c6c53815c0bd028192f7b626800cd5ed15c6e187e77e9aee88184c21f4f2182ab5827cb3b7e07fbedcd63f03300f0c57e16840df040f15088dc2f81fe391c3923bec73e23a9662efc9c229c6a00a2646970667358221220cd7c9dddf6d9d564ba439b829bbea2479f0b5afcd2f1853fb29048c08c37252f64736f6c63430008160033",
  "linkReferences": {},
  "deployedLinkReferences": {}
}