{"contracts/AMMTokenPair.sol":{"AMMTokenPair":{"abi":[{"inputs":[],"stateMutability":"nonpayable","type":"constructor"},{"inputs":[],"name":"ECDSAInvalidSignature","type":"error"},{"inputs":[{"internalType":"uint256","name":"length","type":"uint256"}],"name":"ECDSAInvalidSignatureLength","type":"error"},{"inputs":[{"internalType":"bytes32","name":"s","type":"bytes32"}],"name":"ECDSAInvalidSignatureS","type":"error"},{"inputs":[{"internalType":"address","name":"spender","type":"address"},{"internalType":"uint256","name":"allowance","type":"uint256"},{"internalType":"uint256","name":"needed","type":"uint256"}],"name":"ERC20InsufficientAllowance","type":"error"},{"inputs":[{"internalType":"address","name":"sender","type":"address"},{"internalType":"uint256","name":"balance","type":"uint256"},{"internalType":"uint256","name":"needed","type":"uint256"}],"name":"ERC20InsufficientBalance","type":"error"},{"inputs":[{"internalType":"address","name":"approver","type":"address"}],"name":"ERC20InvalidApprover","type":"error"},{"inputs":[{"internalType":"address","name":"receiver","type":"address"}],"name":"ERC20InvalidReceiver","type":"error"},{"inputs":[{"internalType":"address","name":"sender","type":"address"}],"name":"ERC20InvalidSender","type":"error"},{"inputs":[{"internalType":"address","name":"spender","type":"address"}],"name":"ERC20InvalidSpender","type":"error"},{"inputs":[{"internalType":"uint256","name":"deadline","type":"uint256"}],"name":"ERC2612ExpiredSignature","type":"error"},{"inputs":[{"internalType":"address","name":"signer","type":"address"},{"internalType":"address","name":"owner","type":"address"}],"name":"ERC2612InvalidSigner","type":"error"},{"inputs":[],"name":"EnforcedPause","type":"error"},{"inputs":[],"name":"ExpectedPause","type":"error"},{"inputs":[{"internalType":"address","name":"account","type":"address"},{"internalType":"uint256","name":"currentNonce","type":"uint256"}],"name":"InvalidAccountNonce","type":"error"},{"inputs":[],"name":"InvalidInitialization","type":"error"},{"inputs":[],"name":"NotInitializing","type":"error"},{"inputs":[{"internalType":"address","name":"owner","type":"address"}],"name":"OwnableInvalidOwner","type":"error"},{"inputs":[{"internalType":"address","name":"account","type":"address"}],"name":"OwnableUnauthorizedAccount","type":"error"},{"inputs":[],"name":"ReentrancyGuardReentrantCall","type":"error"},{"anonymous":false,"inputs":[{"indexed":true,"internalType":"address","name":"owner","type":"address"},{"indexed":true,"internalType":"address","name":"spender","type":"address"},{"indexed":false,"internalType":"uint256","name":"value","type":"uint256"}],"name":"Approval","type":"event"},{"anonymous":false,"inputs":[{"indexed":true,"internalType":"address","name":"sender","type":"address"},{"indexed":false,"internalType":"uint256","name":"amount0","type":"uint256"},{"indexed":false,"internalType":"uint256","name":"amount1","type":"uint256"},{"indexed":true,"internalType":"address","name":"to","type":"address"}],"name":"Burn","type":"event"},{"anonymous":false,"inputs":[],"name":"EIP712DomainChanged","type":"event"},{"anonymous":false,"inputs":[{"indexed":false,"internalType":"uint64","name":"version","type":"uint64"}],"name":"Initialized","type":"event"},{"anonymous":false,"inputs":[{"indexed":true,"internalType":"address","name":"sender","type":"address"},{"indexed":false,"internalType":"uint256","name":"amount0","type":"uint256"},{"indexed":false,"internalType":"uint256","name":"amount1","type":"uint256"}],"name":"Mint","type":"event"},{"anonymous":false,"inputs":[{"indexed":true,"internalType":"address","name":"previousOwner","type":"address"},{"indexed":true,"internalType":"address","name":"newOwner","type":"address"}],"name":"OwnershipTransferred","type":"event"},{"anonymous":false,"inputs":[{"indexed":false,"internalType":"address","name":"account","type":"address"}],"name":"Paused","type":"event"},{"anonymous":false,"inputs":[{"indexed":true,"internalType":"address","name":"sender","type":"address"},{"indexed":false,"internalType":"uint256","name":"amount0In","type":"uint256"},{"indexed":false,"internalType":"uint256","name":"amount1In","type":"uint256"},{"indexed":false,"internalType":"uint256","name":"amount0Out","type":"uint256"},{"indexed":false,"internalType":"uint256","name":"amount1Out","type":"uint256"},{"indexed":true,"internalType":"address","name":"to","type":"address"}],"name":"Swap","type":"event"},{"anonymous":false,"inputs":[{"indexed":false,"internalType":"uint112","name":"reserve0","type":"uint112"},{"indexed":false,"internalType":"uint112","name":"reserve1","type":"uint112"}],"name":"Sync","type":"event"},{"anonymous":false,"inputs":[{"indexed":true,"internalType":"address","name":"from","type":"address"},{"indexed":true,"internalType":"address","name":"to","type":"address"},{"indexed":false,"internalType":"uint256","name":"value","type":"uint256"}],"name":"Transfer","type":"event"},{"anonymous":false,"inputs":[{"indexed":false,"internalType":"address","name":"account","type":"address"}],"name":"Unpaused","type":"event"},{"inputs":[],"name":"DOMAIN_SEPARATOR","outputs":[{"internalType":"bytes32","name":"","type":"bytes32"}],"stateMutability":"view","type":"function"},{"inputs":[],"name":"MINIMUM_LIQUIDITY","outputs":[{"internalType":"uint256","name":"","type":"uint256"}],"stateMutability":"view","type":"function"},{"inputs":[{"internalType":"address","name":"owner","type":"address"},{"internalType":"address","name":"spender","type":"address"}],"name":"allowance","outputs":[{"internalType":"uint256","name":"","type":"uint256"}],"stateMutability":"view","type":"function"},{"inputs":[{"internalType":"address","name":"spender","type":"address"},{"internalType":"uint256","name":"value","type":"uint256"}],"name":"approve","outputs":[{"internalType":"bool","name":"","type":"bool"}],"stateMutability":"nonpayable","type":"function"},{"inputs":[{"internalType":"address","name":"account","type":"address"}],"name":"balanceOf","outputs":[{"internalType":"uint256","name":"","type":"uint256"}],"stateMutability":"view","type":"function"},{"inputs":[{"internalType":"address","name":"to","type":"address"}],"name":"burn","outputs":[{"internalType":"uint256","name":"amount0","type":"uint256"},{"internalType":"uint256","name":"amount1","type":"uint256"}],"stateMutability":"nonpayable","type":"function"},{"inputs":[],"name":"decimals","outputs":[{"internalType":"uint8","name":"","type":"uint8"}],"stateMutability":"view","type":"function"},{"inputs":[],"name":"eip712Domain","outputs":[{"internalType":"bytes1","name":"fields","type":"bytes1"},{"internalType":"string","name":"name","type":"string"},{"internalType":"string","name":"version","type":"string"},{"internalType":"uint256","name":"chainId","type":"uint256"},{"internalType":"address","name":"verifyingContract","type":"address"},{"internalType":"bytes32","name":"salt","type":"bytes32"},{"internalType":"uint256[]","name":"extensions","type":"uint256[]"}],"stateMutability":"view","type":"function"},{"inputs":[],"name":"factory","outputs":[{"internalType":"address","name":"","type":"address"}],"stateMutability":"view","type":"function"},{"inputs":[],"name":"getReserves","outputs":[{"internalType":"uint112","name":"_reserve0","type":"uint112"},{"internalType":"uint112","name":"_reserve1","type":"uint112"},{"internalType":"uint32","name":"_blockTimestampLast","type":"uint32"}],"stateMutability":"view","type":"function"},{"inputs":[{"internalType":"address","name":"_token0","type":"address"},{"internalType":"address","name":"_token1","type":"address"}],"name":"initialize","outputs":[],"stateMutability":"nonpayable","type":"function"},{"inputs":[],"name":"kLast","outputs":[{"internalType":"uint256","name":"","type":"uint256"}],"stateMutability":"view","type":"function"},{"inputs":[{"internalType":"address","name":"to","type":"address"}],"name":"mint","outputs":[{"internalType":"uint256","name":"liquidity","type":"uint256"}],"stateMutability":"nonpayable","type":"function"},{"inputs":[],"name":"name","outputs":[{"internalType":"string","name":"","type":"string"}],"stateMutability":"view","type":"function"},{"inputs":[{"internalType":"address","name":"owner","type":"address"}],"name":"nonces","outputs":[{"internalType":"uint256","name":"","type":"uint256"}],"stateMutability":"view","type":"function"},{"inputs":[],"name":"owner","outputs":[{"internalType":"address","name":"","type":"address"}],"stateMutability":"view","type":"function"},{"inputs":[],"name":"pause","outputs":[],"stateMutability":"nonpayable","type":"function"},{"inputs":[],"name":"paused","outputs":[{"internalType":"bool","name":"","type":"bool"}],"stateMutability":"view","type":"function"},{"inputs":[{"internalType":"address","name":"owner","type":"address"},{"internalType":"address","name":"spender","type":"address"},{"internalType":"uint256","name":"value","type":"uint256"},{"internalType":"uint256","name":"deadline","type":"uint256"},{"internalType":"uint8","name":"v","type":"uint8"},{"internalType":"bytes32","name":"r","type":"bytes32"},{"internalType":"bytes32","name":"s","type":"bytes32"}],"name":"permit","outputs":[],"stateMutability":"nonpayable","type":"function"},{"inputs":[],"name":"price0CumulativeLast","outputs":[{"internalType":"uint256","name":"","type":"uint256"}],"stateMutability":"view","type":"function"},{"inputs":[],"name":"price1CumulativeLast","outputs":[{"internalType":"uint256","name":"","type":"uint256"}],"stateMutability":"view","type":"function"},{"inputs":[],"name":"renounceOwnership","outputs":[],"stateMutability":"nonpayable","type":"function"},{"inputs":[{"internalType":"address","name":"to","type":"address"}],"name":"skim","outputs":[],"stateMutability":"nonpayable","type":"function"},{"inputs":[{"internalType":"uint256","name":"amount0Out","type":"uint256"},{"internalType":"uint256","name":"amount1Out","type":"uint256"},{"internalType":"address","name":"to","type":"address"},{"internalType":"bytes","name":"data","type":"bytes"}],"name":"swap","outputs":[],"stateMutability":"nonpayable","type":"function"},{"inputs":[],"name":"symbol","outputs":[{"internalType":"string","name":"","type":"string"}],"stateMutability":"view","type":"function"},{"inputs":[],"name":"sync","outputs":[],"stateMutability":"nonpayable","type":"function"},{"inputs":[],"name":"token0","outputs":[{"internalType":"address","name":"","type":"address"}],"stateMutability":"view","type":"function"},{"inputs":[],"name":"token1","outputs":[{"internalType":"address","name":"","type":"address"}],"stateMutability":"view","type":"function"},{"inputs":[],"name":"totalSupply","outputs":[{"internalType":"uint256","name":"","type":"uint256"}],"stateMutability":"view","type":"function"},{"inputs":[{"internalType":"address","name":"to","type":"address"},{"internalType":"uint256","name":"value","type":"uint256"}],"name":"transfer","outputs":[{"internalType":"bool","name":"","type":"bool"}],"stateMutability":"nonpayable","type":"function"},{"inputs":[{"internalType":"address","name":"from","type":"address"},{"internalType":"address","name":"to","type":"address"},{"internalType":"uint256","name":"value","type":"uint256"}],"name":"transferFrom","outputs":[{"internalType":"bool","name":"","type":"bool"}],"stateMutability":"nonpayable","type":"function"},{"inputs":[{"internalType":"address","name":"newOwner","type":"address"}],"name":"transferOwnership","outputs":[],"stateMutability":"nonpayable","type":"function"},{"inputs":[],"name":"unpause","outputs":[],"stateMutability":"nonpayable","type":"function"}],"evm":{"bytecode":{"linkReferences":{},"object":"608080604052346100b9577ff0c57e16840df040f15088dc2f81fe391c3923bec73e23a9662efc9c229c6a009081549060ff8260401c166100aa57506001600160401b036002600160401b031982821601610065575b604051612f0a9081620000bf8239f35b6001600160401b031990911681179091556040519081527fc7f505b2f371ae2175ee4913f4499e1f2633a7b5936321eed1cdaeb6115181d290602090a1388080610055565b63f92ee8a960e01b8152600490fd5b600080fdfe6080604052600436101561001257600080fd5b6000803560e01c8063022c0d9f14611a6d57806306fdde03146119c35780630902f1ac1461196a578063095ea7b3146119435780630dfe16811461191a57806318160ddd146118ef57806323b872dd14611809578063313ce567146117ed5780633644e515146117ca5780633f4ba83a14611752578063485cc9551461126e5780635909c0d5146112505780635a3d5493146112325780635c975abb146112025780636a62784214610f3657806370a0823114610ef0578063715018a614610e855780637464fc3d14610e675780637ecebe0014610e0d5780638456cb5914610da557806384b0196e14610c4757806389afcb44146107e15780638da5cb5b146107ab57806395d89b41146106a2578063a9059cbb14610670578063ba9a7a5614610653578063bc25cf7714610515578063c45a0155146104ee578063d21220a7146104c5578063d505accf14610335578063dd62ed3e146102eb578063f2fde38b146102be5763fff6cae91461018857600080fd5b346102bb57806003193601126102bb576101a061248c565b6001546040516370a0823160e01b808252306004830152916020916001600160a01b039183908290602490829086165afa9182156102b0578391869361027f575b50600254169360246040518096819382523060048301525afa91821561027457849261023d575b506102289250600354916001600160701b03808460701c1693169161263f565b6001600080516020612e958339815191525580f35b90915082813d831161026d575b6102548183612164565b810103126102685761022891519038610208565b600080fd5b503d61024a565b6040513d86823e3d90fd5b8281939294503d83116102a9575b6102978183612164565b810103126102685782905191386101e1565b503d61028d565b6040513d87823e3d90fd5b80fd5b50346102bb5760203660031901126102bb576102e86102db6120dd565b6102e3612872565b612418565b80f35b50346102bb5760403660031901126102bb576103056120dd565b6103166103106120f3565b916123df565b9060018060a01b03166000526020526020604060002054604051908152f35b50346102bb5760e03660031901126102bb5761034f6120dd565b906103586120f3565b60443590606435936084359460ff861686036104c1578042116104a95760018060a01b0390818316968787527f5ab42ced628888259c08ac98db1eb0cf702fc1501344311d8b100cd1bfe4bb0060205260408720908154916001830190556040519260208401927f6e71edae12b1b97f4d1f60370fef10105fa2faae0126114a169c64845d6126c984528a6040860152858816606086015288608086015260a085015260c084015260c0835260e08301918383106001600160401b03841117610493576104619361045893604052519020610431612b78565b906040519161190160f01b83526002830152602282015260c43591604260a4359220612c1c565b90929192612ca0565b1685810361047557506102e8939450612b1a565b60449086604051916325c0072360e11b835260048301526024820152fd5b634e487b7160e01b600052604160045260246000fd5b6024906040519063313c898160e11b82526004820152fd5b8480fd5b50346102bb57806003193601126102bb576002546040516001600160a01b039091168152602090f35b50346102bb57806003193601126102bb57546040516001600160a01b039091168152602090f35b50346102bb5760208060031936011261064f576105306120dd565b9061053961248c565b6001546002546040516370a0823160e01b80825230600483015290946001600160a01b039283169490939092168286602481845afa958615610644578796610613575b5061059f90846105996001600160701b0398896003541690612185565b916124e7565b6040519081523060048201528181602481875afa9182156106085786926105d8575b5050610599906102289460035460701c1690612185565b90809250813d8311610601575b6105ef8183612164565b810103126102685751836105996105c1565b503d6105e5565b6040513d88823e3d90fd5b9095508281813d831161063d575b61062b8183612164565b8101031261026857519461059f61057c565b503d610621565b6040513d89823e3d90fd5b5080fd5b50346102bb57806003193601126102bb5760206040516103e88152f35b50346102bb5760403660031901126102bb5761069761068d6120dd565b6024359033612784565b602060405160018152f35b50346102bb57806003193601126102bb576040517f52c63247e1f47db19d5ce0460030c497f067ca4cebf71ba98eeadabe20bace0480548260006106e5836121bb565b928383526020946001918660018216918260001461078957505060011461072d575b505061071592500383612164565b610729604051928284938452830190612109565b0390f35b8592506000527f46a2803e59a4de4e7a4c574b1243f25977ac4c77d5a1a4a609b5394cebb4a2aa906000915b85831061077157505061071593508201018580610707565b80548389018501528794508693909201918101610759565b925093505061071594915060ff191682840152151560051b8201018580610707565b50346102bb57806003193601126102bb57600080516020612e35833981519152546040516001600160a01b039091168152602090f35b50346102bb5760203660031901126102bb576107fb6120dd565b61080361248c565b61080b6124bc565b61082a6003546001600160701b0391828216928260701c169160e01c90565b506001546002546040516370a0823160e01b81523060048201526001600160a01b039182169694959190921693909290602083602481885afa928315610c3a578193610c06575b506040516370a0823160e01b815230600482015296602088602481845afa958615610bfb578798839897610bc4575b50308352600080516020612e158339815191526020526108f76108eb6108eb6108f06108d18860408920549c6128b8565b98600080516020612e55833981519152549384918d6121a8565b6123bf565b9a8a6121a8565b9688151580610bbb575b15610b62573015610b495730600052600080516020612e15833981519152602052604060002054818110610b21579160008260209360249695308452600080516020612e15833981519152865203604083205580600080516020612e558339815191525403600080516020612e55833981519152556040519081527fddf252ad1be2c89b69c2b068fc378daa952ba7f163c4a11628f55a4df523b3ef843092a36109ac8a89836124e7565b6109b78989856124e7565b6040516370a0823160e01b815230600482015293849182905afa918215610b16578392610ae1575b506020602491604051928380926370a0823160e01b82523060048301525afa928315610ad55792610a9a575b5096610a1a929160409861263f565b610a77575b83519083825282602083015260018060a01b0316907fdccd412f0b1252819cb1fd330b93224ca42612892bb3f4f789976e6d81936496853392a36001600080516020612e958339815191525582519182526020820152f35b610a926003546001600160701b03808260701c1691166121a8565b600655610a1f565b929150966020833d602011610acd575b81610ab760209383612164565b8101031261026857915191969091906040610a0b565b3d9150610aaa565b604051903d90823e3d90fd5b9091506020813d602011610b0e575b81610afd60209383612164565b8101031261026857519060206109df565b3d9150610af0565b6040513d85823e3d90fd5b60405163391434e360e21b815230600482015260248101919091526044810191909152606490fd5b604051634b637e8f60e11b815260048101859052602490fd5b60405162461bcd60e51b815260206004820152602b60248201527f414d4d546f6b656e506169723a20494e53554646494349454e545f4c4951554960448201526a1112551657d0955493915160aa1b6064820152608490fd5b50871515610901565b965096506020863d602011610bf3575b81610be160209383612164565b810103126102685787955196386108a0565b3d9150610bd4565b6040513d84823e3d90fd5b9092506020813d602011610c32575b81610c2260209383612164565b8101031261026857519138610871565b3d9150610c15565b50604051903d90823e3d90fd5b50346102bb57806003193601126102bb577fa16a46d94261c7517cc8ff89f61c0ce93598e3c849801011dee649a6a557d100541580610d7c575b15610d3f57610c8e6121f5565b90610c976122df565b906040519060209060208301938385106001600160401b03861117610493579284926020610cf58896610ce798604052858552604051988998600f60f81b8a5260e0858b015260e08a0190612109565b9088820360408a0152612109565b924660608801523060808801528460a088015286840360c088015251928381520193925b828110610d2857505050500390f35b835185528695509381019392810192600101610d19565b60405162461bcd60e51b81526020600482015260156024820152741152540dcc4c8e88155b9a5b9a5d1a585b1a5e9959605a1b6044820152606490fd5b507fa16a46d94261c7517cc8ff89f61c0ce93598e3c849801011dee649a6a557d1015415610c81565b50346102bb57806003193601126102bb57610dbe612872565b610dc66124bc565b600080516020612e75833981519152600160ff198254161790557f62e78cea01bee320cd4e420270b5ea74000d11b0c9f74754ebdbfc544b05a2586020604051338152a180f35b50346102bb5760203660031901126102bb576001600160a01b03610e2f6120dd565b166000527f5ab42ced628888259c08ac98db1eb0cf702fc1501344311d8b100cd1bfe4bb006020526020604060002054604051908152f35b50346102bb57806003193601126102bb576020600654604051908152f35b50346102bb57806003193601126102bb57610e9e612872565b600080516020612e3583398151915280546001600160a01b031981169091556000906001600160a01b03167f8be0079c531659141344cd1fd0a4f28419497f9722a3daafe3b4186f6b6457e08280a380f35b50346102bb5760203660031901126102bb576020906040906001600160a01b03610f186120dd565b168152600080516020612e1583398151915283522054604051908152f35b50346102bb5760208060031936011261064f57610f516120dd565b90610f5a61248c565b610f626124bc565b610f816003546001600160701b0391828216928260701c169160e01c90565b5091909260018060a01b039283600154169360405184816024816370a0823160e01b998a82523060048301525afa9182156111f757859189936111c6575b50600254169560246040518098819382523060048301525afa948515610644578795611197575b506001600160701b039182871696610ffe8884612185565b968483169361100d8583612185565b9961101885856128b8565b95600080516020612e558339815191525491821560001461107e578d6110466110418f8f6121a8565b6129f8565b6103e71981011161106a5760405163ec442f0560e01b815260006004820152602490fd5b634e487b7160e01b81526011600452602490fd5b8d916108eb6110998e9d9f9c9e936108eb876110a0966121a8565b948c6121a8565b90508082101561119057505b98891561113757906110c48a6110c996959493612a54565b61263f565b611119575b50604051918252838201527f4c209b5fc8ad50758f13e2e1088ba56a560dff690a1c6fef26394f4c03821c4f60403392a26001600080516020612e9583398151915255604051908152f35b61112e9060035490808260701c1691166121a8565b600655846110ce565b60405162461bcd60e51b8152600481018c9052602b60248201527f414d4d546f6b656e506169723a20494e53554646494349454e545f4c4951554960448201526a1112551657d3525395115160aa1b6064820152608490fd5b90506110ac565b9094508381813d83116111bf575b6111af8183612164565b8101031261026857519338610fe6565b503d6111a5565b8281939294503d83116111f0575b6111de8183612164565b81010312610268578490519138610fbf565b503d6111d4565b6040513d8a823e3d90fd5b50346102bb57806003193601126102bb57602060ff600080516020612e7583398151915254166040519015158152f35b50346102bb57806003193601126102bb576020600554604051908152f35b50346102bb57806003193601126102bb576020600454604051908152f35b50346102bb5760403660031901126102bb576112886120dd565b906112916120f3565b600080516020612eb583398151915254906001600160401b03821680159081611742575b6001149081611738575b15908161172f575b5061171d5760016001600160401b0319831617600080516020612eb58339815191525560ff8260401c16156116f0575b6112ff6123a0565b936113086123a0565b94611311612bed565b611319612bed565b80516001600160401b0381116115c55780611342600080516020612df5833981519152546121bb565b92601f9384811161166f575b506020908483116001146115e45788926115d9575b50508160011b916000199060031b1c191617600080516020612df5833981519152555b85516001600160401b0381116115c5577f52c63247e1f47db19d5ce0460030c497f067ca4cebf71ba98eeadabe20bace04916113c283546121bb565b818111611566575b5060209082116001146114e3578190879860ff98926114d8575b50508160011b916000199060031b1c19161790555b611401612bed565b611409612bed565b6001600080516020612e9583398151915255611423612bed565b61142b612bed565b611433612bed565b61143c33612418565b6bffffffffffffffffffffffff60a01b91338387541617865560018060a01b038092168360015416176001551690600254161760025560401c161561147e5780f35b68ff000000000000000019600080516020612eb58339815191525416600080516020612eb5833981519152557fc7f505b2f371ae2175ee4913f4499e1f2633a7b5936321eed1cdaeb6115181d2602060405160018152a180f35b0151905038806113e4565b8287527f46a2803e59a4de4e7a4c574b1243f25977ac4c77d5a1a4a609b5394cebb4a2aa97601f198316885b81811061154e57509160ff989991846001959410611535575b505050811b0190556113f9565b015160001960f88460031b161c19169055388080611528565b838301518b556001909a01996020938401930161150f565b8388527f46a2803e59a4de4e7a4c574b1243f25977ac4c77d5a1a4a609b5394cebb4a2aa8280850160051c820192602086106115bc575b0160051c01905b8181106115b157506113ca565b8881556001016115a4565b9250819261159d565b634e487b7160e01b86526041600452602486fd5b015190503880611363565b600080516020612df58339815191528952600080516020612dd58339815191529250601f198416895b818110611657575090846001959493921061163e575b505050811b01600080516020612df583398151915255611386565b015160001960f88460031b161c19169055388080611623565b9293602060018192878601518155019501930161160d565b909150600080516020612df583398151915288528380840160051c600080516020612dd58339815191520191602085106116da575b90849392910160051c600080516020612dd583398151915201905b8181106116cc575061134e565b8981558493506001016116bf565b600080516020612dd583398151915292506116a4565b68ffffffffffffffffff1982166801000000000000000117600080516020612eb5833981519152556112f7565b60405163f92ee8a960e01b8152600490fd5b905015386112c7565b303b1591506112bf565b604084901c60ff161591506112b5565b50346102bb57806003193601126102bb5761176b612872565b600080516020612e75833981519152805460ff8116156117b85760ff191690557f5db9ee0a495bf2e6ff9c91a7834c1ba4fdd244a5e8aa4e537bd38aeae4b073aa6020604051338152a180f35b604051638dfc202b60e01b8152600490fd5b50346102bb57806003193601126102bb5760206117e5612b78565b604051908152f35b50346102bb57806003193601126102bb57602060405160128152f35b50346102bb5760603660031901126102bb576118236120dd565b61182b6120f3565b60443590611838836123df565b3360005260205260406000205492600019841061185a575b6106979350612784565b8284106118c9576001600160a01b038116156118b0573315611897578261069794611884836123df565b3360005260205203604060002055611850565b604051634a1406b160e11b815260006004820152602490fd5b60405163e602df0560e01b815260006004820152602490fd5b604051637dc7a0d960e11b81523360048201526024810185905260448101849052606490fd5b50346102bb57806003193601126102bb576020600080516020612e5583398151915254604051908152f35b50346102bb57806003193601126102bb576001546040516001600160a01b039091168152602090f35b50346102bb5760403660031901126102bb576106976119606120dd565b6024359033612b1a565b50346102bb57806003193601126102bb57606063ffffffff6119a16003546001600160701b0391828216928260701c169160e01c90565b909291604051936001600160701b038092168552166020840152166040820152f35b50346102bb57806003193601126102bb57604051600080516020612df583398151915280548260006119f4836121bb565b9283835260209460019186600182169182600014610789575050600114611a2357505061071592500383612164565b859250600052600080516020612dd5833981519152906000915b858310611a5557505061071593508201018580610707565b80548389018501528794508693909201918101611a3d565b50346102bb5760803660031901126102bb576044356001600160a01b03811690036102bb576001600160401b03606435116102bb573660236064350112156102bb576001600160401b0360643560040135116102bb57366024606435600401356064350101116102bb57611adf61248c565b611ae76124bc565b60043515801580916120d2575b1561207c57611b186003546001600160701b0391828216928260701c169160e01c90565b506001600160701b03829392166004351080612068575b15612017576001546002546001600160a01b039081169391811691906044351682141580612002575b15611fbd57611fa9575b602435611f95575b60643560040135611ec6575b906020602492604051938480926370a0823160e01b82523060048301525afa9182156102b0578592611e8f575b506020602493604051948580926370a0823160e01b82523060048301525afa9283156102b0578593611e5b575b50611be66004356001600160701b038616612185565b821115611e5457611c0b611c056004356001600160701b038716612185565b83612185565b935b611c226024356001600160701b038416612185565b841115611e4d57611c47611c416024356001600160701b038516612185565b85612185565b935b8515158615611e44575b15611def57836103e88102046103e81484151715611ddb576003860286810460031487151715611dc757611c8b906103e88602612185565b6103e882028281046103e81483151715611d9f57600387029087820460031488151715611db357611cc69291611cc091612185565b906121a8565b611ce26001600160701b0385166001600160701b0385166121a8565b90620f424091828102928184041490151715611d9f5710611d6857611d069361263f565b60405191825260208201526004356040820152602435606082015260018060a01b0360443516907fd78ad95fa46c994b6551d0da85fc275fe613ce37657fb8d5e3d130840159d82260803392a36001600080516020612e958339815191525580f35b60405162461bcd60e51b815260206004820152600f60248201526e414d4d546f6b656e506169723a204b60881b6044820152606490fd5b634e487b7160e01b89526011600452602489fd5b634e487b7160e01b8a52601160045260248afd5b634e487b7160e01b88526011600452602488fd5b634e487b7160e01b87526011600452602487fd5b60405162461bcd60e51b815260206004820152602760248201527f414d4d546f6b656e506169723a20494e53554646494349454e545f494e50555460448201526617d05353d5539560ca1b6064820152608490fd5b50841515611c53565b8593611c49565b8493611c0d565b9092506020813d602011611e87575b81611e7760209383612164565b8101031261026857519138611bd0565b3d9150611e6a565b9291506020833d602011611ebe575b81611eab60209383612164565b8101031261026857915190916020611ba3565b3d9150611e9e565b6044356001600160a01b03163b156104c157604051635fea11f760e01b815233600482015260043560248201526024356044820152608060648201526064356004013560848201526064356004013560246064350160a483013760a460643560040135828101820188905287918391601f19601f9091011682018290030181836001600160a01b03604435165af1801561060857611f65575b50611b76565b6001600160401b038196929611611f8157604052936020611f5f565b634e487b7160e01b82526041600452602482fd5b611fa4602435604435856124e7565b611b6a565b611fb8600435604435836124e7565b611b62565b60405162461bcd60e51b815260206004820152601860248201527f414d4d546f6b656e506169723a20494e56414c49445f544f00000000000000006044820152606490fd5b506044356001600160a01b0316841415611b58565b60405162461bcd60e51b8152602060048201526024808201527f414d4d546f6b656e506169723a20494e53554646494349454e545f4c495155496044820152634449545960e01b6064820152608490fd5b506001600160701b03811660243510611b2f565b60405162461bcd60e51b815260206004820152602860248201527f414d4d546f6b656e506169723a20494e53554646494349454e545f4f555450556044820152671517d05353d5539560c21b6064820152608490fd5b506024351515611af4565b600435906001600160a01b038216820361026857565b602435906001600160a01b038216820361026857565b919082519283825260005b848110612135575050826000602080949584010152601f8019910116010190565b602081830181015184830182015201612114565b604081019081106001600160401b0382111761049357604052565b90601f801991011681019081106001600160401b0382111761049357604052565b9190820391821161219257565b634e487b7160e01b600052601160045260246000fd5b8181029291811591840414171561219257565b90600182811c921680156121eb575b60208310146121d557565b634e487b7160e01b600052602260045260246000fd5b91607f16916121ca565b604051906000827fa16a46d94261c7517cc8ff89f61c0ce93598e3c849801011dee649a6a557d1029182549261222a846121bb565b808452936020916001918281169081156122b95750600114612258575b50505061225692500383612164565b565b60009081527f42ad5d3e1f2e6e70edcf6d991b8a3023d3fca8047a131592f9edb9fd9b89d57d9590935091905b8284106122a15750612256945050508101602001388080612247565b85548885018301529485019487945092810192612285565b925050506020925061225694915060ff191682840152151560051b820101388080612247565b604051906000827fa16a46d94261c7517cc8ff89f61c0ce93598e3c849801011dee649a6a557d10391825492612314846121bb565b808452936020916001918281169081156122b9575060011461233f5750505061225692500383612164565b60009081527f5f9ce34815f8e11431c7bb75a8e6886a91478f7ffc1dbb0a98dc240fddd76b759590935091905b8284106123885750612256945050508101602001388080612247565b8554888501830152948501948794509281019261236c565b604051906123ad82612149565b6003825262414d4d60e81b6020830152565b81156123c9570490565b634e487b7160e01b600052601260045260246000fd5b6001600160a01b031660009081527f52c63247e1f47db19d5ce0460030c497f067ca4cebf71ba98eeadabe20bace016020526040902090565b6001600160a01b0390811690811561247357600080516020612e3583398151915280546001600160a01b031981168417909155167f8be0079c531659141344cd1fd0a4f28419497f9722a3daafe3b4186f6b6457e0600080a3565b604051631e4fbdf760e01b815260006004820152602490fd5b600080516020612e9583398151915260028154146124aa5760029055565b604051633ee5aeb560e01b8152600490fd5b60ff600080516020612e7583398151915254166124d557565b60405163d93c066560e01b8152600490fd5b60405192916124f584612149565b601984527f7472616e7366657228616464726573732c75696e74323536290000000000000060209485015260405163a9059cbb60e01b8186019081526001600160a01b0390921660248201526044808201949094529283526001600160401b0392608081018481118282101761049357604052600092839283809351925af1913d15612637573d908111611f81576040519061259a601f8201601f1916860183612164565b81523d828583013e5b826125f7575b5050156125b35750565b6064906040519062461bcd60e51b82526004820152601d60248201527f414d4d546f6b656e506169723a205452414e534645525f4641494c45440000006044820152fd5b8051925082159190848315612613575b505050905038806125a9565b91938180945001031261064f578201519081151582036102bb575080388084612607565b5060606125a3565b92916001600160701b0390818511158061277a575b1561273c577f1c411e9a96e071241c2f21f7726b17ae89e3cab4c78be50e062b03a9fffbbad194604094839263ffffffff60035460e01c81421603169182151580612731575b80612726575b6126e3575b505050607093841b600160701b600160e01b031691169081174260e01b6001600160e01b031916176003819055845191825290921c166020820152a1565b6001600160e01b03916127159190612702908585612707838587612acd565b612afc565b160260045401600455612acd565b1602600554016005553880806126a5565b5084811615156126a0565b50848216151561269a565b60405162461bcd60e51b8152602060048201526016602482015275414d4d546f6b656e506169723a204f564552464c4f5760501b6044820152606490fd5b5081831115612654565b916001600160a01b03808416928315612859571692831561284057600090838252600080516020612e158339815191528060205260408320549184831061280d575082847fddf252ad1be2c89b69c2b068fc378daa952ba7f163c4a11628f55a4df523b3ef959360409388602097528652038282205586815220818154019055604051908152a3565b60405163391434e360e21b81526001600160a01b0391909116600482015260248101929092525060448101839052606490fd5b60405163ec442f0560e01b815260006004820152602490fd5b604051634b637e8f60e11b815260006004820152602490fd5b600080516020612e35833981519152546001600160a01b0316330361289357565b60405163118cdaa760e01b8152336004820152602490fd5b9190820180921161219257565b60008054604051622fcfcb60e31b815293949392906001600160a01b03906020908590600490829085165afa938415610b165783946129b7575b50831615159460065491866000146129a65782612911575b5050505050565b61104161292e91612934936001600160701b0380911691166121a8565b916129f8565b90818111612943575b8061290a565b612960600080516020612e5583398151915254611cc08484612185565b9260058202918083046005149015171561106a57506129899291612983916128ab565b906123bf565b80612996575b808061293d565b61299f91612a54565b388061298f565b50509091506129b25750565b600655565b9093506020813d6020116129f0575b816129d360209383612164565b810103126129ec575183811681036129ec5792386128f2565b8280fd5b3d91506129c6565b9060006003831115612a475750816001908060011c600181018091116121925791905b848310612a2757505050565b90919350612a3e84612a3981846123bf565b6128ab565b821c9190612a1b565b91612a4e57565b60019150565b6001600160a01b0316908115612840577fddf252ad1be2c89b69c2b068fc378daa952ba7f163c4a11628f55a4df523b3ef6020600092600080516020612e55833981519152612aa48282546128ab565b9055848452600080516020612e15833981519152825260408420818154019055604051908152a3565b600160701b600160e01b03607082901b16906001600160701b0316808204600160701b14901517156121925790565b906001600160701b03169081156123c9576001600160e01b03160490565b916001600160a01b038084169283156118b05716928315611897577f8c5be1e5ebec7d5bd14f71427d1e84f3dd0314c0f7b2291e5b200ac8c7c3b92591612b626020926123df565b85600052825280604060002055604051908152a3565b612b80612d25565b612b88612d8f565b6040519060208201927f8b73c3c69bb8fe3d512ecc4cf759cc79239f7b179b0ffacaa9a75d522b39400f8452604083015260608201524660808201523060a082015260a0815260c081018181106001600160401b038211176104935760405251902090565b60ff600080516020612eb58339815191525460401c1615612c0a57565b604051631afcd79f60e31b8152600490fd5b91907f7fffffffffffffffffffffffffffffff5d576e7357a4501ddfe92f46681b20a08411612c9457926020929160ff608095604051948552168484015260408301526060820152600092839182805260015afa15610ad55780516001600160a01b03811615612c8b57918190565b50809160019190565b50505060009160039190565b6004811015612d0f5780612cb2575050565b60018103612ccc5760405163f645eedf60e01b8152600490fd5b60028103612ced5760405163fce698f760e01b815260048101839052602490fd5b600314612cf75750565b602490604051906335e2f38360e21b82526004820152fd5b634e487b7160e01b600052602160045260246000fd5b612d2d6121f5565b8051908115612d3d576020012090565b50507fa16a46d94261c7517cc8ff89f61c0ce93598e3c849801011dee649a6a557d100548015612d6a5790565b507fc5d2460186f7233c927e7db2dcc703c0e500b653ca82273b7bfad8045d85a47090565b612d976122df565b8051908115612da7576020012090565b50507fa16a46d94261c7517cc8ff89f61c0ce93598e3c849801011dee649a6a557d101548015612d6a579056fe2ae08a8e29253f69ac5d979a101956ab8f8d9d7ded63fa7a83b16fc47648eab052c63247e1f47db19d5ce0460030c497f067ca4cebf71ba98eeadabe20bace0352c63247e1f47db19d5ce0460030c497f067ca4cebf71ba98eeadabe20bace009016d09d72d40fdae2fd8ceac6b6234c7706214fd39c1cd1e609a0528c19930052c63247e1f47db19d5ce0460030c497f067ca4cebf71ba98eeadabe20bace02cd5ed15c6e187e77e9aee88184c21f4f2182ab5827cb3b7e07fbedcd63f033009b779b17422d0df92223018b32b4d1fa46e071723d6817e2486d003becc55f00f0c57e16840df040f15088dc2f81fe391c3923bec73e23a9662efc9c229c6a00a2646970667358221220d3ffdd3d92e9da540901defb82f40c7849526e5ea3c333dea2edc1213df2d8f964736f6c63430008160033","opcodes":"PUSH1 0x80 DUP1 PUSH1 0x40 MSTORE CALLVALUE PUSH2 0xB9 JUMPI PUSH32 0xF0C57E16840DF040F15088DC2F81FE391C3923BEC73E23A9662EFC9C229C6A00 SWAP1 DUP2 SLOAD SWAP1 PUSH1 0xFF DUP3 PUSH1 0x40 SHR AND PUSH2 0xAA JUMPI POP PUSH1 0x1 PUSH1 0x1 PUSH1 0x40 SHL SUB PUSH1 0x2 PUSH1 0x1 PUSH1 0x40 SHL SUB NOT DUP3 DUP3 AND ADD PUSH2 0x65 JUMPI JUMPDEST PUSH1 0x40 MLOAD PUSH2 0x2F0A SWAP1 DUP2 PUSH3 0xBF DUP3 CODECOPY RETURN JUMPDEST PUSH1 0x1 PUSH1 0x1 PUSH1 0x40 SHL SUB NOT SWAP1 SWAP2 AND DUP2 OR SWAP1 SWAP2 SSTORE PUSH1 0x40 MLOAD SWAP1 DUP2 MSTORE PUSH32 0xC7F505B2F371AE2175EE4913F4499E1F2633A7B5936321EED1CDAEB6115181D2 SWAP1 PUSH1 0x20 SWAP1 LOG1 CODESIZE DUP1 DUP1 PUSH2 0x55 JUMP JUMPDEST PUSH4 0xF92EE8A9 PUSH1 0xE0 SHL DUP2 MSTORE PUSH1 0x4 SWAP1 REVERT JUMPDEST PUSH1 0x0 DUP1 REVERT INVALID PUSH1 0x80 PUSH1 0x40 MSTORE PUSH1 0x4 CALLDATASIZE LT ISZERO PUSH2 0x12 JUMPI PUSH1 0x0 DUP1 REVERT JUMPDEST PUSH1 0x0 DUP1 CALLDATALOAD PUSH1 0xE0 SHR DUP1 PUSH4 0x22C0D9F EQ PUSH2 0x1A6D JUMPI DUP1 PUSH4 0x6FDDE03 EQ PUSH2 0x19C3 JUMPI DUP1 PUSH4 0x902F1AC EQ PUSH2 0x196A JUMPI DUP1 PUSH4 0x95EA7B3 EQ PUSH2 0x1943 JUMPI DUP1 PUSH4 0xDFE1681 EQ PUSH2 0x191A JUMPI DUP1 PUSH4 0x18160DDD EQ PUSH2 0x18EF JUMPI DUP1 PUSH4 0x23B872DD EQ PUSH2 0x1809 JUMPI DUP1 PUSH4 0x313CE567 EQ PUSH2 0x17ED JUMPI DUP1 PUSH4 0x3644E515 EQ PUSH2 0x17CA JUMPI DUP1 PUSH4 0x3F4BA83A EQ PUSH2 0x1752 JUMPI DUP1 PUSH4 0x485CC955 EQ PUSH2 0x126E JUMPI DUP1 PUSH4 0x5909C0D5 EQ PUSH2 0x1250 JUMPI DUP1 PUSH4 0x5A3D5493 EQ PUSH2 0x1232 JUMPI DUP1 PUSH4 0x5C975ABB EQ PUSH2 0x1202 JUMPI DUP1 PUSH4 0x6A627842 EQ PUSH2 0xF36 JUMPI DUP1 PUSH4 0x70A08231 EQ PUSH2 0xEF0 JUMPI DUP1 PUSH4 0x715018A6 EQ PUSH2 0xE85 JUMPI DUP1 PUSH4 0x7464FC3D EQ PUSH2 0xE67 JUMPI DUP1 PUSH4 0x7ECEBE00 EQ PUSH2 0xE0D JUMPI DUP1 PUSH4 0x8456CB59 EQ PUSH2 0xDA5 JUMPI DUP1 PUSH4 0x84B0196E EQ PUSH2 0xC47 JUMPI DUP1 PUSH4 0x89AFCB44 EQ PUSH2 0x7E1 JUMPI DUP1 PUSH4 0x8DA5CB5B EQ PUSH2 0x7AB JUMPI DUP1 PUSH4 0x95D89B41 EQ PUSH2 0x6A2 JUMPI DUP1 PUSH4 0xA9059CBB EQ PUSH2 0x670 JUMPI DUP1 PUSH4 0xBA9A7A56 EQ PUSH2 0x653 JUMPI DUP1 PUSH4 0xBC25CF77 EQ PUSH2 0x515 JUMPI DUP1 PUSH4 0xC45A0155 EQ PUSH2 0x4EE JUMPI DUP1 PUSH4 0xD21220A7 EQ PUSH2 0x4C5 JUMPI DUP1 PUSH4 0xD505ACCF EQ PUSH2 0x335 JUMPI DUP1 PUSH4 0xDD62ED3E EQ PUSH2 0x2EB JUMPI DUP1 PUSH4 0xF2FDE38B EQ PUSH2 0x2BE JUMPI PUSH4 0xFFF6CAE9 EQ PUSH2 0x188 JUMPI PUSH1 0x0 DUP1 REVERT JUMPDEST CALLVALUE PUSH2 0x2BB JUMPI DUP1 PUSH1 0x3 NOT CALLDATASIZE ADD SLT PUSH2 0x2BB JUMPI PUSH2 0x1A0 PUSH2 0x248C JUMP JUMPDEST PUSH1 0x1 SLOAD PUSH1 0x40 MLOAD PUSH4 0x70A08231 PUSH1 0xE0 SHL DUP1 DUP3 MSTORE ADDRESS PUSH1 0x4 DUP4 ADD MSTORE SWAP2 PUSH1 0x20 SWAP2 PUSH1 0x1 PUSH1 0x1 PUSH1 0xA0 SHL SUB SWAP2 DUP4 SWAP1 DUP3 SWAP1 PUSH1 0x24 SWAP1 DUP3 SWAP1 DUP7 AND GAS STATICCALL SWAP2 DUP3 ISZERO PUSH2 0x2B0 JUMPI DUP4 SWAP2 DUP7 SWAP4 PUSH2 0x27F JUMPI JUMPDEST POP PUSH1 0x2 SLOAD AND SWAP4 PUSH1 0x24 PUSH1 0x40 MLOAD DUP1 SWAP7 DUP2 SWAP4 DUP3 MSTORE ADDRESS PUSH1 0x4 DUP4 ADD MSTORE GAS STATICCALL SWAP2 DUP3 ISZERO PUSH2 0x274 JUMPI DUP5 SWAP3 PUSH2 0x23D JUMPI JUMPDEST POP PUSH2 0x228 SWAP3 POP PUSH1 0x3 SLOAD SWAP2 PUSH1 0x1 PUSH1 0x1 PUSH1 0x70 SHL SUB DUP1 DUP5 PUSH1 0x70 SHR AND SWAP4 AND SWAP2 PUSH2 0x263F JUMP JUMPDEST PUSH1 0x1 PUSH1 0x0 DUP1 MLOAD PUSH1 0x20 PUSH2 0x2E95 DUP4 CODECOPY DUP2 MLOAD SWAP2 MSTORE SSTORE DUP1 RETURN JUMPDEST SWAP1 SWAP2 POP DUP3 DUP2 RETURNDATASIZE DUP4 GT PUSH2 0x26D JUMPI JUMPDEST PUSH2 0x254 DUP2 DUP4 PUSH2 0x2164 JUMP JUMPDEST DUP2 ADD SUB SLT PUSH2 0x268 JUMPI PUSH2 0x228 SWAP2 MLOAD SWAP1 CODESIZE PUSH2 0x208 JUMP JUMPDEST PUSH1 0x0 DUP1 REVERT JUMPDEST POP RETURNDATASIZE PUSH2 0x24A JUMP JUMPDEST PUSH1 0x40 MLOAD RETURNDATASIZE DUP7 DUP3 RETURNDATACOPY RETURNDATASIZE SWAP1 REVERT JUMPDEST DUP3 DUP2 SWAP4 SWAP3 SWAP5 POP RETURNDATASIZE DUP4 GT PUSH2 0x2A9 JUMPI JUMPDEST PUSH2 0x297 DUP2 DUP4 PUSH2 0x2164 JUMP JUMPDEST DUP2 ADD SUB SLT PUSH2 0x268 JUMPI DUP3 SWAP1 MLOAD SWAP2 CODESIZE PUSH2 0x1E1 JUMP JUMPDEST POP RETURNDATASIZE PUSH2 0x28D JUMP JUMPDEST PUSH1 0x40 MLOAD RETURNDATASIZE DUP8 DUP3 RETURNDATACOPY RETURNDATASIZE SWAP1 REVERT JUMPDEST DUP1 REVERT JUMPDEST POP CALLVALUE PUSH2 0x2BB JUMPI PUSH1 0x20 CALLDATASIZE PUSH1 0x3 NOT ADD SLT PUSH2 0x2BB JUMPI PUSH2 0x2E8 PUSH2 0x2DB PUSH2 0x20DD JUMP JUMPDEST PUSH2 0x2E3 PUSH2 0x2872 JUMP JUMPDEST PUSH2 0x2418 JUMP JUMPDEST DUP1 RETURN JUMPDEST POP CALLVALUE PUSH2 0x2BB JUMPI PUSH1 0x40 CALLDATASIZE PUSH1 0x3 NOT ADD SLT PUSH2 0x2BB JUMPI PUSH2 0x305 PUSH2 0x20DD JUMP JUMPDEST PUSH2 0x316 PUSH2 0x310 PUSH2 0x20F3 JUMP JUMPDEST SWAP2 PUSH2 0x23DF JUMP JUMPDEST SWAP1 PUSH1 0x1 DUP1 PUSH1 0xA0 SHL SUB AND PUSH1 0x0 MSTORE PUSH1 0x20 MSTORE PUSH1 0x20 PUSH1 0x40 PUSH1 0x0 KECCAK256 SLOAD PUSH1 0x40 MLOAD SWAP1 DUP2 MSTORE RETURN JUMPDEST POP CALLVALUE PUSH2 0x2BB JUMPI PUSH1 0xE0 CALLDATASIZE PUSH1 0x3 NOT ADD SLT PUSH2 0x2BB JUMPI PUSH2 0x34F PUSH2 0x20DD JUMP JUMPDEST SWAP1 PUSH2 0x358 PUSH2 0x20F3 JUMP JUMPDEST PUSH1 0x44 CALLDATALOAD SWAP1 PUSH1 0x64 CALLDATALOAD SWAP4 PUSH1 0x84 CALLDATALOAD SWAP5 PUSH1 0xFF DUP7 AND DUP7 SUB PUSH2 0x4C1 JUMPI DUP1 TIMESTAMP GT PUSH2 0x4A9 JUMPI PUSH1 0x1 DUP1 PUSH1 0xA0 SHL SUB SWAP1 DUP2 DUP4 AND SWAP7 DUP8 DUP8 MSTORE PUSH32 0x5AB42CED628888259C08AC98DB1EB0CF702FC1501344311D8B100CD1BFE4BB00 PUSH1 0x20 MSTORE PUSH1 0x40 DUP8 KECCAK256 SWAP1 DUP2 SLOAD SWAP2 PUSH1 0x1 DUP4 ADD SWAP1 SSTORE PUSH1 0x40 MLOAD SWAP3 PUSH1 0x20 DUP5 ADD SWAP3 PUSH32 0x6E71EDAE12B1B97F4D1F60370FEF10105FA2FAAE0126114A169C64845D6126C9 DUP5 MSTORE DUP11 PUSH1 0x40 DUP7 ADD MSTORE DUP6 DUP9 AND PUSH1 0x60 DUP7 ADD MSTORE DUP9 PUSH1 0x80 DUP7 ADD MSTORE PUSH1 0xA0 DUP6 ADD MSTORE PUSH1 0xC0 DUP5 ADD MSTORE PUSH1 0xC0 DUP4 MSTORE PUSH1 0xE0 DUP4 ADD SWAP2 DUP4 DUP4 LT PUSH1 0x1 PUSH1 0x1 PUSH1 0x40 SHL SUB DUP5 GT OR PUSH2 0x493 JUMPI PUSH2 0x461 SWAP4 PUSH2 0x458 SWAP4 PUSH1 0x40 MSTORE MLOAD SWAP1 KECCAK256 PUSH2 0x431 PUSH2 0x2B78 JUMP JUMPDEST SWAP1 PUSH1 0x40 MLOAD SWAP2 PUSH2 0x1901 PUSH1 0xF0 SHL DUP4 MSTORE PUSH1 0x2 DUP4 ADD MSTORE PUSH1 0x22 DUP3 ADD MSTORE PUSH1 0xC4 CALLDATALOAD SWAP2 PUSH1 0x42 PUSH1 0xA4 CALLDATALOAD SWAP3 KECCAK256 PUSH2 0x2C1C JUMP JUMPDEST SWAP1 SWAP3 SWAP2 SWAP3 PUSH2 0x2CA0 JUMP JUMPDEST AND DUP6 DUP2 SUB PUSH2 0x475 JUMPI POP PUSH2 0x2E8 SWAP4 SWAP5 POP PUSH2 0x2B1A JUMP JUMPDEST PUSH1 0x44 SWAP1 DUP7 PUSH1 0x40 MLOAD SWAP2 PUSH4 0x25C00723 PUSH1 0xE1 SHL DUP4 MSTORE PUSH1 0x4 DUP4 ADD MSTORE PUSH1 0x24 DUP3 ADD MSTORE REVERT JUMPDEST PUSH4 0x4E487B71 PUSH1 0xE0 SHL PUSH1 0x0 MSTORE PUSH1 0x41 PUSH1 0x4 MSTORE PUSH1 0x24 PUSH1 0x0 REVERT JUMPDEST PUSH1 0x24 SWAP1 PUSH1 0x40 MLOAD SWAP1 PUSH4 0x313C8981 PUSH1 0xE1 SHL DUP3 MSTORE PUSH1 0x4 DUP3 ADD MSTORE REVERT JUMPDEST DUP5 DUP1 REVERT JUMPDEST POP CALLVALUE PUSH2 0x2BB JUMPI DUP1 PUSH1 0x3 NOT CALLDATASIZE ADD SLT PUSH2 0x2BB JUMPI PUSH1 0x2 SLOAD PUSH1 0x40 MLOAD PUSH1 0x1 PUSH1 0x1 PUSH1 0xA0 SHL SUB SWAP1 SWAP2 AND DUP2 MSTORE PUSH1 0x20 SWAP1 RETURN JUMPDEST POP CALLVALUE PUSH2 0x2BB JUMPI DUP1 PUSH1 0x3 NOT CALLDATASIZE ADD SLT PUSH2 0x2BB JUMPI SLOAD PUSH1 0x40 MLOAD PUSH1 0x1 PUSH1 0x1 PUSH1 0xA0 SHL SUB SWAP1 SWAP2 AND DUP2 MSTORE PUSH1 0x20 SWAP1 RETURN JUMPDEST POP CALLVALUE PUSH2 0x2BB JUMPI PUSH1 0x20 DUP1 PUSH1 0x3 NOT CALLDATASIZE ADD SLT PUSH2 0x64F JUMPI PUSH2 0x530 PUSH2 0x20DD JUMP JUMPDEST SWAP1 PUSH2 0x539 PUSH2 0x248C JUMP JUMPDEST PUSH1 0x1 SLOAD PUSH1 0x2 SLOAD PUSH1 0x40 MLOAD PUSH4 0x70A08231 PUSH1 0xE0 SHL DUP1 DUP3 MSTORE ADDRESS PUSH1 0x4 DUP4 ADD MSTORE SWAP1 SWAP5 PUSH1 0x1 PUSH1 0x1 PUSH1 0xA0 SHL SUB SWAP3 DUP4 AND SWAP5 SWAP1 SWAP4 SWAP1 SWAP3 AND DUP3 DUP7 PUSH1 0x24 DUP2 DUP5 GAS STATICCALL SWAP6 DUP7 ISZERO PUSH2 0x644 JUMPI DUP8 SWAP7 PUSH2 0x613 JUMPI JUMPDEST POP PUSH2 0x59F SWAP1 DUP5 PUSH2 0x599 PUSH1 0x1 PUSH1 0x1 PUSH1 0x70 SHL SUB SWAP9 DUP10 PUSH1 0x3 SLOAD AND SWAP1 PUSH2 0x2185 JUMP JUMPDEST SWAP2 PUSH2 0x24E7 JUMP JUMPDEST PUSH1 0x40 MLOAD SWAP1 DUP2 MSTORE ADDRESS PUSH1 0x4 DUP3 ADD MSTORE DUP2 DUP2 PUSH1 0x24 DUP2 DUP8 GAS STATICCALL SWAP2 DUP3 ISZERO PUSH2 0x608 JUMPI DUP7 SWAP3 PUSH2 0x5D8 JUMPI JUMPDEST POP POP PUSH2 0x599 SWAP1 PUSH2 0x228 SWAP5 PUSH1 0x3 SLOAD PUSH1 0x70 SHR AND SWAP1 PUSH2 0x2185 JUMP JUMPDEST SWAP1 DUP1 SWAP3 POP DUP2 RETURNDATASIZE DUP4 GT PUSH2 0x601 JUMPI JUMPDEST PUSH2 0x5EF DUP2 DUP4 PUSH2 0x2164 JUMP JUMPDEST DUP2 ADD SUB SLT PUSH2 0x268 JUMPI MLOAD DUP4 PUSH2 0x599 PUSH2 0x5C1 JUMP JUMPDEST POP RETURNDATASIZE PUSH2 0x5E5 JUMP JUMPDEST PUSH1 0x40 MLOAD RETURNDATASIZE DUP9 DUP3 RETURNDATACOPY RETURNDATASIZE SWAP1 REVERT JUMPDEST SWAP1 SWAP6 POP DUP3 DUP2 DUP2 RETURNDATASIZE DUP4 GT PUSH2 0x63D JUMPI JUMPDEST PUSH2 0x62B DUP2 DUP4 PUSH2 0x2164 JUMP JUMPDEST DUP2 ADD SUB SLT PUSH2 0x268 JUMPI MLOAD SWAP5 PUSH2 0x59F PUSH2 0x57C JUMP JUMPDEST POP RETURNDATASIZE PUSH2 0x621 JUMP JUMPDEST PUSH1 0x40 MLOAD RETURNDATASIZE DUP10 DUP3 RETURNDATACOPY RETURNDATASIZE SWAP1 REVERT JUMPDEST POP DUP1 REVERT JUMPDEST POP CALLVALUE PUSH2 0x2BB JUMPI DUP1 PUSH1 0x3 NOT CALLDATASIZE ADD SLT PUSH2 0x2BB JUMPI PUSH1 0x20 PUSH1 0x40 MLOAD PUSH2 0x3E8 DUP2 MSTORE RETURN JUMPDEST POP CALLVALUE PUSH2 0x2BB JUMPI PUSH1 0x40 CALLDATASIZE PUSH1 0x3 NOT ADD SLT PUSH2 0x2BB JUMPI PUSH2 0x697 PUSH2 0x68D PUSH2 0x20DD JUMP JUMPDEST PUSH1 0x24 CALLDATALOAD SWAP1 CALLER PUSH2 0x2784 JUMP JUMPDEST PUSH1 0x20 PUSH1 0x40 MLOAD PUSH1 0x1 DUP2 MSTORE RETURN JUMPDEST POP CALLVALUE PUSH2 0x2BB JUMPI DUP1 PUSH1 0x3 NOT CALLDATASIZE ADD SLT PUSH2 0x2BB JUMPI PUSH1 0x40 MLOAD PUSH32 0x52C63247E1F47DB19D5CE0460030C497F067CA4CEBF71BA98EEADABE20BACE04 DUP1 SLOAD DUP3 PUSH1 0x0 PUSH2 0x6E5 DUP4 PUSH2 0x21BB JUMP JUMPDEST SWAP3 DUP4 DUP4 MSTORE PUSH1 0x20 SWAP5 PUSH1 0x1 SWAP2 DUP7 PUSH1 0x1 DUP3 AND SWAP2 DUP3 PUSH1 0x0 EQ PUSH2 0x789 JUMPI POP POP PUSH1 0x1 EQ PUSH2 0x72D JUMPI JUMPDEST POP POP PUSH2 0x715 SWAP3 POP SUB DUP4 PUSH2 0x2164 JUMP JUMPDEST PUSH2 0x729 PUSH1 0x40 MLOAD SWAP3 DUP3 DUP5 SWAP4 DUP5 MSTORE DUP4 ADD SWAP1 PUSH2 0x2109 JUMP JUMPDEST SUB SWAP1 RETURN JUMPDEST DUP6 SWAP3 POP PUSH1 0x0 MSTORE PUSH32 0x46A2803E59A4DE4E7A4C574B1243F25977AC4C77D5A1A4A609B5394CEBB4A2AA SWAP1 PUSH1 0x0 SWAP2 JUMPDEST DUP6 DUP4 LT PUSH2 0x771 JUMPI POP POP PUSH2 0x715 SWAP4 POP DUP3 ADD ADD DUP6 DUP1 PUSH2 0x707 JUMP JUMPDEST DUP1 SLOAD DUP4 DUP10 ADD DUP6 ADD MSTORE DUP8 SWAP5 POP DUP7 SWAP4 SWAP1 SWAP3 ADD SWAP2 DUP2 ADD PUSH2 0x759 JUMP JUMPDEST SWAP3 POP SWAP4 POP POP PUSH2 0x715 SWAP5 SWAP2 POP PUSH1 0xFF NOT AND DUP3 DUP5 ADD MSTORE ISZERO ISZERO PUSH1 0x5 SHL DUP3 ADD ADD DUP6 DUP1 PUSH2 0x707 JUMP JUMPDEST POP CALLVALUE PUSH2 0x2BB JUMPI DUP1 PUSH1 0x3 NOT CALLDATASIZE ADD SLT PUSH2 0x2BB JUMPI PUSH1 0x0 DUP1 MLOAD PUSH1 0x20 PUSH2 0x2E35 DUP4 CODECOPY DUP2 MLOAD SWAP2 MSTORE SLOAD PUSH1 0x40 MLOAD PUSH1 0x1 PUSH1 0x1 PUSH1 0xA0 SHL SUB SWAP1 SWAP2 AND DUP2 MSTORE PUSH1 0x20 SWAP1 RETURN JUMPDEST POP CALLVALUE PUSH2 0x2BB JUMPI PUSH1 0x20 CALLDATASIZE PUSH1 0x3 NOT ADD SLT PUSH2 0x2BB JUMPI PUSH2 0x7FB PUSH2 0x20DD JUMP JUMPDEST PUSH2 0x803 PUSH2 0x248C JUMP JUMPDEST PUSH2 0x80B PUSH2 0x24BC JUMP JUMPDEST PUSH2 0x82A PUSH1 0x3 SLOAD PUSH1 0x1 PUSH1 0x1 PUSH1 0x70 SHL SUB SWAP2 DUP3 DUP3 AND SWAP3 DUP3 PUSH1 0x70 SHR AND SWAP2 PUSH1 0xE0 SHR SWAP1 JUMP JUMPDEST POP PUSH1 0x1 SLOAD PUSH1 0x2 SLOAD PUSH1 0x40 MLOAD PUSH4 0x70A08231 PUSH1 0xE0 SHL DUP2 MSTORE ADDRESS PUSH1 0x4 DUP3 ADD MSTORE PUSH1 0x1 PUSH1 0x1 PUSH1 0xA0 SHL SUB SWAP2 DUP3 AND SWAP7 SWAP5 SWAP6 SWAP2 SWAP1 SWAP3 AND SWAP4 SWAP1 SWAP3 SWAP1 PUSH1 0x20 DUP4 PUSH1 0x24 DUP2 DUP9 GAS STATICCALL SWAP3 DUP4 ISZERO PUSH2 0xC3A JUMPI DUP2 SWAP4 PUSH2 0xC06 JUMPI JUMPDEST POP PUSH1 0x40 MLOAD PUSH4 0x70A08231 PUSH1 0xE0 SHL DUP2 MSTORE ADDRESS PUSH1 0x4 DUP3 ADD MSTORE SWAP7 PUSH1 0x20 DUP9 PUSH1 0x24 DUP2 DUP5 GAS STATICCALL SWAP6 DUP7 ISZERO PUSH2 0xBFB JUMPI DUP8 SWAP9 DUP4 SWAP9 SWAP8 PUSH2 0xBC4 JUMPI JUMPDEST POP ADDRESS DUP4 MSTORE PUSH1 0x0 DUP1 MLOAD PUSH1 0x20 PUSH2 0x2E15 DUP4 CODECOPY DUP2 MLOAD SWAP2 MSTORE PUSH1 0x20 MSTORE PUSH2 0x8F7 PUSH2 0x8EB PUSH2 0x8EB PUSH2 0x8F0 PUSH2 0x8D1 DUP9 PUSH1 0x40 DUP10 KECCAK256 SLOAD SWAP13 PUSH2 0x28B8 JUMP JUMPDEST SWAP9 PUSH1 0x0 DUP1 MLOAD PUSH1 0x20 PUSH2 0x2E55 DUP4 CODECOPY DUP2 MLOAD SWAP2 MSTORE SLOAD SWAP4 DUP5 SWAP2 DUP14 PUSH2 0x21A8 JUMP JUMPDEST PUSH2 0x23BF JUMP JUMPDEST SWAP11 DUP11 PUSH2 0x21A8 JUMP JUMPDEST SWAP7 DUP9 ISZERO ISZERO DUP1 PUSH2 0xBBB JUMPI JUMPDEST ISZERO PUSH2 0xB62 JUMPI ADDRESS ISZERO PUSH2 0xB49 JUMPI ADDRESS PUSH1 0x0 MSTORE PUSH1 0x0 DUP1 MLOAD PUSH1 0x20 PUSH2 0x2E15 DUP4 CODECOPY DUP2 MLOAD SWAP2 MSTORE PUSH1 0x20 MSTORE PUSH1 0x40 PUSH1 0x0 KECCAK256 SLOAD DUP2 DUP2 LT PUSH2 0xB21 JUMPI SWAP2 PUSH1 0x0 DUP3 PUSH1 0x20 SWAP4 PUSH1 0x24 SWAP7 SWAP6 ADDRESS DUP5 MSTORE PUSH1 0x0 DUP1 MLOAD PUSH1 0x20 PUSH2 0x2E15 DUP4 CODECOPY DUP2 MLOAD SWAP2 MSTORE DUP7 MSTORE SUB PUSH1 0x40 DUP4 KECCAK256 SSTORE DUP1 PUSH1 0x0 DUP1 MLOAD PUSH1 0x20 PUSH2 0x2E55 DUP4 CODECOPY DUP2 MLOAD SWAP2 MSTORE SLOAD SUB PUSH1 0x0 DUP1 MLOAD PUSH1 0x20 PUSH2 0x2E55 DUP4 CODECOPY DUP2 MLOAD SWAP2 MSTORE SSTORE PUSH1 0x40 MLOAD SWAP1 DUP2 MSTORE PUSH32 0xDDF252AD1BE2C89B69C2B068FC378DAA952BA7F163C4A11628F55A4DF523B3EF DUP5 ADDRESS SWAP3 LOG3 PUSH2 0x9AC DUP11 DUP10 DUP4 PUSH2 0x24E7 JUMP JUMPDEST PUSH2 0x9B7 DUP10 DUP10 DUP6 PUSH2 0x24E7 JUMP JUMPDEST PUSH1 0x40 MLOAD PUSH4 0x70A08231 PUSH1 0xE0 SHL DUP2 MSTORE ADDRESS PUSH1 0x4 DUP3 ADD MSTORE SWAP4 DUP5 SWAP2 DUP3 SWAP1 GAS STATICCALL SWAP2 DUP3 ISZERO PUSH2 0xB16 JUMPI DUP4 SWAP3 PUSH2 0xAE1 JUMPI JUMPDEST POP PUSH1 0x20 PUSH1 0x24 SWAP2 PUSH1 0x40 MLOAD SWAP3 DUP4 DUP1 SWAP3 PUSH4 0x70A08231 PUSH1 0xE0 SHL DUP3 MSTORE ADDRESS PUSH1 0x4 DUP4 ADD MSTORE GAS STATICCALL SWAP3 DUP4 ISZERO PUSH2 0xAD5 JUMPI SWAP3 PUSH2 0xA9A JUMPI JUMPDEST POP SWAP7 PUSH2 0xA1A SWAP3 SWAP2 PUSH1 0x40 SWAP9 PUSH2 0x263F JUMP JUMPDEST PUSH2 0xA77 JUMPI JUMPDEST DUP4 MLOAD SWAP1 DUP4 DUP3 MSTORE DUP3 PUSH1 0x20 DUP4 ADD MSTORE PUSH1 0x1 DUP1 PUSH1 0xA0 SHL SUB AND SWAP1 PUSH32 0xDCCD412F0B1252819CB1FD330B93224CA42612892BB3F4F789976E6D81936496 DUP6 CALLER SWAP3 LOG3 PUSH1 0x1 PUSH1 0x0 DUP1 MLOAD PUSH1 0x20 PUSH2 0x2E95 DUP4 CODECOPY DUP2 MLOAD SWAP2 MSTORE SSTORE DUP3 MLOAD SWAP2 DUP3 MSTORE PUSH1 0x20 DUP3 ADD MSTORE RETURN JUMPDEST PUSH2 0xA92 PUSH1 0x3 SLOAD PUSH1 0x1 PUSH1 0x1 PUSH1 0x70 SHL SUB DUP1 DUP3 PUSH1 0x70 SHR AND SWAP2 AND PUSH2 0x21A8 JUMP JUMPDEST PUSH1 0x6 SSTORE PUSH2 0xA1F JUMP JUMPDEST SWAP3 SWAP2 POP SWAP7 PUSH1 0x20 DUP4 RETURNDATASIZE PUSH1 0x20 GT PUSH2 0xACD JUMPI JUMPDEST DUP2 PUSH2 0xAB7 PUSH1 0x20 SWAP4 DUP4 PUSH2 0x2164 JUMP JUMPDEST DUP2 ADD SUB SLT PUSH2 0x268 JUMPI SWAP2 MLOAD SWAP2 SWAP7 SWAP1 SWAP2 SWAP1 PUSH1 0x40 PUSH2 0xA0B JUMP JUMPDEST RETURNDATASIZE SWAP2 POP PUSH2 0xAAA JUMP JUMPDEST PUSH1 0x40 MLOAD SWAP1 RETURNDATASIZE SWAP1 DUP3 RETURNDATACOPY RETURNDATASIZE SWAP1 REVERT JUMPDEST SWAP1 SWAP2 POP PUSH1 0x20 DUP2 RETURNDATASIZE PUSH1 0x20 GT PUSH2 0xB0E JUMPI JUMPDEST DUP2 PUSH2 0xAFD PUSH1 0x20 SWAP4 DUP4 PUSH2 0x2164 JUMP JUMPDEST DUP2 ADD SUB SLT PUSH2 0x268 JUMPI MLOAD SWAP1 PUSH1 0x20 PUSH2 0x9DF JUMP JUMPDEST RETURNDATASIZE SWAP2 POP PUSH2 0xAF0 JUMP JUMPDEST PUSH1 0x40 MLOAD RETURNDATASIZE DUP6 DUP3 RETURNDATACOPY RETURNDATASIZE SWAP1 REVERT JUMPDEST PUSH1 0x40 MLOAD PUSH4 0x391434E3 PUSH1 0xE2 SHL DUP2 MSTORE ADDRESS PUSH1 0x4 DUP3 ADD MSTORE PUSH1 0x24 DUP2 ADD SWAP2 SWAP1 SWAP2 MSTORE PUSH1 0x44 DUP2 ADD SWAP2 SWAP1 SWAP2 MSTORE PUSH1 0x64 SWAP1 REVERT JUMPDEST PUSH1 0x40 MLOAD PUSH4 0x4B637E8F PUSH1 0xE1 SHL DUP2 MSTORE PUSH1 0x4 DUP2 ADD DUP6 SWAP1 MSTORE PUSH1 0x24 SWAP1 REVERT JUMPDEST PUSH1 0x40 MLOAD PUSH3 0x461BCD PUSH1 0xE5 SHL DUP2 MSTORE PUSH1 0x20 PUSH1 0x4 DUP3 ADD MSTORE PUSH1 0x2B PUSH1 0x24 DUP3 ADD MSTORE PUSH32 0x414D4D546F6B656E506169723A20494E53554646494349454E545F4C49515549 PUSH1 0x44 DUP3 ADD MSTORE PUSH11 0x1112551657D09554939151 PUSH1 0xAA SHL PUSH1 0x64 DUP3 ADD MSTORE PUSH1 0x84 SWAP1 REVERT JUMPDEST POP DUP8 ISZERO ISZERO PUSH2 0x901 JUMP JUMPDEST SWAP7 POP SWAP7 POP PUSH1 0x20 DUP7 RETURNDATASIZE PUSH1 0x20 GT PUSH2 0xBF3 JUMPI JUMPDEST DUP2 PUSH2 0xBE1 PUSH1 0x20 SWAP4 DUP4 PUSH2 0x2164 JUMP JUMPDEST DUP2 ADD SUB SLT PUSH2 0x268 JUMPI DUP8 SWAP6 MLOAD SWAP7 CODESIZE PUSH2 0x8A0 JUMP JUMPDEST RETURNDATASIZE SWAP2 POP PUSH2 0xBD4 JUMP JUMPDEST PUSH1 0x40 MLOAD RETURNDATASIZE DUP5 DUP3 RETURNDATACOPY RETURNDATASIZE SWAP1 REVERT JUMPDEST SWAP1 SWAP3 POP PUSH1 0x20 DUP2 RETURNDATASIZE PUSH1 0x20 GT PUSH2 0xC32 JUMPI JUMPDEST DUP2 PUSH2 0xC22 PUSH1 0x20 SWAP4 DUP4 PUSH2 0x2164 JUMP JUMPDEST DUP2 ADD SUB SLT PUSH2 0x268 JUMPI MLOAD SWAP2 CODESIZE PUSH2 0x871 JUMP JUMPDEST RETURNDATASIZE SWAP2 POP PUSH2 0xC15 JUMP JUMPDEST POP PUSH1 0x40 MLOAD SWAP1 RETURNDATASIZE SWAP1 DUP3 RETURNDATACOPY RETURNDATASIZE SWAP1 REVERT JUMPDEST POP CALLVALUE PUSH2 0x2BB JUMPI DUP1 PUSH1 0x3 NOT CALLDATASIZE ADD SLT PUSH2 0x2BB JUMPI PUSH32 0xA16A46D94261C7517CC8FF89F61C0CE93598E3C849801011DEE649A6A557D100 SLOAD ISZERO DUP1 PUSH2 0xD7C JUMPI JUMPDEST ISZERO PUSH2 0xD3F JUMPI PUSH2 0xC8E PUSH2 0x21F5 JUMP JUMPDEST SWAP1 PUSH2 0xC97 PUSH2 0x22DF JUMP JUMPDEST SWAP1 PUSH1 0x40 MLOAD SWAP1 PUSH1 0x20 SWAP1 PUSH1 0x20 DUP4 ADD SWAP4 DUP4 DUP6 LT PUSH1 0x1 PUSH1 0x1 PUSH1 0x40 SHL SUB DUP7 GT OR PUSH2 0x493 JUMPI SWAP3 DUP5 SWAP3 PUSH1 0x20 PUSH2 0xCF5 DUP9 SWAP7 PUSH2 0xCE7 SWAP9 PUSH1 0x40 MSTORE DUP6 DUP6 MSTORE PUSH1 0x40 MLOAD SWAP9 DUP10 SWAP9 PUSH1 0xF PUSH1 0xF8 SHL DUP11 MSTORE PUSH1 0xE0 DUP6 DUP12 ADD MSTORE PUSH1 0xE0 DUP11 ADD SWAP1 PUSH2 0x2109 JUMP JUMPDEST SWAP1 DUP9 DUP3 SUB PUSH1 0x40 DUP11 ADD MSTORE PUSH2 0x2109 JUMP JUMPDEST SWAP3 CHAINID PUSH1 0x60 DUP9 ADD MSTORE ADDRESS PUSH1 0x80 DUP9 ADD MSTORE DUP5 PUSH1 0xA0 DUP9 ADD MSTORE DUP7 DUP5 SUB PUSH1 0xC0 DUP9 ADD MSTORE MLOAD SWAP3 DUP4 DUP2 MSTORE ADD SWAP4 SWAP3 JUMPDEST DUP3 DUP2 LT PUSH2 0xD28 JUMPI POP POP POP POP SUB SWAP1 RETURN JUMPDEST DUP4 MLOAD DUP6 MSTORE DUP7 SWAP6 POP SWAP4 DUP2 ADD SWAP4 SWAP3 DUP2 ADD SWAP3 PUSH1 0x1 ADD PUSH2 0xD19 JUMP JUMPDEST PUSH1 0x40 MLOAD PUSH3 0x461BCD PUSH1 0xE5 SHL DUP2 MSTORE PUSH1 0x20 PUSH1 0x4 DUP3 ADD MSTORE PUSH1 0x15 PUSH1 0x24 DUP3 ADD MSTORE PUSH21 0x1152540DCC4C8E88155B9A5B9A5D1A585B1A5E9959 PUSH1 0x5A SHL PUSH1 0x44 DUP3 ADD MSTORE PUSH1 0x64 SWAP1 REVERT JUMPDEST POP PUSH32 0xA16A46D94261C7517CC8FF89F61C0CE93598E3C849801011DEE649A6A557D101 SLOAD ISZERO PUSH2 0xC81 JUMP JUMPDEST POP CALLVALUE PUSH2 0x2BB JUMPI DUP1 PUSH1 0x3 NOT CALLDATASIZE ADD SLT PUSH2 0x2BB JUMPI PUSH2 0xDBE PUSH2 0x2872 JUMP JUMPDEST PUSH2 0xDC6 PUSH2 0x24BC JUMP JUMPDEST PUSH1 0x0 DUP1 MLOAD PUSH1 0x20 PUSH2 0x2E75 DUP4 CODECOPY DUP2 MLOAD SWAP2 MSTORE PUSH1 0x1 PUSH1 0xFF NOT DUP3 SLOAD AND OR SWAP1 SSTORE PUSH32 0x62E78CEA01BEE320CD4E420270B5EA74000D11B0C9F74754EBDBFC544B05A258 PUSH1 0x20 PUSH1 0x40 MLOAD CALLER DUP2 MSTORE LOG1 DUP1 RETURN JUMPDEST POP CALLVALUE PUSH2 0x2BB JUMPI PUSH1 0x20 CALLDATASIZE PUSH1 0x3 NOT ADD SLT PUSH2 0x2BB JUMPI PUSH1 0x1 PUSH1 0x1 PUSH1 0xA0 SHL SUB PUSH2 0xE2F PUSH2 0x20DD JUMP JUMPDEST AND PUSH1 0x0 MSTORE PUSH32 0x5AB42CED628888259C08AC98DB1EB0CF702FC1501344311D8B100CD1BFE4BB00 PUSH1 0x20 MSTORE PUSH1 0x20 PUSH1 0x40 PUSH1 0x0 KECCAK256 SLOAD PUSH1 0x40 MLOAD SWAP1 DUP2 MSTORE RETURN JUMPDEST POP CALLVALUE PUSH2 0x2BB JUMPI DUP1 PUSH1 0x3 NOT CALLDATASIZE ADD SLT PUSH2 0x2BB JUMPI PUSH1 0x20 PUSH1 0x6 SLOAD PUSH1 0x40 MLOAD SWAP1 DUP2 MSTORE RETURN JUMPDEST POP CALLVALUE PUSH2 0x2BB JUMPI DUP1 PUSH1 0x3 NOT CALLDATASIZE ADD SLT PUSH2 0x2BB JUMPI PUSH2 0xE9E PUSH2 0x2872 JUMP JUMPDEST PUSH1 0x0 DUP1 MLOAD PUSH1 0x20 PUSH2 0x2E35 DUP4 CODECOPY DUP2 MLOAD SWAP2 MSTORE DUP1 SLOAD PUSH1 0x1 PUSH1 0x1 PUSH1 0xA0 SHL SUB NOT DUP2 AND SWAP1 SWAP2 SSTORE PUSH1 0x0 SWAP1 PUSH1 0x1 PUSH1 0x1 PUSH1 0xA0 SHL SUB AND PUSH32 0x8BE0079C531659141344CD1FD0A4F28419497F9722A3DAAFE3B4186F6B6457E0 DUP3 DUP1 LOG3 DUP1 RETURN JUMPDEST POP CALLVALUE PUSH2 0x2BB JUMPI PUSH1 0x20 CALLDATASIZE PUSH1 0x3 NOT ADD SLT PUSH2 0x2BB JUMPI PUSH1 0x20 SWAP1 PUSH1 0x40 SWAP1 PUSH1 0x1 PUSH1 0x1 PUSH1 0xA0 SHL SUB PUSH2 0xF18 PUSH2 0x20DD JUMP JUMPDEST AND DUP2 MSTORE PUSH1 0x0 DUP1 MLOAD PUSH1 0x20 PUSH2 0x2E15 DUP4 CODECOPY DUP2 MLOAD SWAP2 MSTORE DUP4 MSTORE KECCAK256 SLOAD PUSH1 0x40 MLOAD SWAP1 DUP2 MSTORE RETURN JUMPDEST POP CALLVALUE PUSH2 0x2BB JUMPI PUSH1 0x20 DUP1 PUSH1 0x3 NOT CALLDATASIZE ADD SLT PUSH2 0x64F JUMPI PUSH2 0xF51 PUSH2 0x20DD JUMP JUMPDEST SWAP1 PUSH2 0xF5A PUSH2 0x248C JUMP JUMPDEST PUSH2 0xF62 PUSH2 0x24BC JUMP JUMPDEST PUSH2 0xF81 PUSH1 0x3 SLOAD PUSH1 0x1 PUSH1 0x1 PUSH1 0x70 SHL SUB SWAP2 DUP3 DUP3 AND SWAP3 DUP3 PUSH1 0x70 SHR AND SWAP2 PUSH1 0xE0 SHR SWAP1 JUMP JUMPDEST POP SWAP2 SWAP1 SWAP3 PUSH1 0x1 DUP1 PUSH1 0xA0 SHL SUB SWAP3 DUP4 PUSH1 0x1 SLOAD AND SWAP4 PUSH1 0x40 MLOAD DUP5 DUP2 PUSH1 0x24 DUP2 PUSH4 0x70A08231 PUSH1 0xE0 SHL SWAP10 DUP11 DUP3 MSTORE ADDRESS PUSH1 0x4 DUP4 ADD MSTORE GAS STATICCALL SWAP2 DUP3 ISZERO PUSH2 0x11F7 JUMPI DUP6 SWAP2 DUP10 SWAP4 PUSH2 0x11C6 JUMPI JUMPDEST POP PUSH1 0x2 SLOAD AND SWAP6 PUSH1 0x24 PUSH1 0x40 MLOAD DUP1 SWAP9 DUP2 SWAP4 DUP3 MSTORE ADDRESS PUSH1 0x4 DUP4 ADD MSTORE GAS STATICCALL SWAP5 DUP6 ISZERO PUSH2 0x644 JUMPI DUP8 SWAP6 PUSH2 0x1197 JUMPI JUMPDEST POP PUSH1 0x1 PUSH1 0x1 PUSH1 0x70 SHL SUB SWAP2 DUP3 DUP8 AND SWAP7 PUSH2 0xFFE DUP9 DUP5 PUSH2 0x2185 JUMP JUMPDEST SWAP7 DUP5 DUP4 AND SWAP4 PUSH2 0x100D DUP6 DUP4 PUSH2 0x2185 JUMP JUMPDEST SWAP10 PUSH2 0x1018 DUP6 DUP6 PUSH2 0x28B8 JUMP JUMPDEST SWAP6 PUSH1 0x0 DUP1 MLOAD PUSH1 0x20 PUSH2 0x2E55 DUP4 CODECOPY DUP2 MLOAD SWAP2 MSTORE SLOAD SWAP2 DUP3 ISZERO PUSH1 0x0 EQ PUSH2 0x107E JUMPI DUP14 PUSH2 0x1046 PUSH2 0x1041 DUP16 DUP16 PUSH2 0x21A8 JUMP JUMPDEST PUSH2 0x29F8 JUMP JUMPDEST PUSH2 0x3E7 NOT DUP2 ADD GT PUSH2 0x106A JUMPI PUSH1 0x40 MLOAD PUSH4 0xEC442F05 PUSH1 0xE0 SHL DUP2 MSTORE PUSH1 0x0 PUSH1 0x4 DUP3 ADD MSTORE PUSH1 0x24 SWAP1 REVERT JUMPDEST PUSH4 0x4E487B71 PUSH1 0xE0 SHL DUP2 MSTORE PUSH1 0x11 PUSH1 0x4 MSTORE PUSH1 0x24 SWAP1 REVERT JUMPDEST DUP14 SWAP2 PUSH2 0x8EB PUSH2 0x1099 DUP15 SWAP14 SWAP16 SWAP13 SWAP15 SWAP4 PUSH2 0x8EB DUP8 PUSH2 0x10A0 SWAP7 PUSH2 0x21A8 JUMP JUMPDEST SWAP5 DUP13 PUSH2 0x21A8 JUMP JUMPDEST SWAP1 POP DUP1 DUP3 LT ISZERO PUSH2 0x1190 JUMPI POP JUMPDEST SWAP9 DUP10 ISZERO PUSH2 0x1137 JUMPI SWAP1 PUSH2 0x10C4 DUP11 PUSH2 0x10C9 SWAP7 SWAP6 SWAP5 SWAP4 PUSH2 0x2A54 JUMP JUMPDEST PUSH2 0x263F JUMP JUMPDEST PUSH2 0x1119 JUMPI JUMPDEST POP PUSH1 0x40 MLOAD SWAP2 DUP3 MSTORE DUP4 DUP3 ADD MSTORE PUSH32 0x4C209B5FC8AD50758F13E2E1088BA56A560DFF690A1C6FEF26394F4C03821C4F PUSH1 0x40 CALLER SWAP3 LOG2 PUSH1 0x1 PUSH1 0x0 DUP1 MLOAD PUSH1 0x20 PUSH2 0x2E95 DUP4 CODECOPY DUP2 MLOAD SWAP2 MSTORE SSTORE PUSH1 0x40 MLOAD SWAP1 DUP2 MSTORE RETURN JUMPDEST PUSH2 0x112E SWAP1 PUSH1 0x3 SLOAD SWAP1 DUP1 DUP3 PUSH1 0x70 SHR AND SWAP2 AND PUSH2 0x21A8 JUMP JUMPDEST PUSH1 0x6 SSTORE DUP5 PUSH2 0x10CE JUMP JUMPDEST PUSH1 0x40 MLOAD PUSH3 0x461BCD PUSH1 0xE5 SHL DUP2 MSTORE PUSH1 0x4 DUP2 ADD DUP13 SWAP1 MSTORE PUSH1 0x2B PUSH1 0x24 DUP3 ADD MSTORE PUSH32 0x414D4D546F6B656E506169723A20494E53554646494349454E545F4C49515549 PUSH1 0x44 DUP3 ADD MSTORE PUSH11 0x1112551657D35253951151 PUSH1 0xAA SHL PUSH1 0x64 DUP3 ADD MSTORE PUSH1 0x84 SWAP1 REVERT JUMPDEST SWAP1 POP PUSH2 0x10AC JUMP JUMPDEST SWAP1 SWAP5 POP DUP4 DUP2 DUP2 RETURNDATASIZE DUP4 GT PUSH2 0x11BF JUMPI JUMPDEST PUSH2 0x11AF DUP2 DUP4 PUSH2 0x2164 JUMP JUMPDEST DUP2 ADD SUB SLT PUSH2 0x268 JUMPI MLOAD SWAP4 CODESIZE PUSH2 0xFE6 JUMP JUMPDEST POP RETURNDATASIZE PUSH2 0x11A5 JUMP JUMPDEST DUP3 DUP2 SWAP4 SWAP3 SWAP5 POP RETURNDATASIZE DUP4 GT PUSH2 0x11F0 JUMPI JUMPDEST PUSH2 0x11DE DUP2 DUP4 PUSH2 0x2164 JUMP JUMPDEST DUP2 ADD SUB SLT PUSH2 0x268 JUMPI DUP5 SWAP1 MLOAD SWAP2 CODESIZE PUSH2 0xFBF JUMP JUMPDEST POP RETURNDATASIZE PUSH2 0x11D4 JUMP JUMPDEST PUSH1 0x40 MLOAD RETURNDATASIZE DUP11 DUP3 RETURNDATACOPY RETURNDATASIZE SWAP1 REVERT JUMPDEST POP CALLVALUE PUSH2 0x2BB JUMPI DUP1 PUSH1 0x3 NOT CALLDATASIZE ADD SLT PUSH2 0x2BB JUMPI PUSH1 0x20 PUSH1 0xFF PUSH1 0x0 DUP1 MLOAD PUSH1 0x20 PUSH2 0x2E75 DUP4 CODECOPY DUP2 MLOAD SWAP2 MSTORE SLOAD AND PUSH1 0x40 MLOAD SWAP1 ISZERO ISZERO DUP2 MSTORE RETURN JUMPDEST POP CALLVALUE PUSH2 0x2BB JUMPI DUP1 PUSH1 0x3 NOT CALLDATASIZE ADD SLT PUSH2 0x2BB JUMPI PUSH1 0x20 PUSH1 0x5 SLOAD PUSH1 0x40 MLOAD SWAP1 DUP2 MSTORE RETURN JUMPDEST POP CALLVALUE PUSH2 0x2BB JUMPI DUP1 PUSH1 0x3 NOT CALLDATASIZE ADD SLT PUSH2 0x2BB JUMPI PUSH1 0x20 PUSH1 0x4 SLOAD PUSH1 0x40 MLOAD SWAP1 DUP2 MSTORE RETURN JUMPDEST POP CALLVALUE PUSH2 0x2BB JUMPI PUSH1 0x40 CALLDATASIZE PUSH1 0x3 NOT ADD SLT PUSH2 0x2BB JUMPI PUSH2 0x1288 PUSH2 0x20DD JUMP JUMPDEST SWAP1 PUSH2 0x1291 PUSH2 0x20F3 JUMP JUMPDEST PUSH1 0x0 DUP1 MLOAD PUSH1 0x20 PUSH2 0x2EB5 DUP4 CODECOPY DUP2 MLOAD SWAP2 MSTORE SLOAD SWAP1 PUSH1 0x1 PUSH1 0x1 PUSH1 0x40 SHL SUB DUP3 AND DUP1 ISZERO SWAP1 DUP2 PUSH2 0x1742 JUMPI JUMPDEST PUSH1 0x1 EQ SWAP1 DUP2 PUSH2 0x1738 JUMPI JUMPDEST ISZERO SWAP1 DUP2 PUSH2 0x172F JUMPI JUMPDEST POP PUSH2 0x171D JUMPI PUSH1 0x1 PUSH1 0x1 PUSH1 0x1 PUSH1 0x40 SHL SUB NOT DUP4 AND OR PUSH1 0x0 DUP1 MLOAD PUSH1 0x20 PUSH2 0x2EB5 DUP4 CODECOPY DUP2 MLOAD SWAP2 MSTORE SSTORE PUSH1 0xFF DUP3 PUSH1 0x40 SHR AND ISZERO PUSH2 0x16F0 JUMPI JUMPDEST PUSH2 0x12FF PUSH2 0x23A0 JUMP JUMPDEST SWAP4 PUSH2 0x1308 PUSH2 0x23A0 JUMP JUMPDEST SWAP5 PUSH2 0x1311 PUSH2 0x2BED JUMP JUMPDEST PUSH2 0x1319 PUSH2 0x2BED JUMP JUMPDEST DUP1 MLOAD PUSH1 0x1 PUSH1 0x1 PUSH1 0x40 SHL SUB DUP2 GT PUSH2 0x15C5 JUMPI DUP1 PUSH2 0x1342 PUSH1 0x0 DUP1 MLOAD PUSH1 0x20 PUSH2 0x2DF5 DUP4 CODECOPY DUP2 MLOAD SWAP2 MSTORE SLOAD PUSH2 0x21BB JUMP JUMPDEST SWAP3 PUSH1 0x1F SWAP4 DUP5 DUP2 GT PUSH2 0x166F JUMPI JUMPDEST POP PUSH1 0x20 SWAP1 DUP5 DUP4 GT PUSH1 0x1 EQ PUSH2 0x15E4 JUMPI DUP9 SWAP3 PUSH2 0x15D9 JUMPI JUMPDEST POP POP DUP2 PUSH1 0x1 SHL SWAP2 PUSH1 0x0 NOT SWAP1 PUSH1 0x3 SHL SHR NOT AND OR PUSH1 0x0 DUP1 MLOAD PUSH1 0x20 PUSH2 0x2DF5 DUP4 CODECOPY DUP2 MLOAD SWAP2 MSTORE SSTORE JUMPDEST DUP6 MLOAD PUSH1 0x1 PUSH1 0x1 PUSH1 0x40 SHL SUB DUP2 GT PUSH2 0x15C5 JUMPI PUSH32 0x52C63247E1F47DB19D5CE0460030C497F067CA4CEBF71BA98EEADABE20BACE04 SWAP2 PUSH2 0x13C2 DUP4 SLOAD PUSH2 0x21BB JUMP JUMPDEST DUP2 DUP2 GT PUSH2 0x1566 JUMPI JUMPDEST POP PUSH1 0x20 SWAP1 DUP3 GT PUSH1 0x1 EQ PUSH2 0x14E3 JUMPI DUP2 SWAP1 DUP8 SWAP9 PUSH1 0xFF SWAP9 SWAP3 PUSH2 0x14D8 JUMPI JUMPDEST POP POP DUP2 PUSH1 0x1 SHL SWAP2 PUSH1 0x0 NOT SWAP1 PUSH1 0x3 SHL SHR NOT AND OR SWAP1 SSTORE JUMPDEST PUSH2 0x1401 PUSH2 0x2BED JUMP JUMPDEST PUSH2 0x1409 PUSH2 0x2BED JUMP JUMPDEST PUSH1 0x1 PUSH1 0x0 DUP1 MLOAD PUSH1 0x20 PUSH2 0x2E95 DUP4 CODECOPY DUP2 MLOAD SWAP2 MSTORE SSTORE PUSH2 0x1423 PUSH2 0x2BED JUMP JUMPDEST PUSH2 0x142B PUSH2 0x2BED JUMP JUMPDEST PUSH2 0x1433 PUSH2 0x2BED JUMP JUMPDEST PUSH2 0x143C CALLER PUSH2 0x2418 JUMP JUMPDEST PUSH12 0xFFFFFFFFFFFFFFFFFFFFFFFF PUSH1 0xA0 SHL SWAP2 CALLER DUP4 DUP8 SLOAD AND OR DUP7 SSTORE PUSH1 0x1 DUP1 PUSH1 0xA0 SHL SUB DUP1 SWAP3 AND DUP4 PUSH1 0x1 SLOAD AND OR PUSH1 0x1 SSTORE AND SWAP1 PUSH1 0x2 SLOAD AND OR PUSH1 0x2 SSTORE PUSH1 0x40 SHR AND ISZERO PUSH2 0x147E JUMPI DUP1 RETURN JUMPDEST PUSH9 0xFF0000000000000000 NOT PUSH1 0x0 DUP1 MLOAD PUSH1 0x20 PUSH2 0x2EB5 DUP4 CODECOPY DUP2 MLOAD SWAP2 MSTORE SLOAD AND PUSH1 0x0 DUP1 MLOAD PUSH1 0x20 PUSH2 0x2EB5 DUP4 CODECOPY DUP2 MLOAD SWAP2 MSTORE SSTORE PUSH32 0xC7F505B2F371AE2175EE4913F4499E1F2633A7B5936321EED1CDAEB6115181D2 PUSH1 0x20 PUSH1 0x40 MLOAD PUSH1 0x1 DUP2 MSTORE LOG1 DUP1 RETURN JUMPDEST ADD MLOAD SWAP1 POP CODESIZE DUP1 PUSH2 0x13E4 JUMP JUMPDEST DUP3 DUP8 MSTORE PUSH32 0x46A2803E59A4DE4E7A4C574B1243F25977AC4C77D5A1A4A609B5394CEBB4A2AA SWAP8 PUSH1 0x1F NOT DUP4 AND DUP9 JUMPDEST DUP2 DUP2 LT PUSH2 0x154E JUMPI POP SWAP2 PUSH1 0xFF SWAP9 SWAP10 SWAP2 DUP5 PUSH1 0x1 SWAP6 SWAP5 LT PUSH2 0x1535 JUMPI JUMPDEST POP POP POP DUP2 SHL ADD SWAP1 SSTORE PUSH2 0x13F9 JUMP JUMPDEST ADD MLOAD PUSH1 0x0 NOT PUSH1 0xF8 DUP5 PUSH1 0x3 SHL AND SHR NOT AND SWAP1 SSTORE CODESIZE DUP1 DUP1 PUSH2 0x1528 JUMP JUMPDEST DUP4 DUP4 ADD MLOAD DUP12 SSTORE PUSH1 0x1 SWAP1 SWAP11 ADD SWAP10 PUSH1 0x20 SWAP4 DUP5 ADD SWAP4 ADD PUSH2 0x150F JUMP JUMPDEST DUP4 DUP9 MSTORE PUSH32 0x46A2803E59A4DE4E7A4C574B1243F25977AC4C77D5A1A4A609B5394CEBB4A2AA DUP3 DUP1 DUP6 ADD PUSH1 0x5 SHR DUP3 ADD SWAP3 PUSH1 0x20 DUP7 LT PUSH2 0x15BC JUMPI JUMPDEST ADD PUSH1 0x5 SHR ADD SWAP1 JUMPDEST DUP2 DUP2 LT PUSH2 0x15B1 JUMPI POP PUSH2 0x13CA JUMP JUMPDEST DUP9 DUP2 SSTORE PUSH1 0x1 ADD PUSH2 0x15A4 JUMP JUMPDEST SWAP3 POP DUP2 SWAP3 PUSH2 0x159D JUMP JUMPDEST PUSH4 0x4E487B71 PUSH1 0xE0 SHL DUP7 MSTORE PUSH1 0x41 PUSH1 0x4 MSTORE PUSH1 0x24 DUP7 REVERT JUMPDEST ADD MLOAD SWAP1 POP CODESIZE DUP1 PUSH2 0x1363 JUMP JUMPDEST PUSH1 0x0 DUP1 MLOAD PUSH1 0x20 PUSH2 0x2DF5 DUP4 CODECOPY DUP2 MLOAD SWAP2 MSTORE DUP10 MSTORE PUSH1 0x0 DUP1 MLOAD PUSH1 0x20 PUSH2 0x2DD5 DUP4 CODECOPY DUP2 MLOAD SWAP2 MSTORE SWAP3 POP PUSH1 0x1F NOT DUP5 AND DUP10 JUMPDEST DUP2 DUP2 LT PUSH2 0x1657 JUMPI POP SWAP1 DUP5 PUSH1 0x1 SWAP6 SWAP5 SWAP4 SWAP3 LT PUSH2 0x163E JUMPI JUMPDEST POP POP POP DUP2 SHL ADD PUSH1 0x0 DUP1 MLOAD PUSH1 0x20 PUSH2 0x2DF5 DUP4 CODECOPY DUP2 MLOAD SWAP2 MSTORE SSTORE PUSH2 0x1386 JUMP JUMPDEST ADD MLOAD PUSH1 0x0 NOT PUSH1 0xF8 DUP5 PUSH1 0x3 SHL AND SHR NOT AND SWAP1 SSTORE CODESIZE DUP1 DUP1 PUSH2 0x1623 JUMP JUMPDEST SWAP3 SWAP4 PUSH1 0x20 PUSH1 0x1 DUP2 SWAP3 DUP8 DUP7 ADD MLOAD DUP2 SSTORE ADD SWAP6 ADD SWAP4 ADD PUSH2 0x160D JUMP JUMPDEST SWAP1 SWAP2 POP PUSH1 0x0 DUP1 MLOAD PUSH1 0x20 PUSH2 0x2DF5 DUP4 CODECOPY DUP2 MLOAD SWAP2 MSTORE DUP9 MSTORE DUP4 DUP1 DUP5 ADD PUSH1 0x5 SHR PUSH1 0x0 DUP1 MLOAD PUSH1 0x20 PUSH2 0x2DD5 DUP4 CODECOPY DUP2 MLOAD SWAP2 MSTORE ADD SWAP2 PUSH1 0x20 DUP6 LT PUSH2 0x16DA JUMPI JUMPDEST SWAP1 DUP5 SWAP4 SWAP3 SWAP2 ADD PUSH1 0x5 SHR PUSH1 0x0 DUP1 MLOAD PUSH1 0x20 PUSH2 0x2DD5 DUP4 CODECOPY DUP2 MLOAD SWAP2 MSTORE ADD SWAP1 JUMPDEST DUP2 DUP2 LT PUSH2 0x16CC JUMPI POP PUSH2 0x134E JUMP JUMPDEST DUP10 DUP2 SSTORE DUP5 SWAP4 POP PUSH1 0x1 ADD PUSH2 0x16BF JUMP JUMPDEST PUSH1 0x0 DUP1 MLOAD PUSH1 0x20 PUSH2 0x2DD5 DUP4 CODECOPY DUP2 MLOAD SWAP2 MSTORE SWAP3 POP PUSH2 0x16A4 JUMP JUMPDEST PUSH9 0xFFFFFFFFFFFFFFFFFF NOT DUP3 AND PUSH9 0x10000000000000001 OR PUSH1 0x0 DUP1 MLOAD PUSH1 0x20 PUSH2 0x2EB5 DUP4 CODECOPY DUP2 MLOAD SWAP2 MSTORE SSTORE PUSH2 0x12F7 JUMP JUMPDEST PUSH1 0x40 MLOAD PUSH4 0xF92EE8A9 PUSH1 0xE0 SHL DUP2 MSTORE PUSH1 0x4 SWAP1 REVERT JUMPDEST SWAP1 POP ISZERO CODESIZE PUSH2 0x12C7 JUMP JUMPDEST ADDRESS EXTCODESIZE ISZERO SWAP2 POP PUSH2 0x12BF JUMP JUMPDEST PUSH1 0x40 DUP5 SWAP1 SHR PUSH1 0xFF AND ISZERO SWAP2 POP PUSH2 0x12B5 JUMP JUMPDEST POP CALLVALUE PUSH2 0x2BB JUMPI DUP1 PUSH1 0x3 NOT CALLDATASIZE ADD SLT PUSH2 0x2BB JUMPI PUSH2 0x176B PUSH2 0x2872 JUMP JUMPDEST PUSH1 0x0 DUP1 MLOAD PUSH1 0x20 PUSH2 0x2E75 DUP4 CODECOPY DUP2 MLOAD SWAP2 MSTORE DUP1 SLOAD PUSH1 0xFF DUP2 AND ISZERO PUSH2 0x17B8 JUMPI PUSH1 0xFF NOT AND SWAP1 SSTORE PUSH32 0x5DB9EE0A495BF2E6FF9C91A7834C1BA4FDD244A5E8AA4E537BD38AEAE4B073AA PUSH1 0x20 PUSH1 0x40 MLOAD CALLER DUP2 MSTORE LOG1 DUP1 RETURN JUMPDEST PUSH1 0x40 MLOAD PUSH4 0x8DFC202B PUSH1 0xE0 SHL DUP2 MSTORE PUSH1 0x4 SWAP1 REVERT JUMPDEST POP CALLVALUE PUSH2 0x2BB JUMPI DUP1 PUSH1 0x3 NOT CALLDATASIZE ADD SLT PUSH2 0x2BB JUMPI PUSH1 0x20 PUSH2 0x17E5 PUSH2 0x2B78 JUMP JUMPDEST PUSH1 0x40 MLOAD SWAP1 DUP2 MSTORE RETURN JUMPDEST POP CALLVALUE PUSH2 0x2BB JUMPI DUP1 PUSH1 0x3 NOT CALLDATASIZE ADD SLT PUSH2 0x2BB JUMPI PUSH1 0x20 PUSH1 0x40 MLOAD PUSH1 0x12 DUP2 MSTORE RETURN JUMPDEST POP CALLVALUE PUSH2 0x2BB JUMPI PUSH1 0x60 CALLDATASIZE PUSH1 0x3 NOT ADD SLT PUSH2 0x2BB JUMPI PUSH2 0x1823 PUSH2 0x20DD JUMP JUMPDEST PUSH2 0x182B PUSH2 0x20F3 JUMP JUMPDEST PUSH1 0x44 CALLDATALOAD SWAP1 PUSH2 0x1838 DUP4 PUSH2 0x23DF JUMP JUMPDEST CALLER PUSH1 0x0 MSTORE PUSH1 0x20 MSTORE PUSH1 0x40 PUSH1 0x0 KECCAK256 SLOAD SWAP3 PUSH1 0x0 NOT DUP5 LT PUSH2 0x185A JUMPI JUMPDEST PUSH2 0x697 SWAP4 POP PUSH2 0x2784 JUMP JUMPDEST DUP3 DUP5 LT PUSH2 0x18C9 JUMPI PUSH1 0x1 PUSH1 0x1 PUSH1 0xA0 SHL SUB DUP2 AND ISZERO PUSH2 0x18B0 JUMPI CALLER ISZERO PUSH2 0x1897 JUMPI DUP3 PUSH2 0x697 SWAP5 PUSH2 0x1884 DUP4 PUSH2 0x23DF JUMP JUMPDEST CALLER PUSH1 0x0 MSTORE PUSH1 0x20 MSTORE SUB PUSH1 0x40 PUSH1 0x0 KECCAK256 SSTORE PUSH2 0x1850 JUMP JUMPDEST PUSH1 0x40 MLOAD PUSH4 0x4A1406B1 PUSH1 0xE1 SHL DUP2 MSTORE PUSH1 0x0 PUSH1 0x4 DUP3 ADD MSTORE PUSH1 0x24 SWAP1 REVERT JUMPDEST PUSH1 0x40 MLOAD PUSH4 0xE602DF05 PUSH1 0xE0 SHL DUP2 MSTORE PUSH1 0x0 PUSH1 0x4 DUP3 ADD MSTORE PUSH1 0x24 SWAP1 REVERT JUMPDEST PUSH1 0x40 MLOAD PUSH4 0x7DC7A0D9 PUSH1 0xE1 SHL DUP2 MSTORE CALLER PUSH1 0x4 DUP3 ADD MSTORE PUSH1 0x24 DUP2 ADD DUP6 SWAP1 MSTORE PUSH1 0x44 DUP2 ADD DUP5 SWAP1 MSTORE PUSH1 0x64 SWAP1 REVERT JUMPDEST POP CALLVALUE PUSH2 0x2BB JUMPI DUP1 PUSH1 0x3 NOT CALLDATASIZE ADD SLT PUSH2 0x2BB JUMPI PUSH1 0x20 PUSH1 0x0 DUP1 MLOAD PUSH1 0x20 PUSH2 0x2E55 DUP4 CODECOPY DUP2 MLOAD SWAP2 MSTORE SLOAD PUSH1 0x40 MLOAD SWAP1 DUP2 MSTORE RETURN JUMPDEST POP CALLVALUE PUSH2 0x2BB JUMPI DUP1 PUSH1 0x3 NOT CALLDATASIZE ADD SLT PUSH2 0x2BB JUMPI PUSH1 0x1 SLOAD PUSH1 0x40 MLOAD PUSH1 0x1 PUSH1 0x1 PUSH1 0xA0 SHL SUB SWAP1 SWAP2 AND DUP2 MSTORE PUSH1 0x20 SWAP1 RETURN JUMPDEST POP CALLVALUE PUSH2 0x2BB JUMPI PUSH1 0x40 CALLDATASIZE PUSH1 0x3 NOT ADD SLT PUSH2 0x2BB JUMPI PUSH2 0x697 PUSH2 0x1960 PUSH2 0x20DD JUMP JUMPDEST PUSH1 0x24 CALLDATALOAD SWAP1 CALLER PUSH2 0x2B1A JUMP JUMPDEST POP CALLVALUE PUSH2 0x2BB JUMPI DUP1 PUSH1 0x3 NOT CALLDATASIZE ADD SLT PUSH2 0x2BB JUMPI PUSH1 0x60 PUSH4 0xFFFFFFFF PUSH2 0x19A1 PUSH1 0x3 SLOAD PUSH1 0x1 PUSH1 0x1 PUSH1 0x70 SHL SUB SWAP2 DUP3 DUP3 AND SWAP3 DUP3 PUSH1 0x70 SHR AND SWAP2 PUSH1 0xE0 SHR SWAP1 JUMP JUMPDEST SWAP1 SWAP3 SWAP2 PUSH1 0x40 MLOAD SWAP4 PUSH1 0x1 PUSH1 0x1 PUSH1 0x70 SHL SUB DUP1 SWAP3 AND DUP6 MSTORE AND PUSH1 0x20 DUP5 ADD MSTORE AND PUSH1 0x40 DUP3 ADD MSTORE RETURN JUMPDEST POP CALLVALUE PUSH2 0x2BB JUMPI DUP1 PUSH1 0x3 NOT CALLDATASIZE ADD SLT PUSH2 0x2BB JUMPI PUSH1 0x40 MLOAD PUSH1 0x0 DUP1 MLOAD PUSH1 0x20 PUSH2 0x2DF5 DUP4 CODECOPY DUP2 MLOAD SWAP2 MSTORE DUP1 SLOAD DUP3 PUSH1 0x0 PUSH2 0x19F4 DUP4 PUSH2 0x21BB JUMP JUMPDEST SWAP3 DUP4 DUP4 MSTORE PUSH1 0x20 SWAP5 PUSH1 0x1 SWAP2 DUP7 PUSH1 0x1 DUP3 AND SWAP2 DUP3 PUSH1 0x0 EQ PUSH2 0x789 JUMPI POP POP PUSH1 0x1 EQ PUSH2 0x1A23 JUMPI POP POP PUSH2 0x715 SWAP3 POP SUB DUP4 PUSH2 0x2164 JUMP JUMPDEST DUP6 SWAP3 POP PUSH1 0x0 MSTORE PUSH1 0x0 DUP1 MLOAD PUSH1 0x20 PUSH2 0x2DD5 DUP4 CODECOPY DUP2 MLOAD SWAP2 MSTORE SWAP1 PUSH1 0x0 SWAP2 JUMPDEST DUP6 DUP4 LT PUSH2 0x1A55 JUMPI POP POP PUSH2 0x715 SWAP4 POP DUP3 ADD ADD DUP6 DUP1 PUSH2 0x707 JUMP JUMPDEST DUP1 SLOAD DUP4 DUP10 ADD DUP6 ADD MSTORE DUP8 SWAP5 POP DUP7 SWAP4 SWAP1 SWAP3 ADD SWAP2 DUP2 ADD PUSH2 0x1A3D JUMP JUMPDEST POP CALLVALUE PUSH2 0x2BB JUMPI PUSH1 0x80 CALLDATASIZE PUSH1 0x3 NOT ADD SLT PUSH2 0x2BB JUMPI PUSH1 0x44 CALLDATALOAD PUSH1 0x1 PUSH1 0x1 PUSH1 0xA0 SHL SUB DUP2 AND SWAP1 SUB PUSH2 0x2BB JUMPI PUSH1 0x1 PUSH1 0x1 PUSH1 0x40 SHL SUB PUSH1 0x64 CALLDATALOAD GT PUSH2 0x2BB JUMPI CALLDATASIZE PUSH1 0x23 PUSH1 0x64 CALLDATALOAD ADD SLT ISZERO PUSH2 0x2BB JUMPI PUSH1 0x1 PUSH1 0x1 PUSH1 0x40 SHL SUB PUSH1 0x64 CALLDATALOAD PUSH1 0x4 ADD CALLDATALOAD GT PUSH2 0x2BB JUMPI CALLDATASIZE PUSH1 0x24 PUSH1 0x64 CALLDATALOAD PUSH1 0x4 ADD CALLDATALOAD PUSH1 0x64 CALLDATALOAD ADD ADD GT PUSH2 0x2BB JUMPI PUSH2 0x1ADF PUSH2 0x248C JUMP JUMPDEST PUSH2 0x1AE7 PUSH2 0x24BC JUMP JUMPDEST PUSH1 0x4 CALLDATALOAD ISZERO DUP1 ISZERO DUP1 SWAP2 PUSH2 0x20D2 JUMPI JUMPDEST ISZERO PUSH2 0x207C JUMPI PUSH2 0x1B18 PUSH1 0x3 SLOAD PUSH1 0x1 PUSH1 0x1 PUSH1 0x70 SHL SUB SWAP2 DUP3 DUP3 AND SWAP3 DUP3 PUSH1 0x70 SHR AND SWAP2 PUSH1 0xE0 SHR SWAP1 JUMP JUMPDEST POP PUSH1 0x1 PUSH1 0x1 PUSH1 0x70 SHL SUB DUP3 SWAP4 SWAP3 AND PUSH1 0x4 CALLDATALOAD LT DUP1 PUSH2 0x2068 JUMPI JUMPDEST ISZERO PUSH2 0x2017 JUMPI PUSH1 0x1 SLOAD PUSH1 0x2 SLOAD PUSH1 0x1 PUSH1 0x1 PUSH1 0xA0 SHL SUB SWAP1 DUP2 AND SWAP4 SWAP2 DUP2 AND SWAP2 SWAP1 PUSH1 0x44 CALLDATALOAD AND DUP3 EQ ISZERO DUP1 PUSH2 0x2002 JUMPI JUMPDEST ISZERO PUSH2 0x1FBD JUMPI PUSH2 0x1FA9 JUMPI JUMPDEST PUSH1 0x24 CALLDATALOAD PUSH2 0x1F95 JUMPI JUMPDEST PUSH1 0x64 CALLDATALOAD PUSH1 0x4 ADD CALLDATALOAD PUSH2 0x1EC6 JUMPI JUMPDEST SWAP1 PUSH1 0x20 PUSH1 0x24 SWAP3 PUSH1 0x40 MLOAD SWAP4 DUP5 DUP1 SWAP3 PUSH4 0x70A08231 PUSH1 0xE0 SHL DUP3 MSTORE ADDRESS PUSH1 0x4 DUP4 ADD MSTORE GAS STATICCALL SWAP2 DUP3 ISZERO PUSH2 0x2B0 JUMPI DUP6 SWAP3 PUSH2 0x1E8F JUMPI JUMPDEST POP PUSH1 0x20 PUSH1 0x24 SWAP4 PUSH1 0x40 MLOAD SWAP5 DUP6 DUP1 SWAP3 PUSH4 0x70A08231 PUSH1 0xE0 SHL DUP3 MSTORE ADDRESS PUSH1 0x4 DUP4 ADD MSTORE GAS STATICCALL SWAP3 DUP4 ISZERO PUSH2 0x2B0 JUMPI DUP6 SWAP4 PUSH2 0x1E5B JUMPI JUMPDEST POP PUSH2 0x1BE6 PUSH1 0x4 CALLDATALOAD PUSH1 0x1 PUSH1 0x1 PUSH1 0x70 SHL SUB DUP7 AND PUSH2 0x2185 JUMP JUMPDEST DUP3 GT ISZERO PUSH2 0x1E54 JUMPI PUSH2 0x1C0B PUSH2 0x1C05 PUSH1 0x4 CALLDATALOAD PUSH1 0x1 PUSH1 0x1 PUSH1 0x70 SHL SUB DUP8 AND PUSH2 0x2185 JUMP JUMPDEST DUP4 PUSH2 0x2185 JUMP JUMPDEST SWAP4 JUMPDEST PUSH2 0x1C22 PUSH1 0x24 CALLDATALOAD PUSH1 0x1 PUSH1 0x1 PUSH1 0x70 SHL SUB DUP5 AND PUSH2 0x2185 JUMP JUMPDEST DUP5 GT ISZERO PUSH2 0x1E4D JUMPI PUSH2 0x1C47 PUSH2 0x1C41 PUSH1 0x24 CALLDATALOAD PUSH1 0x1 PUSH1 0x1 PUSH1 0x70 SHL SUB DUP6 AND PUSH2 0x2185 JUMP JUMPDEST DUP6 PUSH2 0x2185 JUMP JUMPDEST SWAP4 JUMPDEST DUP6 ISZERO ISZERO DUP7 ISZERO PUSH2 0x1E44 JUMPI JUMPDEST ISZERO PUSH2 0x1DEF JUMPI DUP4 PUSH2 0x3E8 DUP2 MUL DIV PUSH2 0x3E8 EQ DUP5 ISZERO OR ISZERO PUSH2 0x1DDB JUMPI PUSH1 0x3 DUP7 MUL DUP7 DUP2 DIV PUSH1 0x3 EQ DUP8 ISZERO OR ISZERO PUSH2 0x1DC7 JUMPI PUSH2 0x1C8B SWAP1 PUSH2 0x3E8 DUP7 MUL PUSH2 0x2185 JUMP JUMPDEST PUSH2 0x3E8 DUP3 MUL DUP3 DUP2 DIV PUSH2 0x3E8 EQ DUP4 ISZERO OR ISZERO PUSH2 0x1D9F JUMPI PUSH1 0x3 DUP8 MUL SWAP1 DUP8 DUP3 DIV PUSH1 0x3 EQ DUP9 ISZERO OR ISZERO PUSH2 0x1DB3 JUMPI PUSH2 0x1CC6 SWAP3 SWAP2 PUSH2 0x1CC0 SWAP2 PUSH2 0x2185 JUMP JUMPDEST SWAP1 PUSH2 0x21A8 JUMP JUMPDEST PUSH2 0x1CE2 PUSH1 0x1 PUSH1 0x1 PUSH1 0x70 SHL SUB DUP6 AND PUSH1 0x1 PUSH1 0x1 PUSH1 0x70 SHL SUB DUP6 AND PUSH2 0x21A8 JUMP JUMPDEST SWAP1 PUSH3 0xF4240 SWAP2 DUP3 DUP2 MUL SWAP3 DUP2 DUP5 DIV EQ SWAP1 ISZERO OR ISZERO PUSH2 0x1D9F JUMPI LT PUSH2 0x1D68 JUMPI PUSH2 0x1D06 SWAP4 PUSH2 0x263F JUMP JUMPDEST PUSH1 0x40 MLOAD SWAP2 DUP3 MSTORE PUSH1 0x20 DUP3 ADD MSTORE PUSH1 0x4 CALLDATALOAD PUSH1 0x40 DUP3 ADD MSTORE PUSH1 0x24 CALLDATALOAD PUSH1 0x60 DUP3 ADD MSTORE PUSH1 0x1 DUP1 PUSH1 0xA0 SHL SUB PUSH1 0x44 CALLDATALOAD AND SWAP1 PUSH32 0xD78AD95FA46C994B6551D0DA85FC275FE613CE37657FB8D5E3D130840159D822 PUSH1 0x80 CALLER SWAP3 LOG3 PUSH1 0x1 PUSH1 0x0 DUP1 MLOAD PUSH1 0x20 PUSH2 0x2E95 DUP4 CODECOPY DUP2 MLOAD SWAP2 MSTORE SSTORE DUP1 RETURN JUMPDEST PUSH1 0x40 MLOAD PUSH3 0x461BCD PUSH1 0xE5 SHL DUP2 MSTORE PUSH1 0x20 PUSH1 0x4 DUP3 ADD MSTORE PUSH1 0xF PUSH1 0x24 DUP3 ADD MSTORE PUSH15 0x414D4D546F6B656E506169723A204B PUSH1 0x88 SHL PUSH1 0x44 DUP3 ADD MSTORE PUSH1 0x64 SWAP1 REVERT JUMPDEST PUSH4 0x4E487B71 PUSH1 0xE0 SHL DUP10 MSTORE PUSH1 0x11 PUSH1 0x4 MSTORE PUSH1 0x24 DUP10 REVERT JUMPDEST PUSH4 0x4E487B71 PUSH1 0xE0 SHL DUP11 MSTORE PUSH1 0x11 PUSH1 0x4 MSTORE PUSH1 0x24 DUP11 REVERT JUMPDEST PUSH4 0x4E487B71 PUSH1 0xE0 SHL DUP9 MSTORE PUSH1 0x11 PUSH1 0x4 MSTORE PUSH1 0x24 DUP9 REVERT JUMPDEST PUSH4 0x4E487B71 PUSH1 0xE0 SHL DUP8 MSTORE PUSH1 0x11 PUSH1 0x4 MSTORE PUSH1 0x24 DUP8 REVERT JUMPDEST PUSH1 0x40 MLOAD PUSH3 0x461BCD PUSH1 0xE5 SHL DUP2 MSTORE PUSH1 0x20 PUSH1 0x4 DUP3 ADD MSTORE PUSH1 0x27 PUSH1 0x24 DUP3 ADD MSTORE PUSH32 0x414D4D546F6B656E506169723A20494E53554646494349454E545F494E505554 PUSH1 0x44 DUP3 ADD MSTORE PUSH7 0x17D05353D55395 PUSH1 0xCA SHL PUSH1 0x64 DUP3 ADD MSTORE PUSH1 0x84 SWAP1 REVERT JUMPDEST POP DUP5 ISZERO ISZERO PUSH2 0x1C53 JUMP JUMPDEST DUP6 SWAP4 PUSH2 0x1C49 JUMP JUMPDEST DUP5 SWAP4 PUSH2 0x1C0D JUMP JUMPDEST SWAP1 SWAP3 POP PUSH1 0x20 DUP2 RETURNDATASIZE PUSH1 0x20 GT PUSH2 0x1E87 JUMPI JUMPDEST DUP2 PUSH2 0x1E77 PUSH1 0x20 SWAP4 DUP4 PUSH2 0x2164 JUMP JUMPDEST DUP2 ADD SUB SLT PUSH2 0x268 JUMPI MLOAD SWAP2 CODESIZE PUSH2 0x1BD0 JUMP JUMPDEST RETURNDATASIZE SWAP2 POP PUSH2 0x1E6A JUMP JUMPDEST SWAP3 SWAP2 POP PUSH1 0x20 DUP4 RETURNDATASIZE PUSH1 0x20 GT PUSH2 0x1EBE JUMPI JUMPDEST DUP2 PUSH2 0x1EAB PUSH1 0x20 SWAP4 DUP4 PUSH2 0x2164 JUMP JUMPDEST DUP2 ADD SUB SLT PUSH2 0x268 JUMPI SWAP2 MLOAD SWAP1 SWAP2 PUSH1 0x20 PUSH2 0x1BA3 JUMP JUMPDEST RETURNDATASIZE SWAP2 POP PUSH2 0x1E9E JUMP JUMPDEST PUSH1 0x44 CALLDATALOAD PUSH1 0x1 PUSH1 0x1 PUSH1 0xA0 SHL SUB AND EXTCODESIZE ISZERO PUSH2 0x4C1 JUMPI PUSH1 0x40 MLOAD PUSH4 0x5FEA11F7 PUSH1 0xE0 SHL DUP2 MSTORE CALLER PUSH1 0x4 DUP3 ADD MSTORE PUSH1 0x4 CALLDATALOAD PUSH1 0x24 DUP3 ADD MSTORE PUSH1 0x24 CALLDATALOAD PUSH1 0x44 DUP3 ADD MSTORE PUSH1 0x80 PUSH1 0x64 DUP3 ADD MSTORE PUSH1 0x64 CALLDATALOAD PUSH1 0x4 ADD CALLDATALOAD PUSH1 0x84 DUP3 ADD MSTORE PUSH1 0x64 CALLDATALOAD PUSH1 0x4 ADD CALLDATALOAD PUSH1 0x24 PUSH1 0x64 CALLDATALOAD ADD PUSH1 0xA4 DUP4 ADD CALLDATACOPY PUSH1 0xA4 PUSH1 0x64 CALLDATALOAD PUSH1 0x4 ADD CALLDATALOAD DUP3 DUP2 ADD DUP3 ADD DUP9 SWAP1 MSTORE DUP8 SWAP2 DUP4 SWAP2 PUSH1 0x1F NOT PUSH1 0x1F SWAP1 SWAP2 ADD AND DUP3 ADD DUP3 SWAP1 SUB ADD DUP2 DUP4 PUSH1 0x1 PUSH1 0x1 PUSH1 0xA0 SHL SUB PUSH1 0x44 CALLDATALOAD AND GAS CALL DUP1 ISZERO PUSH2 0x608 JUMPI PUSH2 0x1F65 JUMPI JUMPDEST POP PUSH2 0x1B76 JUMP JUMPDEST PUSH1 0x1 PUSH1 0x1 PUSH1 0x40 SHL SUB DUP2 SWAP7 SWAP3 SWAP7 GT PUSH2 0x1F81 JUMPI PUSH1 0x40 MSTORE SWAP4 PUSH1 0x20 PUSH2 0x1F5F JUMP JUMPDEST PUSH4 0x4E487B71 PUSH1 0xE0 SHL DUP3 MSTORE PUSH1 0x41 PUSH1 0x4 MSTORE PUSH1 0x24 DUP3 REVERT JUMPDEST PUSH2 0x1FA4 PUSH1 0x24 CALLDATALOAD PUSH1 0x44 CALLDATALOAD DUP6 PUSH2 0x24E7 JUMP JUMPDEST PUSH2 0x1B6A JUMP JUMPDEST PUSH2 0x1FB8 PUSH1 0x4 CALLDATALOAD PUSH1 0x44 CALLDATALOAD DUP4 PUSH2 0x24E7 JUMP JUMPDEST PUSH2 0x1B62 JUMP JUMPDEST PUSH1 0x40 MLOAD PUSH3 0x461BCD PUSH1 0xE5 SHL DUP2 MSTORE PUSH1 0x20 PUSH1 0x4 DUP3 ADD MSTORE PUSH1 0x18 PUSH1 0x24 DUP3 ADD MSTORE PUSH32 0x414D4D546F6B656E506169723A20494E56414C49445F544F0000000000000000 PUSH1 0x44 DUP3 ADD MSTORE PUSH1 0x64 SWAP1 REVERT JUMPDEST POP PUSH1 0x44 CALLDATALOAD PUSH1 0x1 PUSH1 0x1 PUSH1 0xA0 SHL SUB AND DUP5 EQ ISZERO PUSH2 0x1B58 JUMP JUMPDEST PUSH1 0x40 MLOAD PUSH3 0x461BCD PUSH1 0xE5 SHL DUP2 MSTORE PUSH1 0x20 PUSH1 0x4 DUP3 ADD MSTORE PUSH1 0x24 DUP1 DUP3 ADD MSTORE PUSH32 0x414D4D546F6B656E506169723A20494E53554646494349454E545F4C49515549 PUSH1 0x44 DUP3 ADD MSTORE PUSH4 0x44495459 PUSH1 0xE0 SHL PUSH1 0x64 DUP3 ADD MSTORE PUSH1 0x84 SWAP1 REVERT JUMPDEST POP PUSH1 0x1 PUSH1 0x1 PUSH1 0x70 SHL SUB DUP2 AND PUSH1 0x24 CALLDATALOAD LT PUSH2 0x1B2F JUMP JUMPDEST PUSH1 0x40 MLOAD PUSH3 0x461BCD PUSH1 0xE5 SHL DUP2 MSTORE PUSH1 0x20 PUSH1 0x4 DUP3 ADD MSTORE PUSH1 0x28 PUSH1 0x24 DUP3 ADD MSTORE PUSH32 0x414D4D546F6B656E506169723A20494E53554646494349454E545F4F55545055 PUSH1 0x44 DUP3 ADD MSTORE PUSH8 0x1517D05353D55395 PUSH1 0xC2 SHL PUSH1 0x64 DUP3 ADD MSTORE PUSH1 0x84 SWAP1 REVERT JUMPDEST POP PUSH1 0x24 CALLDATALOAD ISZERO ISZERO PUSH2 0x1AF4 JUMP JUMPDEST PUSH1 0x4 CALLDATALOAD SWAP1 PUSH1 0x1 PUSH1 0x1 PUSH1 0xA0 SHL SUB DUP3 AND DUP3 SUB PUSH2 0x268 JUMPI JUMP JUMPDEST PUSH1 0x24 CALLDATALOAD SWAP1 PUSH1 0x1 PUSH1 0x1 PUSH1 0xA0 SHL SUB DUP3 AND DUP3 SUB PUSH2 0x268 JUMPI JUMP JUMPDEST SWAP2 SWAP1 DUP3 MLOAD SWAP3 DUP4 DUP3 MSTORE PUSH1 0x0 JUMPDEST DUP5 DUP2 LT PUSH2 0x2135 JUMPI POP POP DUP3 PUSH1 0x0 PUSH1 0x20 DUP1 SWAP5 SWAP6 DUP5 ADD ADD MSTORE PUSH1 0x1F DUP1 NOT SWAP2 ADD AND ADD ADD SWAP1 JUMP JUMPDEST PUSH1 0x20 DUP2 DUP4 ADD DUP2 ADD MLOAD DUP5 DUP4 ADD DUP3 ADD MSTORE ADD PUSH2 0x2114 JUMP JUMPDEST PUSH1 0x40 DUP2 ADD SWAP1 DUP2 LT PUSH1 0x1 PUSH1 0x1 PUSH1 0x40 SHL SUB DUP3 GT OR PUSH2 0x493 JUMPI PUSH1 0x40 MSTORE JUMP JUMPDEST SWAP1 PUSH1 0x1F DUP1 NOT SWAP2 ADD AND DUP2 ADD SWAP1 DUP2 LT PUSH1 0x1 PUSH1 0x1 PUSH1 0x40 SHL SUB DUP3 GT OR PUSH2 0x493 JUMPI PUSH1 0x40 MSTORE JUMP JUMPDEST SWAP2 SWAP1 DUP3 SUB SWAP2 DUP3 GT PUSH2 0x2192 JUMPI JUMP JUMPDEST PUSH4 0x4E487B71 PUSH1 0xE0 SHL PUSH1 0x0 MSTORE PUSH1 0x11 PUSH1 0x4 MSTORE PUSH1 0x24 PUSH1 0x0 REVERT JUMPDEST DUP2 DUP2 MUL SWAP3 SWAP2 DUP2 ISZERO SWAP2 DUP5 DIV EQ OR ISZERO PUSH2 0x2192 JUMPI JUMP JUMPDEST SWAP1 PUSH1 0x1 DUP3 DUP2 SHR SWAP3 AND DUP1 ISZERO PUSH2 0x21EB JUMPI JUMPDEST PUSH1 0x20 DUP4 LT EQ PUSH2 0x21D5 JUMPI JUMP JUMPDEST PUSH4 0x4E487B71 PUSH1 0xE0 SHL PUSH1 0x0 MSTORE PUSH1 0x22 PUSH1 0x4 MSTORE PUSH1 0x24 PUSH1 0x0 REVERT JUMPDEST SWAP2 PUSH1 0x7F AND SWAP2 PUSH2 0x21CA JUMP JUMPDEST PUSH1 0x40 MLOAD SWAP1 PUSH1 0x0 DUP3 PUSH32 0xA16A46D94261C7517CC8FF89F61C0CE93598E3C849801011DEE649A6A557D102 SWAP2 DUP3 SLOAD SWAP3 PUSH2 0x222A DUP5 PUSH2 0x21BB JUMP JUMPDEST DUP1 DUP5 MSTORE SWAP4 PUSH1 0x20 SWAP2 PUSH1 0x1 SWAP2 DUP3 DUP2 AND SWAP1 DUP2 ISZERO PUSH2 0x22B9 JUMPI POP PUSH1 0x1 EQ PUSH2 0x2258 JUMPI JUMPDEST POP POP POP PUSH2 0x2256 SWAP3 POP SUB DUP4 PUSH2 0x2164 JUMP JUMPDEST JUMP JUMPDEST PUSH1 0x0 SWAP1 DUP2 MSTORE PUSH32 0x42AD5D3E1F2E6E70EDCF6D991B8A3023D3FCA8047A131592F9EDB9FD9B89D57D SWAP6 SWAP1 SWAP4 POP SWAP2 SWAP1 JUMPDEST DUP3 DUP5 LT PUSH2 0x22A1 JUMPI POP PUSH2 0x2256 SWAP5 POP POP POP DUP2 ADD PUSH1 0x20 ADD CODESIZE DUP1 DUP1 PUSH2 0x2247 JUMP JUMPDEST DUP6 SLOAD DUP9 DUP6 ADD DUP4 ADD MSTORE SWAP5 DUP6 ADD SWAP5 DUP8 SWAP5 POP SWAP3 DUP2 ADD SWAP3 PUSH2 0x2285 JUMP JUMPDEST SWAP3 POP POP POP PUSH1 0x20 SWAP3 POP PUSH2 0x2256 SWAP5 SWAP2 POP PUSH1 0xFF NOT AND DUP3 DUP5 ADD MSTORE ISZERO ISZERO PUSH1 0x5 SHL DUP3 ADD ADD CODESIZE DUP1 DUP1 PUSH2 0x2247 JUMP JUMPDEST PUSH1 0x40 MLOAD SWAP1 PUSH1 0x0 DUP3 PUSH32 0xA16A46D94261C7517CC8FF89F61C0CE93598E3C849801011DEE649A6A557D103 SWAP2 DUP3 SLOAD SWAP3 PUSH2 0x2314 DUP5 PUSH2 0x21BB JUMP JUMPDEST DUP1 DUP5 MSTORE SWAP4 PUSH1 0x20 SWAP2 PUSH1 0x1 SWAP2 DUP3 DUP2 AND SWAP1 DUP2 ISZERO PUSH2 0x22B9 JUMPI POP PUSH1 0x1 EQ PUSH2 0x233F JUMPI POP POP POP PUSH2 0x2256 SWAP3 POP SUB DUP4 PUSH2 0x2164 JUMP JUMPDEST PUSH1 0x0 SWAP1 DUP2 MSTORE PUSH32 0x5F9CE34815F8E11431C7BB75A8E6886A91478F7FFC1DBB0A98DC240FDDD76B75 SWAP6 SWAP1 SWAP4 POP SWAP2 SWAP1 JUMPDEST DUP3 DUP5 LT PUSH2 0x2388 JUMPI POP PUSH2 0x2256 SWAP5 POP POP POP DUP2 ADD PUSH1 0x20 ADD CODESIZE DUP1 DUP1 PUSH2 0x2247 JUMP JUMPDEST DUP6 SLOAD DUP9 DUP6 ADD DUP4 ADD MSTORE SWAP5 DUP6 ADD SWAP5 DUP8 SWAP5 POP SWAP3 DUP2 ADD SWAP3 PUSH2 0x236C JUMP JUMPDEST PUSH1 0x40 MLOAD SWAP1 PUSH2 0x23AD DUP3 PUSH2 0x2149 JUMP JUMPDEST PUSH1 0x3 DUP3 MSTORE PUSH3 0x414D4D PUSH1 0xE8 SHL PUSH1 0x20 DUP4 ADD MSTORE JUMP JUMPDEST DUP2 ISZERO PUSH2 0x23C9 JUMPI DIV SWAP1 JUMP JUMPDEST PUSH4 0x4E487B71 PUSH1 0xE0 SHL PUSH1 0x0 MSTORE PUSH1 0x12 PUSH1 0x4 MSTORE PUSH1 0x24 PUSH1 0x0 REVERT JUMPDEST PUSH1 0x1 PUSH1 0x1 PUSH1 0xA0 SHL SUB AND PUSH1 0x0 SWAP1 DUP2 MSTORE PUSH32 0x52C63247E1F47DB19D5CE0460030C497F067CA4CEBF71BA98EEADABE20BACE01 PUSH1 0x20 MSTORE PUSH1 0x40 SWAP1 KECCAK256 SWAP1 JUMP JUMPDEST PUSH1 0x1 PUSH1 0x1 PUSH1 0xA0 SHL SUB SWAP1 DUP2 AND SWAP1 DUP2 ISZERO PUSH2 0x2473 JUMPI PUSH1 0x0 DUP1 MLOAD PUSH1 0x20 PUSH2 0x2E35 DUP4 CODECOPY DUP2 MLOAD SWAP2 MSTORE DUP1 SLOAD PUSH1 0x1 PUSH1 0x1 PUSH1 0xA0 SHL SUB NOT DUP2 AND DUP5 OR SWAP1 SWAP2 SSTORE AND PUSH32 0x8BE0079C531659141344CD1FD0A4F28419497F9722A3DAAFE3B4186F6B6457E0 PUSH1 0x0 DUP1 LOG3 JUMP JUMPDEST PUSH1 0x40 MLOAD PUSH4 0x1E4FBDF7 PUSH1 0xE0 SHL DUP2 MSTORE PUSH1 0x0 PUSH1 0x4 DUP3 ADD MSTORE PUSH1 0x24 SWAP1 REVERT JUMPDEST PUSH1 0x0 DUP1 MLOAD PUSH1 0x20 PUSH2 0x2E95 DUP4 CODECOPY DUP2 MLOAD SWAP2 MSTORE PUSH1 0x2 DUP2 SLOAD EQ PUSH2 0x24AA JUMPI PUSH1 0x2 SWAP1 SSTORE JUMP JUMPDEST PUSH1 0x40 MLOAD PUSH4 0x3EE5AEB5 PUSH1 0xE0 SHL DUP2 MSTORE PUSH1 0x4 SWAP1 REVERT JUMPDEST PUSH1 0xFF PUSH1 0x0 DUP1 MLOAD PUSH1 0x20 PUSH2 0x2E75 DUP4 CODECOPY DUP2 MLOAD SWAP2 MSTORE SLOAD AND PUSH2 0x24D5 JUMPI JUMP JUMPDEST PUSH1 0x40 MLOAD PUSH4 0xD93C0665 PUSH1 0xE0 SHL DUP2 MSTORE PUSH1 0x4 SWAP1 REVERT JUMPDEST PUSH1 0x40 MLOAD SWAP3 SWAP2 PUSH2 0x24F5 DUP5 PUSH2 0x2149 JUMP JUMPDEST PUSH1 0x19 DUP5 MSTORE PUSH32 0x7472616E7366657228616464726573732C75696E743235362900000000000000 PUSH1 0x20 SWAP5 DUP6 ADD MSTORE PUSH1 0x40 MLOAD PUSH4 0xA9059CBB PUSH1 0xE0 SHL DUP2 DUP7 ADD SWAP1 DUP2 MSTORE PUSH1 0x1 PUSH1 0x1 PUSH1 0xA0 SHL SUB SWAP1 SWAP3 AND PUSH1 0x24 DUP3 ADD MSTORE PUSH1 0x44 DUP1 DUP3 ADD SWAP5 SWAP1 SWAP5 MSTORE SWAP3 DUP4 MSTORE PUSH1 0x1 PUSH1 0x1 PUSH1 0x40 SHL SUB SWAP3 PUSH1 0x80 DUP2 ADD DUP5 DUP2 GT DUP3 DUP3 LT OR PUSH2 0x493 JUMPI PUSH1 0x40 MSTORE PUSH1 0x0 SWAP3 DUP4 SWAP3 DUP4 DUP1 SWAP4 MLOAD SWAP3 GAS CALL SWAP2 RETURNDATASIZE ISZERO PUSH2 0x2637 JUMPI RETURNDATASIZE SWAP1 DUP2 GT PUSH2 0x1F81 JUMPI PUSH1 0x40 MLOAD SWAP1 PUSH2 0x259A PUSH1 0x1F DUP3 ADD PUSH1 0x1F NOT AND DUP7 ADD DUP4 PUSH2 0x2164 JUMP JUMPDEST DUP2 MSTORE RETURNDATASIZE DUP3 DUP6 DUP4 ADD RETURNDATACOPY JUMPDEST DUP3 PUSH2 0x25F7 JUMPI JUMPDEST POP POP ISZERO PUSH2 0x25B3 JUMPI POP JUMP JUMPDEST PUSH1 0x64 SWAP1 PUSH1 0x40 MLOAD SWAP1 PUSH3 0x461BCD PUSH1 0xE5 SHL DUP3 MSTORE PUSH1 0x4 DUP3 ADD MSTORE PUSH1 0x1D PUSH1 0x24 DUP3 ADD MSTORE PUSH32 0x414D4D546F6B656E506169723A205452414E534645525F4641494C4544000000 PUSH1 0x44 DUP3 ADD MSTORE REVERT JUMPDEST DUP1 MLOAD SWAP3 POP DUP3 ISZERO SWAP2 SWAP1 DUP5 DUP4 ISZERO PUSH2 0x2613 JUMPI JUMPDEST POP POP POP SWAP1 POP CODESIZE DUP1 PUSH2 0x25A9 JUMP JUMPDEST SWAP2 SWAP4 DUP2 DUP1 SWAP5 POP ADD SUB SLT PUSH2 0x64F JUMPI DUP3 ADD MLOAD SWAP1 DUP2 ISZERO ISZERO DUP3 SUB PUSH2 0x2BB JUMPI POP DUP1 CODESIZE DUP1 DUP5 PUSH2 0x2607 JUMP JUMPDEST POP PUSH1 0x60 PUSH2 0x25A3 JUMP JUMPDEST SWAP3 SWAP2 PUSH1 0x1 PUSH1 0x1 PUSH1 0x70 SHL SUB SWAP1 DUP2 DUP6 GT ISZERO DUP1 PUSH2 0x277A JUMPI JUMPDEST ISZERO PUSH2 0x273C JUMPI PUSH32 0x1C411E9A96E071241C2F21F7726B17AE89E3CAB4C78BE50E062B03A9FFFBBAD1 SWAP5 PUSH1 0x40 SWAP5 DUP4 SWAP3 PUSH4 0xFFFFFFFF PUSH1 0x3 SLOAD PUSH1 0xE0 SHR DUP2 TIMESTAMP AND SUB AND SWAP2 DUP3 ISZERO ISZERO DUP1 PUSH2 0x2731 JUMPI JUMPDEST DUP1 PUSH2 0x2726 JUMPI JUMPDEST PUSH2 0x26E3 JUMPI JUMPDEST POP POP POP PUSH1 0x70 SWAP4 DUP5 SHL PUSH1 0x1 PUSH1 0x70 SHL PUSH1 0x1 PUSH1 0xE0 SHL SUB AND SWAP2 AND SWAP1 DUP2 OR TIMESTAMP PUSH1 0xE0 SHL PUSH1 0x1 PUSH1 0x1 PUSH1 0xE0 SHL SUB NOT AND OR PUSH1 0x3 DUP2 SWAP1 SSTORE DUP5 MLOAD SWAP2 DUP3 MSTORE SWAP1 SWAP3 SHR AND PUSH1 0x20 DUP3 ADD MSTORE LOG1 JUMP JUMPDEST PUSH1 0x1 PUSH1 0x1 PUSH1 0xE0 SHL SUB SWAP2 PUSH2 0x2715 SWAP2 SWAP1 PUSH2 0x2702 SWAP1 DUP6 DUP6 PUSH2 0x2707 DUP4 DUP6 DUP8 PUSH2 0x2ACD JUMP JUMPDEST PUSH2 0x2AFC JUMP JUMPDEST AND MUL PUSH1 0x4 SLOAD ADD PUSH1 0x4 SSTORE PUSH2 0x2ACD JUMP JUMPDEST AND MUL PUSH1 0x5 SLOAD ADD PUSH1 0x5 SSTORE CODESIZE DUP1 DUP1 PUSH2 0x26A5 JUMP JUMPDEST POP DUP5 DUP2 AND ISZERO ISZERO PUSH2 0x26A0 JUMP JUMPDEST POP DUP5 DUP3 AND ISZERO ISZERO PUSH2 0x269A JUMP JUMPDEST PUSH1 0x40 MLOAD PUSH3 0x461BCD PUSH1 0xE5 SHL DUP2 MSTORE PUSH1 0x20 PUSH1 0x4 DUP3 ADD MSTORE PUSH1 0x16 PUSH1 0x24 DUP3 ADD MSTORE PUSH22 0x414D4D546F6B656E506169723A204F564552464C4F57 PUSH1 0x50 SHL PUSH1 0x44 DUP3 ADD MSTORE PUSH1 0x64 SWAP1 REVERT JUMPDEST POP DUP2 DUP4 GT ISZERO PUSH2 0x2654 JUMP JUMPDEST SWAP2 PUSH1 0x1 PUSH1 0x1 PUSH1 0xA0 SHL SUB DUP1 DUP5 AND SWAP3 DUP4 ISZERO PUSH2 0x2859 JUMPI AND SWAP3 DUP4 ISZERO PUSH2 0x2840 JUMPI PUSH1 0x0 SWAP1 DUP4 DUP3 MSTORE PUSH1 0x0 DUP1 MLOAD PUSH1 0x20 PUSH2 0x2E15 DUP4 CODECOPY DUP2 MLOAD SWAP2 MSTORE DUP1 PUSH1 0x20 MSTORE PUSH1 0x40 DUP4 KECCAK256 SLOAD SWAP2 DUP5 DUP4 LT PUSH2 0x280D JUMPI POP DUP3 DUP5 PUSH32 0xDDF252AD1BE2C89B69C2B068FC378DAA952BA7F163C4A11628F55A4DF523B3EF SWAP6 SWAP4 PUSH1 0x40 SWAP4 DUP9 PUSH1 0x20 SWAP8 MSTORE DUP7 MSTORE SUB DUP3 DUP3 KECCAK256 SSTORE DUP7 DUP2 MSTORE KECCAK256 DUP2 DUP2 SLOAD ADD SWAP1 SSTORE PUSH1 0x40 MLOAD SWAP1 DUP2 MSTORE LOG3 JUMP JUMPDEST PUSH1 0x40 MLOAD PUSH4 0x391434E3 PUSH1 0xE2 SHL DUP2 MSTORE PUSH1 0x1 PUSH1 0x1 PUSH1 0xA0 SHL SUB SWAP2 SWAP1 SWAP2 AND PUSH1 0x4 DUP3 ADD MSTORE PUSH1 0x24 DUP2 ADD SWAP3 SWAP1 SWAP3 MSTORE POP PUSH1 0x44 DUP2 ADD DUP4 SWAP1 MSTORE PUSH1 0x64 SWAP1 REVERT JUMPDEST PUSH1 0x40 MLOAD PUSH4 0xEC442F05 PUSH1 0xE0 SHL DUP2 MSTORE PUSH1 0x0 PUSH1 0x4 DUP3 ADD MSTORE PUSH1 0x24 SWAP1 REVERT JUMPDEST PUSH1 0x40 MLOAD PUSH4 0x4B637E8F PUSH1 0xE1 SHL DUP2 MSTORE PUSH1 0x0 PUSH1 0x4 DUP3 ADD MSTORE PUSH1 0x24 SWAP1 REVERT JUMPDEST PUSH1 0x0 DUP1 MLOAD PUSH1 0x20 PUSH2 0x2E35 DUP4 CODECOPY DUP2 MLOAD SWAP2 MSTORE SLOAD PUSH1 0x1 PUSH1 0x1 PUSH1 0xA0 SHL SUB AND CALLER SUB PUSH2 0x2893 JUMPI JUMP JUMPDEST PUSH1 0x40 MLOAD PUSH4 0x118CDAA7 PUSH1 0xE0 SHL DUP2 MSTORE CALLER PUSH1 0x4 DUP3 ADD MSTORE PUSH1 0x24 SWAP1 REVERT JUMPDEST SWAP2 SWAP1 DUP3 ADD DUP1 SWAP3 GT PUSH2 0x2192 JUMPI JUMP JUMPDEST PUSH1 0x0 DUP1 SLOAD PUSH1 0x40 MLOAD PUSH3 0x2FCFCB PUSH1 0xE3 SHL DUP2 MSTORE SWAP4 SWAP5 SWAP4 SWAP3 SWAP1 PUSH1 0x1 PUSH1 0x1 PUSH1 0xA0 SHL SUB SWAP1 PUSH1 0x20 SWAP1 DUP6 SWAP1 PUSH1 0x4 SWAP1 DUP3 SWAP1 DUP6 AND GAS STATICCALL SWAP4 DUP5 ISZERO PUSH2 0xB16 JUMPI DUP4 SWAP5 PUSH2 0x29B7 JUMPI JUMPDEST POP DUP4 AND ISZERO ISZERO SWAP5 PUSH1 0x6 SLOAD SWAP2 DUP7 PUSH1 0x0 EQ PUSH2 0x29A6 JUMPI DUP3 PUSH2 0x2911 JUMPI JUMPDEST POP POP POP POP POP JUMP JUMPDEST PUSH2 0x1041 PUSH2 0x292E SWAP2 PUSH2 0x2934 SWAP4 PUSH1 0x1 PUSH1 0x1 PUSH1 0x70 SHL SUB DUP1 SWAP2 AND SWAP2 AND PUSH2 0x21A8 JUMP JUMPDEST SWAP2 PUSH2 0x29F8 JUMP JUMPDEST SWAP1 DUP2 DUP2 GT PUSH2 0x2943 JUMPI JUMPDEST DUP1 PUSH2 0x290A JUMP JUMPDEST PUSH2 0x2960 PUSH1 0x0 DUP1 MLOAD PUSH1 0x20 PUSH2 0x2E55 DUP4 CODECOPY DUP2 MLOAD SWAP2 MSTORE SLOAD PUSH2 0x1CC0 DUP5 DUP5 PUSH2 0x2185 JUMP JUMPDEST SWAP3 PUSH1 0x5 DUP3 MUL SWAP2 DUP1 DUP4 DIV PUSH1 0x5 EQ SWAP1 ISZERO OR ISZERO PUSH2 0x106A JUMPI POP PUSH2 0x2989 SWAP3 SWAP2 PUSH2 0x2983 SWAP2 PUSH2 0x28AB JUMP JUMPDEST SWAP1 PUSH2 0x23BF JUMP JUMPDEST DUP1 PUSH2 0x2996 JUMPI JUMPDEST DUP1 DUP1 PUSH2 0x293D JUMP JUMPDEST PUSH2 0x299F SWAP2 PUSH2 0x2A54 JUMP JUMPDEST CODESIZE DUP1 PUSH2 0x298F JUMP JUMPDEST POP POP SWAP1 SWAP2 POP PUSH2 0x29B2 JUMPI POP JUMP JUMPDEST PUSH1 0x6 SSTORE JUMP JUMPDEST SWAP1 SWAP4 POP PUSH1 0x20 DUP2 RETURNDATASIZE PUSH1 0x20 GT PUSH2 0x29F0 JUMPI JUMPDEST DUP2 PUSH2 0x29D3 PUSH1 0x20 SWAP4 DUP4 PUSH2 0x2164 JUMP JUMPDEST DUP2 ADD SUB SLT PUSH2 0x29EC JUMPI MLOAD DUP4 DUP2 AND DUP2 SUB PUSH2 0x29EC JUMPI SWAP3 CODESIZE PUSH2 0x28F2 JUMP JUMPDEST DUP3 DUP1 REVERT JUMPDEST RETURNDATASIZE SWAP2 POP PUSH2 0x29C6 JUMP JUMPDEST SWAP1 PUSH1 0x0 PUSH1 0x3 DUP4 GT ISZERO PUSH2 0x2A47 JUMPI POP DUP2 PUSH1 0x1 SWAP1 DUP1 PUSH1 0x1 SHR PUSH1 0x1 DUP2 ADD DUP1 SWAP2 GT PUSH2 0x2192 JUMPI SWAP2 SWAP1 JUMPDEST DUP5 DUP4 LT PUSH2 0x2A27 JUMPI POP POP POP JUMP JUMPDEST SWAP1 SWAP2 SWAP4 POP PUSH2 0x2A3E DUP5 PUSH2 0x2A39 DUP2 DUP5 PUSH2 0x23BF JUMP JUMPDEST PUSH2 0x28AB JUMP JUMPDEST DUP3 SHR SWAP2 SWAP1 PUSH2 0x2A1B JUMP JUMPDEST SWAP2 PUSH2 0x2A4E JUMPI JUMP JUMPDEST PUSH1 0x1 SWAP2 POP JUMP JUMPDEST PUSH1 0x1 PUSH1 0x1 PUSH1 0xA0 SHL SUB AND SWAP1 DUP2 ISZERO PUSH2 0x2840 JUMPI PUSH32 0xDDF252AD1BE2C89B69C2B068FC378DAA952BA7F163C4A11628F55A4DF523B3EF PUSH1 0x20 PUSH1 0x0 SWAP3 PUSH1 0x0 DUP1 MLOAD PUSH1 0x20 PUSH2 0x2E55 DUP4 CODECOPY DUP2 MLOAD SWAP2 MSTORE PUSH2 0x2AA4 DUP3 DUP3 SLOAD PUSH2 0x28AB JUMP JUMPDEST SWAP1 SSTORE DUP5 DUP5 MSTORE PUSH1 0x0 DUP1 MLOAD PUSH1 0x20 PUSH2 0x2E15 DUP4 CODECOPY DUP2 MLOAD SWAP2 MSTORE DUP3 MSTORE PUSH1 0x40 DUP5 KECCAK256 DUP2 DUP2 SLOAD ADD SWAP1 SSTORE PUSH1 0x40 MLOAD SWAP1 DUP2 MSTORE LOG3 JUMP JUMPDEST PUSH1 0x1 PUSH1 0x70 SHL PUSH1 0x1 PUSH1 0xE0 SHL SUB PUSH1 0x70 DUP3 SWAP1 SHL AND SWAP1 PUSH1 0x1 PUSH1 0x1 PUSH1 0x70 SHL SUB AND DUP1 DUP3 DIV PUSH1 0x1 PUSH1 0x70 SHL EQ SWAP1 ISZERO OR ISZERO PUSH2 0x2192 JUMPI SWAP1 JUMP JUMPDEST SWAP1 PUSH1 0x1 PUSH1 0x1 PUSH1 0x70 SHL SUB AND SWAP1 DUP2 ISZERO PUSH2 0x23C9 JUMPI PUSH1 0x1 PUSH1 0x1 PUSH1 0xE0 SHL SUB AND DIV SWAP1 JUMP JUMPDEST SWAP2 PUSH1 0x1 PUSH1 0x1 PUSH1 0xA0 SHL SUB DUP1 DUP5 AND SWAP3 DUP4 ISZERO PUSH2 0x18B0 JUMPI AND SWAP3 DUP4 ISZERO PUSH2 0x1897 JUMPI PUSH32 0x8C5BE1E5EBEC7D5BD14F71427D1E84F3DD0314C0F7B2291E5B200AC8C7C3B925 SWAP2 PUSH2 0x2B62 PUSH1 0x20 SWAP3 PUSH2 0x23DF JUMP JUMPDEST DUP6 PUSH1 0x0 MSTORE DUP3 MSTORE DUP1 PUSH1 0x40 PUSH1 0x0 KECCAK256 SSTORE PUSH1 0x40 MLOAD SWAP1 DUP2 MSTORE LOG3 JUMP JUMPDEST PUSH2 0x2B80 PUSH2 0x2D25 JUMP JUMPDEST PUSH2 0x2B88 PUSH2 0x2D8F JUMP JUMPDEST PUSH1 0x40 MLOAD SWAP1 PUSH1 0x20 DUP3 ADD SWAP3 PUSH32 0x8B73C3C69BB8FE3D512ECC4CF759CC79239F7B179B0FFACAA9A75D522B39400F DUP5 MSTORE PUSH1 0x40 DUP4 ADD MSTORE PUSH1 0x60 DUP3 ADD MSTORE CHAINID PUSH1 0x80 DUP3 ADD MSTORE ADDRESS PUSH1 0xA0 DUP3 ADD MSTORE PUSH1 0xA0 DUP2 MSTORE PUSH1 0xC0 DUP2 ADD DUP2 DUP2 LT PUSH1 0x1 PUSH1 0x1 PUSH1 0x40 SHL SUB DUP3 GT OR PUSH2 0x493 JUMPI PUSH1 0x40 MSTORE MLOAD SWAP1 KECCAK256 SWAP1 JUMP JUMPDEST PUSH1 0xFF PUSH1 0x0 DUP1 MLOAD PUSH1 0x20 PUSH2 0x2EB5 DUP4 CODECOPY DUP2 MLOAD SWAP2 MSTORE SLOAD PUSH1 0x40 SHR AND ISZERO PUSH2 0x2C0A JUMPI JUMP JUMPDEST PUSH1 0x40 MLOAD PUSH4 0x1AFCD79F PUSH1 0xE3 SHL DUP2 MSTORE PUSH1 0x4 SWAP1 REVERT JUMPDEST SWAP2 SWAP1 PUSH32 0x7FFFFFFFFFFFFFFFFFFFFFFFFFFFFFFF5D576E7357A4501DDFE92F46681B20A0 DUP5 GT PUSH2 0x2C94 JUMPI SWAP3 PUSH1 0x20 SWAP3 SWAP2 PUSH1 0xFF PUSH1 0x80 SWAP6 PUSH1 0x40 MLOAD SWAP5 DUP6 MSTORE AND DUP5 DUP5 ADD MSTORE PUSH1 0x40 DUP4 ADD MSTORE PUSH1 0x60 DUP3 ADD MSTORE PUSH1 0x0 SWAP3 DUP4 SWAP2 DUP3 DUP1 MSTORE PUSH1 0x1 GAS STATICCALL ISZERO PUSH2 0xAD5 JUMPI DUP1 MLOAD PUSH1 0x1 PUSH1 0x1 PUSH1 0xA0 SHL SUB DUP2 AND ISZERO PUSH2 0x2C8B JUMPI SWAP2 DUP2 SWAP1 JUMP JUMPDEST POP DUP1 SWAP2 PUSH1 0x1 SWAP2 SWAP1 JUMP JUMPDEST POP POP POP PUSH1 0x0 SWAP2 PUSH1 0x3 SWAP2 SWAP1 JUMP JUMPDEST PUSH1 0x4 DUP2 LT ISZERO PUSH2 0x2D0F JUMPI DUP1 PUSH2 0x2CB2 JUMPI POP POP JUMP JUMPDEST PUSH1 0x1 DUP2 SUB PUSH2 0x2CCC JUMPI PUSH1 0x40 MLOAD PUSH4 0xF645EEDF PUSH1 0xE0 SHL DUP2 MSTORE PUSH1 0x4 SWAP1 REVERT JUMPDEST PUSH1 0x2 DUP2 SUB PUSH2 0x2CED JUMPI PUSH1 0x40 MLOAD PUSH4 0xFCE698F7 PUSH1 0xE0 SHL DUP2 MSTORE PUSH1 0x4 DUP2 ADD DUP4 SWAP1 MSTORE PUSH1 0x24 SWAP1 REVERT JUMPDEST PUSH1 0x3 EQ PUSH2 0x2CF7 JUMPI POP JUMP JUMPDEST PUSH1 0x24 SWAP1 PUSH1 0x40 MLOAD SWAP1 PUSH4 0x35E2F383 PUSH1 0xE2 SHL DUP3 MSTORE PUSH1 0x4 DUP3 ADD MSTORE REVERT JUMPDEST PUSH4 0x4E487B71 PUSH1 0xE0 SHL PUSH1 0x0 MSTORE PUSH1 0x21 PUSH1 0x4 MSTORE PUSH1 0x24 PUSH1 0x0 REVERT JUMPDEST PUSH2 0x2D2D PUSH2 0x21F5 JUMP JUMPDEST DUP1 MLOAD SWAP1 DUP2 ISZERO PUSH2 0x2D3D JUMPI PUSH1 0x20 ADD KECCAK256 SWAP1 JUMP JUMPDEST POP POP PUSH32 0xA16A46D94261C7517CC8FF89F61C0CE93598E3C849801011DEE649A6A557D100 SLOAD DUP1 ISZERO PUSH2 0x2D6A JUMPI SWAP1 JUMP JUMPDEST POP PUSH32 0xC5D2460186F7233C927E7DB2DCC703C0E500B653CA82273B7BFAD8045D85A470 SWAP1 JUMP JUMPDEST PUSH2 0x2D97 PUSH2 0x22DF JUMP JUMPDEST DUP1 MLOAD SWAP1 DUP2 ISZERO PUSH2 0x2DA7 JUMPI PUSH1 0x20 ADD KECCAK256 SWAP1 JUMP JUMPDEST POP POP PUSH32 0xA16A46D94261C7517CC8FF89F61C0CE93598E3C849801011DEE649A6A557D101 SLOAD DUP1 ISZERO PUSH2 0x2D6A JUMPI SWAP1 JUMP INVALID 0x2A 0xE0 DUP11 DUP15 0x29 0x25 EXTCODEHASH PUSH10 0xAC5D979A101956AB8F8D SWAP14 PUSH30 0xED63FA7A83B16FC47648EAB052C63247E1F47DB19D5CE0460030C497F067 0xCA 0x4C 0xEB 0xF7 SHL 0xA9 DUP15 0xEA 0xDA 0xBE KECCAK256 0xBA 0xCE SUB MSTORE 0xC6 ORIGIN SELFBALANCE 0xE1 DELEGATECALL PUSH30 0xB19D5CE0460030C497F067CA4CEBF71BA98EEADABE20BACE009016D09D72 0xD4 0xF 0xDA 0xE2 REVERT DUP13 0xEA 0xC6 0xB6 0x23 0x4C PUSH24 0x6214FD39C1CD1E609A0528C19930052C63247E1F47DB19D 0x5C 0xE0 CHAINID STOP ADDRESS 0xC4 SWAP8 CREATE PUSH8 0xCA4CEBF71BA98EEA 0xDA 0xBE KECCAK256 0xBA 0xCE MUL 0xCD 0x5E 0xD1 0x5C PUSH15 0x187E77E9AEE88184C21F4F2182AB58 0x27 0xCB EXTCODESIZE PUSH31 0x7FBEDCD63F033009B779B17422D0DF92223018B32B4D1FA46E071723D6817 0xE2 BASEFEE PUSH14 0x3BECC55F00F0C57E16840DF040 CALL POP DUP9 0xDC 0x2F DUP2 INVALID CODECOPY SHR CODECOPY 0x23 0xBE 0xC7 RETURNDATACOPY 0x23 0xA9 PUSH7 0x2EFC9C229C6A00 LOG2 PUSH5 0x6970667358 0x22 SLT KECCAK256 0xD3 SELFDESTRUCT 0xDD RETURNDATASIZE SWAP3 0xE9 0xDA SLOAD MULMOD ADD 0xDE 0xFB DUP3 DELEGATECALL 0xC PUSH25 0x49526E5EA3C333DEA2EDC1213DF2D8F964736F6C6343000816 STOP CALLER "},"methodIdentifiers":{"DOMAIN_SEPARATOR()":"3644e515","MINIMUM_LIQUIDITY()":"ba9a7a56","allowance(address,address)":"dd62ed3e","approve(address,uint256)":"095ea7b3","balanceOf(address)":"70a08231","burn(address)":"89afcb44","decimals()":"313ce567","eip712Domain()":"84b0196e","factory()":"c45a0155","getReserves()":"0902f1ac","initialize(address,address)":"485cc955","kLast()":"7464fc3d","mint(address)":"6a627842","name()":"06fdde03","nonces(address)":"7ecebe00","owner()":"8da5cb5b","pause()":"8456cb59","paused()":"5c975abb","permit(address,address,uint256,uint256,uint8,bytes32,bytes32)":"d505accf","price0CumulativeLast()":"5909c0d5","price1CumulativeLast()":"5a3d5493","renounceOwnership()":"715018a6","skim(address)":"bc25cf77","swap(uint256,uint256,address,bytes)":"022c0d9f","symbol()":"95d89b41","sync()":"fff6cae9","token0()":"0dfe1681","token1()":"d21220a7","totalSupply()":"18160ddd","transfer(address,uint256)":"a9059cbb","transferFrom(address,address,uint256)":"23b872dd","transferOwnership(address)":"f2fde38b","unpause()":"3f4ba83a"}},"storageLayout":{"storage":[{"astId":8599,"contract":"contracts/AMMTokenPair.sol:AMMTokenPair","label":"factory","offset":0,"slot":"0","type":"t_address"},{"astId":8601,"contract":"contracts/AMMTokenPair.sol:AMMTokenPair","label":"token0","offset":0,"slot":"1","type":"t_address"},{"astId":8603,"contract":"contracts/AMMTokenPair.sol:AMMTokenPair","label":"token1","offset":0,"slot":"2","type":"t_address"},{"astId":8605,"contract":"contracts/AMMTokenPair.sol:AMMTokenPair","label":"reserve0","offset":0,"slot":"3","type":"t_uint112"},{"astId":8607,"contract":"contracts/AMMTokenPair.sol:AMMTokenPair","label":"reserve1","offset":14,"slot":"3","type":"t_uint112"},{"astId":8609,"contract":"contracts/AMMTokenPair.sol:AMMTokenPair","label":"blockTimestampLast","offset":28,"slot":"3","type":"t_uint32"},{"astId":8611,"contract":"contracts/AMMTokenPair.sol:AMMTokenPair","label":"price0CumulativeLast","offset":0,"slot":"4","type":"t_uint256"},{"astId":8613,"contract":"contracts/AMMTokenPair.sol:AMMTokenPair","label":"price1CumulativeLast","offset":0,"slot":"5","type":"t_uint256"},{"astId":8615,"contract":"contracts/AMMTokenPair.sol:AMMTokenPair","label":"kLast","offset":0,"slot":"6","type":"t_uint256"}],"types":{"t_address":{"encoding":"inplace","label":"address","numberOfBytes":"20"},"t_uint112":{"encoding":"inplace","label":"uint112","numberOfBytes":"14"},"t_uint256":{"encoding":"inplace","label":"uint256","numberOfBytes":"32"},"t_uint32":{"encoding":"inplace","label":"uint32","numberOfBytes":"4"}}}}}}